:100000000C9482020C94AA020C94AA020C94AA02E8
:100010000C94AA020C94AA020C94AA020C94AA02B0
:100020000C94AA020C94CA150C9494150C940D14FB
:100030000C94AA020C94AA020C94AA020C94AA0290
:100040000C94A4120C94AA020C94AA020C94AA0276
:100050000C94AA020C94AA020C94AA020C94AA0270
:100060000C94EE120C94AA02AE2000B0C80010400E
:10007000813FA1A6A83FA4D301D5F0D922DA12DB93
:10008000208D14426574726965623F00496E626535
:1000900074726965626E61686D653F004661737474
:1000A000436C6F636B0043563F004932432D5363EB
:1000B000616E3F0066657274696700307800444382
:1000C000430054616B740056657273696F6E200053
:1000D000556872656E7A656E7472616C6500446510
:1000E00076696465722031303A0046432D536C6165
:1000F000766520537461747573003F3F3F0041641F
:1001000072204C4E2D302F3100436F6E6669672090
:1001100031004366672046432D536C760053572DBC
:1001200049440056657273696F6E0052657365725B
:100130007665005265736572766500526573657207
:100140007665005761697454696D65004465766928
:10015000642E31303A6E0044657669636549440027
:10016000726F004576656E004F646420002D313A51
:10017000002D2D2D0053746F707065643A205275F8
:100180006E3F200052756E6E696E673A2053746F31
:10019000703F004D696E757465005374756E6465CB
:1001A000000000000000000000002F000000000719
:1001B00000070000147F147F1400242A7F2A1200F5
:1001C00062640813230036495522500000050300DD
:1001D0000000001C224100000041221C0000140805
:1001E0003E08140008083E0808000000A060000057
:1001F00008080808080000606000000020100804DB
:1002000002003E5149453E0000427F4000004261ED
:10021000514946002141454B31001814127F10000E
:100220002745454539003C4A4949300001710905D7
:100230000300364949493600064949291E0000365F
:10024000360000000056360000000814224100006D
:10025000141414141400004122140800020151095E
:100260000600324959513E007C1211127C007F4930
:10027000494936003E41414122007F4141221C0054
:100280007F49494941007F09090901003E41494927
:100290007A007F0808087F0000417F41000020406D
:1002A000413F01007F08142241007F404040400050
:1002B0007F020C027F007F0408107F003E41414115
:1002C0003E007F09090906003E4151215E007F0979
:1002D0001929460046494949310001017F010100C1
:1002E0003F4040403F001F2040201F003F4038401B
:1002F0003F00631408146300070870080700615189
:1003000049454300007F41410000552A552A5500C8
:100310000041417F000004020102040040404040CF
:1003200040000001020400002054545478007F482B
:1003300044443800384444442000384444487F0052
:10034000385454541800087E0901020018A4A4A4CB
:100350007C007F080404780000447D400000408059
:10036000847D00007F102844000000417F40000091
:100370007C04180478007C08040478003844444461
:100380003800FC242424180018242418FC007C08BD
:1003900004040800485454542000043F4440200002
:1003A0003C4040207C001C2040201C003C40304051
:1003B0003C004428102844001CA0A0A07C004464F9
:1003C000544C440000087741000000006300000026
:1003D0000041770800000804080804003A40402063
:1003E0007A003D4040403D002154545479007D1234
:1003F00011127D003944444439003D4242423D00DF
:100400000205020000007E01495573007C101008AF
:100410001C000101010101FC5FDC60E461C462F6C3
:1004200063D664B065DF66B567AF68FFFF45766584
:100430006E004F646420002D2D3A2D2D0073746FD3
:10044000726564006661696C65640073746F7265DF
:10045000640000000008000201000003040700001F
:100460000000000000000086227E6DD24620290B8D
:100470002170104080523F065B4F666D7D077F6F95
:10048000090D614843D35F777C395E79713D7630E1
:100490001E753815373F736B336D783E3E2A766E86
:1004A0005B39640F2308025F7C585E7B716F7410A8
:1004B0000C753014545C7367506D781C1C14766E88
:1004C0005B463070010000000000250028002B0072
:1004D00000000000240027002A000404040404048F
:1004E00004040202020202020303030303030102E3
:1004F00004081020408001020408102001020408B2
:100500001020F31611241FBECFEFD8E0DEBFCDBF01
:1005100011E0A0E0B1E0ECEBFFE402C005900D9229
:10052000A63BB107D9F724E0A6EBB1E001C01D92CC
:10053000A138B207E1F712E0C2E8D2E004C0219787
:10054000FE010E948F26C138D107C9F70E94A61765
:100550000C94DC270C94000090E0FC01E251FB4F6E
:10056000249186529B4FFC018491882399F090E05E
:10057000880F991FFC01E053FB4FA591B491FC013A
:10058000EA53FB4F859194918FB7F894EC91E22B4D
:10059000EC938FBF0895089508958530A8F4262F11
:1005A0002052330BF901EA59FB4FE491A82FB0E038
:1005B000AA0FBB1FA15BBB4F30E8439FA0011124D2
:1005C000E42BF0E0ED93FC93089590E0FC01EE5AEB
:1005D000FB4F2491FC01E251FB4F3491FC01E652A8
:1005E000FB4FE491EE23C9F0222339F0233001F1CF
:1005F000A8F4213019F1223029F1F0E0EE0FFF1FAD
:10060000EA53FB4FA591B4918FB7F894EC91611127
:1006100026C030953E233C938FBF08952730A9F024
:100620002830C9F0243049F7809180008F7D03C0C5
:10063000809180008F7780938000DFCF84B58F77A3
:1006400084BDDBCF84B58F7DFBCF8091B0008F77E9
:100650008093B000D2CF8091B0008F7DF9CF3E2B38
:10066000DACF3FB7F8948091ED029091EE02A0911D
:10067000EF02B091F00226B5A89B05C02F3F19F0FC
:100680000196A11DB11D3FBFBA2FA92F982F882712
:10069000BC01CD01620F711D811D911D42E0660FED
:1006A000771F881F991F4A95D1F708952FB7F8949F
:1006B0006091E9027091EA028091EB029091EC0264
:1006C0002FBF0895AF92BF92CF92DF92EF92FF9229
:1006D0000F931F93CF93DF936C017B018B01040F6A
:1006E000151FEB015E01AE18BF08C017D10759F006
:1006F0006991D601ED91FC910190F081E02DC60148
:100700000995892B79F7C501DF91CF911F910F9141
:10071000FF90EF90DF90CF90BF90AF90089584E866
:100720008093BC0080E491E02091BC0027FF03C0CF
:100730008091BB0008950197B9F78091F102806123
:100740008093F10280E008958093BB0084E8809359
:10075000BC0080E491E02091BC0027FD0895019742
:10076000D1F78091F10284608093F102089594EAB8
:100770009093BC0020E431E09091BC0097FF0CC046
:100780008093BB0084E88093BC0080E491E02091DA
:10079000BC0027FF0AC008952150310969F78091F4
:1007A000F10281608093F1020895019781F78091B1
:1007B000F1028260F7CF1F93CF93DF93EC01142FE8
:1007C0004F83688785E090E09D838C838FEF66235D
:1007D00049F081E0860F0E94B7030E948F0394E9DD
:1007E0009093BC0090E08095909502C09595879578
:1007F0001A95E2F780FD0CC080E08E830E945603BC
:10080000688379838A839B83DF91CF911F910895B9
:1008100083E0F3CFEF92FF920F931F93CF93DF9379
:100820007C018B0188E70E94B70380E40E94A40347
:10083000E7010E0D1F1DC017D10751F484E9809305
:10084000BC00DF91CF911F910F91FF90EF90089521
:1008500089910E94A403EFCFEF92FF920F931F9311
:10086000CF93DF93182FE92E062F88E70E94B70356
:1008700080E00E94A403F12EC12FDE2D89910E94F9
:10088000A4038C2F8F198017C8F384E98093BC00D0
:10089000DF91CF911F910F91FF90EF900895CF932B
:1008A000DF9300D000D01F92CDB7DEB7E7E9F2E0CA
:1008B000808361836055698391E29A8392E0980F07
:1008C0009F709B8390E0029624E0959587952A95EA
:1008D000E1F7805F8C838FE78D8365E0CE01019621
:1008E0000E942C040F900F900F900F900F90DF91AB
:1008F000CF910895813820F4683010F40C944F049F
:100900000895982F990F890F880F0C947A040F93EC
:100910001F93CF93DF93893009F459C0C82F8A30D1
:10092000A0F5883009F43EC0809197028A3708F01C
:100930007AC0C03208F477C0C052E8E1F4E0E49134
:10094000CE1708F075C088E70E94B70380E40E94C4
:10095000A403F6E0CF9FE001112410E000E0CF55A2
:10096000DE4FFE01E00FF11F84910E94A4030F5F90
:100970001F4F06301105A9F784E98093BC008091D0
:1009800097028A5F809397024EC08A3051F160913E
:10099000980280E0CD3041F6DF91CF911F910F9109
:1009A0000C947A04809197026091980281500E9481
:1009B000810480E20E9487048091970260919802EE
:1009C0008150DF91CF911F910F910C948104809100
:1009D0009702609198028D3010F48C5FF2CF8EE711
:1009E000DBCF609198026730F0F46F5F80919702DF
:1009F000E8CF9F5F292F30E0220F331FA901485E07
:100A00005B4FFA0184918F3F71F0F901E95EFB4F72
:100A1000E491E052FF0BEC17FD0759F7FA01C4917E
:100A2000CF3F09F090CFDF91CF911F910F910895A3
:100A300090E0D0E0DFCF1F93CF93DF93182FEC012E
:100A40009C2F911BFE0184912196882319F00E940E
:100A50008704F6CF892F90E0DF91CF911F91089501
:100A6000EF92FF920F931F93CF93DF9300D000D0AC
:100A70001F92CDB7DEB7E82E062FF72E962FE62F62
:100A8000F72F1E2F191B849131968111FACF6E2DED
:100A90000E947A042AEF2103C001112480589F4F3D
:100AA00097FD01969595879521E22A832FE72D835F
:100AB00020EB2E0D298322E0280F2F702B839927FE
:100AC000029634E0959587953A95E1F78F70805FAF
:100AD0008C8365E0CE0101960E942C04802F9F2D0F
:100AE0000E941B050F900F900F900F900F90DF91B9
:100AF000CF911F910F91FF90EF9008951F93CF9387
:100B0000DF93182FEC019C2F911B8991882319F0FA
:100B10000E948704F8CF892F90E0DF91CF911F9139
:100B20000895CF92DF92EF92FF920F931F93CF938E
:100B3000DF93CDB7DEB7A1970FB6F894DEBF0FBE37
:100B4000CDBF282F30E050E040E019A28E010F5DAC
:100B50001F4F6B01770FEE08FF08CA01B901A7010B
:100B600096010E944E26605DF80162938F01211567
:100B700031054105510521F0EC17FD0771F78E0194
:100B8000C8010E947E05A1960FB6F894DEBF0FBE85
:100B9000CDBFDF91CF911F910F91FF90EF90DF902C
:100BA000CF900895CF92DF92EF92FF920F931F9311
:100BB000CF93DF93CDB7DEB7A1970FB6F894DEBF22
:100BC0000FBECDBF6B01BC0190E080E019A28E0189
:100BD0000F5D1F4F0D2C000CEE08FF08A7019601BA
:100BE0000E944E26E62FCA01B901EA30F4F4E05D16
:100BF000D801EE938D01232B242B252B21F0AC174C
:100C0000BD0761F78E01C8010E947E05A1960FB64F
:100C1000F894DEBF0FBECDBFDF91CF911F910F9132
:100C2000FF90EF90DF90CF900895E95CE1CF1092B4
:100C3000B90088E48093B80084E08093BC000895F4
:100C4000809346040E94170688E70E94B7038091AC
:100C5000F102882311F090E00895809146048823E2
:100C600061F00E941706809146040E94B7038091AC
:100C7000F10290E0982F8827089590E080E0089591
:100C800090E080E00895089520917402260F3327A4
:100C9000331F21323105ECF42091CF03FC0190E0A9
:100CA00080E0243069F082E00895A09174022191DF
:100CB000AC014C5A5D4FA40FB52FB11D2C9301967A
:100CC000861798F380917402680F6093740280E035
:100CD000089581E008951092CF0381E08093CE03C0
:100CE0001092A90361E082E10E94E50261E083E1E4
:100CF0000E94E502E9EBF0E080818E7F80838081B5
:100D00008D7F808388E48093B80085E48093BC0065
:100D100008951092A8031092A7031092D603109280
:100D2000F8030E946B068BEC92E09093A6038093ED
:100D3000A5038CEC92E09093A4038093A303089501
:100D4000CF93DF9391E0909353028823B9F0C09141
:100D5000B800D091BA008091BC008A7B8093BC001F
:100D600060E082E10E94E50260E083E10E94E5022A
:100D70000E946B06D093BA00C093B800DF91CF9168
:100D800008958F929F92AF92BF92CF92DF92EF928F
:100D9000FF920F931F93CF93DF93D091F803D1323B
:100DA00008F0D7C0182FC091F7030E9431036B01E0
:100DB0007C018091CF0381116BC082E08093CF03CF
:100DC0001093CE038FEF8093CD031092CC03D0937A
:100DD000CB03A7EDB3E0EBEAF3E080E0D81391C0DA
:100DE0001092AA038091AA03CC0FC82BC093AA0328
:100DF0008091A903813009F088C01092A9030E9454
:100E000031036B017C018091AA038093BB00809128
:100E1000D1039091D203A091D303B091D403892B35
:100E20008A2B8B2BA1F00E9431030091D1031091EA
:100E3000D2032091D3033091D4036C197D098E091C
:100E40009F09061717072807390708F442C0809141
:100E5000BC0083FDD8CF85EC8093BC000E94310399
:100E60006B017C018091CF03823009F450C08091E6
:100E7000CD038F3F09F46FC08091CD03803209F418
:100E80006CC08091CD03803309F469C084E026C032
:100E90008091D1039091D203A091D303B091D40358
:100EA000892B8A2B8B2B09F484CF0E9431038090ED
:100EB000D1039090D203A090D303B090D4036C19C7
:100EC0007D098E099F0986169706A806B90608F0BF
:100ED00070CF8091D0030E94A00685E01092D603C7
:100EE0001092F8031092D503DF91CF911F910F91CB
:100EF000FF90EF90DF90CF90BF90AF909F908F903A
:100F000008959D9191938F5F69CF85EEA5CF8091D4
:100F1000D1039091D203A091D303B091D403892B34
:100F20008A2B8B2B09F49ECF0E9431030091D103B1
:100F30001091D2032091D3033091D4036C197D0911
:100F40008E099F09061717072807390708F08ACF67
:100F5000C0CF81E0C3CF80E0C1CF82E0BFCF83E0CC
:100F6000BDCFCF93DF93CEE6D4E08A83AE81BF813D
:100F7000988121E02093D5039093F7031092D60334
:100F80001092F803ED91FC9111970190F081E02D02
:100F9000682FCD01099581E00E94C10690E09D83F4
:100FA0008C83DF91CF910895CF93DF93EC018B81F8
:100FB0008823A1F0888191E09093D5038093F70373
:100FC0001092D6031092F80381E00E94C10691E0CE
:100FD000811190E0892FDF91CF9108950E948906B9
:100FE00081E08B83CE010E94D407982F8111E2CF3C
:100FF000F1CF0895E091A8038091A703E81730F49A
:10100000F0E0ED54FD4F808190E008958FEF9FEF69
:1010100008959091A8038091A7032FEF3FEF9817B1
:1010200048F4E92FF0E0ED54FD4F208130E09F5F60
:101030009093A803C90108958091A7039091A803F4
:10104000891B990B0895CF92DF92EF92FF920F9335
:101050001F93CF93DF937C01CB018A012091D503AD
:10106000222389F0EB016B01C40ED51ECC15DD05E2
:1010700069F06991D701ED91FC910190F081E02D2B
:10108000C7010995F3CF642F0E944406C801DF9180
:10109000CF911F910F91FF90EF90DF90CF90089527
:1010A000CF93DF931F92CDB7DEB769832091D5032D
:1010B0002223F9F02091F803203258F021E030E0AB
:1010C000FC013383228390E080E00F90DF91CF9189
:1010D00008958091D603E82FF0E0E952FC4F998102
:1010E00090838F5F8093D6038093F80381E090E034
:1010F000ECCF61E0CE0101960E944406F7CF90E06C
:1011000080E008959C01DC01A058BF4FEC9191E074
:101110009E0F9C93E20FF32FF11D608397FD1C92AD
:101120000895FC0180818076803611F481810895D4
:101130008081829586708E5F0895CF92DF92EF92C4
:10114000FF920F931F93CF93DF93EC0109E11EE20F
:10115000EE24E394F12C93E0D92ECC24C394CE0159
:101160000E94910880931303E0911303E1501092C1
:1011700012038FEF909112039E1768F4A09112034F
:10118000AC0FBD2FB11D9C918927909112039F5FD9
:1011900090931203EFCFEC0FFD2FF11D8083F89495
:1011A00080911103813059F480911003811738F038
:1011B0001092110380916F008D7F80936F0078945F
:1011C00080911103813031F480911003843138F221
:1011D000C12CC5CF8091110381110EC0F89480916C
:1011E0006F008F7D80936F00B59B09C080916F0069
:1011F000806280936F007894C110B1CF56C0E091A7
:101200000E03F0910F03808190910D03970101C0AF
:10121000220F9A95EAF7822B808380918400909127
:1012200085008A5A9C4F90930C0380930B03809106
:101230000B0390910C03909389008093880078941D
:10124000D0930A03C093090310921203109208036B
:10125000888180930703D092110310921003B19AF2
:1012600080916F00826080936F00809111038330C2
:10127000E1F3809108038823B1F0E0910503F09138
:101280000603E757FF4F8081918101969183808308
:1012900083E090E0DF91CF911F910F91FF90EF904D
:1012A000DF90CF900895809111031B3108F0115009
:1012B000015009F052CF80919F039091A0030196B5
:1012C0009093A00380939F0386E090E0E3CF20916A
:1012D000BE01FC0120838091BF01FB0180838091CE
:1012E000500208950F931F93CF93DF9300D0CDB793
:1012F000DEB765E080E00E944F048091260182FF06
:101300003BC08091500281110BC081E791E00E94A7
:101310001B050F900F90DF91CF911F910F910895B2
:101320000091D9021091510280919A020E94870483
:101330008DE691E00E941B05802F0E9487048DE2BC
:101340000E94870480E3111181E30E9487048DE2EB
:101350000E9487041A821982BE016F5F7F4FCE01FF
:1013600002960E946709898180FD03C083E691E0AF
:10137000CECF88E691E0CBCF8091E202882319F0AE
:1013800084E891E0C4CF85E791E0C1CF1F93CF936C
:10139000DF9300D0CDB7DEB7182F19821A82BE01B5
:1013A0006E5F7F4FCE0101960E94670989811111FE
:1013B0008A810F900F90DF91CF911F910895CF9365
:1013C000DF93DC0114962D913C912417350710F41E
:1013D00090E01EC0EA01FC0181819281208131E010
:1013E0003093D5032093F7031092D6031092F8039D
:1013F000DC01ED91FC910280F381E02D0995C81785
:10140000D90731F781E00E94C10691E08111E0CF58
:10141000892FDF91CF910895CF93DF93CDB7DEB7BA
:1014200061970FB6F894DEBF0FBECDBF1982AFE44F
:10143000B4E0FE013196BF019C9111968C911197F9
:10144000129691838283329684E0AF35B807A1F774
:1014500041E150E080915F04909160040E94DF09B7
:1014600061960FB6F894DEBF0FBECDBFDF91CF916E
:101470000895CF93DF93CDB7DEB760970FB6F8949A
:10148000DEBF0FBECDBF80912A0190912B019C0140
:10149000215031092F3F374010F090E080E0019754
:1014A000811528E09207F8F49C01220F232F221FB8
:1014B000330B31958F779091E202911112C0206128
:1014C00091EB99838A832B83CE0101960E949D081C
:1014D00060960FB6F894DEBF0FBECDBFDF91CF91FF
:1014E00008952063EDCF85E090E0F2CF4F925F92B8
:1014F0006F927F928F929F92AF92BF92CF92DF9224
:10150000EF92FF920F931F93CF93DF9391E090930D
:10151000500260919A0270919B026F5F7F4F7093AF
:101520009B0260939A028093D90200935102811129
:1015300001C090E09093DA02011104C0909126015D
:1015400093FFA5C0882309F4A2C0D22F042F0E94C4
:1015500056036093D5027093D6028093D70290937E
:10156000D8028091BF01D81709F48DC0809126015F
:101570009091270180729927D0FD04C0892B21F01A
:1015800082E003C0892BE1F381E08093DB0280914C
:10159000D402882329F08091DB028C6F0E94B1076E
:1015A00080919902882309F46EC06D2F70E084E663
:1015B000089F600D711D1124072E000C880B990BDC
:1015C0000E9425252B013C0120E030E040E05FE354
:1015D0000E9411240E94F4246B017C01812C912C27
:1015E00030E8A32E3FE3B32E10E080E1C81687E277
:1015F000D806E104F104E0F0115020E030E040E2D0
:1016000051E4C501B4010E9482244B015C01AC018C
:101610009B01C301B2010E94D52520E030E040E0EB
:101620005FE30E9411240E94F4246B017C01DDCF52
:1016300020E030E040E85FE3C501B4010E947D2472
:10164000712CC4E02AE0822E912CA12CB12C87FFB2
:101650002FC080E490E09093500480934F049093C7
:1016600052048093510490935604809355049093B0
:1016700058048093570482E090E090935404809340
:1016800053040E940C0A0093BE01D093BF01DF9166
:10169000CF911F910F91FF90EF90DF90CF90BF906F
:1016A000AF909F908F907F906F905F904F90089534
:1016B000C114D104E104F10411F4171588F11123C8
:1016C00019F0442443941711412C5C2EC1506C2E08
:1016D00084E0851558F0C701B601A50194010E9468
:1016E0004E26605D442D852D0E94CD02C23069F4E6
:1016F000CEEFC50D84E0861540F0E62DF0E0EE0F4C
:10170000FF1FE15BFB4F11821082C701B601A501EB
:1017100094010E944E2669017A017394C9CFC15089
:10172000C7FDA9CFC530DCF7EC2FF0E0EE0FFF1FAF
:10173000E15BFB4F11821082F2CF0F93082F2091B3
:10174000FB0223548091FD0298E9980F883618F423
:1017500068E10E944226492F6091FE028091F802C2
:101760000E94760A0F9108950F93FC01DB018C9182
:101770008F5F8C3370F48C93809118016AE00E9423
:10178000422601E02C91408160E00E94760A0F9190
:1017900008951C9280818F5F883110F48083ECCF94
:1017A0001082EACFEF92FF921F93CF93DF93CDB7D2
:1017B000DEB7C058D1090FB6F894DEBF0FBECDBF5B
:1017C000CE0101967C0180E8F70111928A95E9F734
:1017D00010E0612F80E00E947A0460E870E0C701A9
:1017E0000E940A041F5F1830A1F760E080E00E94A9
:1017F0004F04C058DF4F0FB6F894DEBF0FBECDBF09
:10180000DF91CF911F91FF90EF9008951F93CF9399
:10181000DF930E94D20B60E080E00E944F0488E7D3
:101820000E94B70380E40E94A4038FEF0E94A403E8
:10183000CEE781E00E94A403C150D9F78FEF0E9448
:10184000A40384E98093BC00C1E014E96C2F80E01C
:101850000E947A0488E70E94B70380E40E94A403F0
:101860008FEF0E94A4031093BC006C2F88E70E94A6
:101870007A0488E70E94B70380E40E94A403D7E0BB
:1018800080E00E94A403D150D9F78FEF0E94A403F7
:101890001093BC00CF5FC730C9F667E080E00E94BC
:1018A0004F0488E70E94B70380E40E94A4038FEFEF
:1018B0000E94A403CEE780E80E94A403C150D9F798
:1018C0008FEF0E94A40384E98093BC0060ED70E078
:1018D00082E00E94300567EC70E084E00E943005F1
:1018E0006AE070E080912201909123010E94D2056C
:1018F000809128016EEB70E084FF02C062EC70E022
:1019000085E00E9430051092E302DF91CF911F9194
:1019100008950E94D20B60E080E00E944F0460EDC9
:1019200070E080E00C943005CF93DF93CDB7DEB745
:101930006C970FB6F894DEBF0FBECDBF82E40E9455
:101940002006892B09F490C08AE50E942006892B85
:1019500009F08CC081E090914F02911183C08823DF
:1019600019F08AE5809346040E941706E8E6F0E045
:10197000DE0111969E01245E3F4FCD0144914D93AF
:1019800031962A173B07D1F72FEA2C8F6CE10E9482
:101990002C040E94D20B80914604882309F44CC089
:1019A0000E941706809146040E94B7038FEF0E94A1
:1019B000A40384E98093BC0050E040E060914604B9
:1019C0008EEF93E00E94DB0341E050E0609146041B
:1019D00087E094E00E94DB0342E050E0609146041F
:1019E00080E194E00E94DB0343E050E06091460414
:1019F00089E194E00E94DB0344E050E060914604FA
:101A000082E294E00E94DB0345E050E060914604EE
:101A10008BE294E00E94DB0346E050E060914604D4
:101A200084E394E00E94DB0347E050E060914604C9
:101A30008DE394E00E94DB038091240190912501C5
:101A40000B9711F40E94060C1092A6021092AC02A1
:101A50001092E3021092A8021092A7021092A9021B
:101A60001092A50281E003C080E075CF80E08093F2
:101A70004F026C960FB6F894DEBF0FBECDBFDF915C
:101A8000CF910895AF92BF92CF92DF92EF92FF92E3
:101A90000F931F93CF93DF93CDB7DEB7D82EC62E0B
:101AA000142FEDB6FEB6282F240F3327331F26310F
:101AB00031053CF537E0361720F18D2D0E94810469
:101AC000012F000F010F000F10E08DB79EB7801B94
:101AD000910B0FB6F8949EBF0FBE8DBF2DB73EB7CA
:101AE0002F5F3F4F5901A80170E060E0C9010E94DB
:101AF000CC27B801C5010E940A046C2D8D2D0E94CF
:101B000081040FB6F894FEBE0FBEEDBE0FB6F8947A
:101B1000FEBE0FBEEDBEDF91CF911F910F91FF90E2
:101B2000EF90DF90CF90BF90AF90089545E1682F80
:101B300080E00C94420D84E00E94960D85E00E94A6
:101B4000960D86E00E94960D87E00C94960DCF933B
:101B5000DF93D82F0E949B0D64E080E00E944F0429
:101B6000C091E3028AE991E0CC3321F0CD3321F436
:101B700083E991E00E941B0565E080E00E944F042C
:101B80008091A902882351F08EE30E9487046AE0C5
:101B900070E08D2FDF91CF910C94910584EC8C0F28
:101BA0000E94C609D82FF3CF63E08AE20E944F0457
:101BB00080E20E9487040E949B0D64E080E00E9406
:101BC0004F048091260182FF06C08AEE90E00E94B9
:101BD0001B050C9472098EED90E00E941B0580910C
:101BE00018010E948704F5CF0F931F93CF93C82F3E
:101BF0008B010E94960D6C2F80E00E947A04C80130
:101C0000CF911F910F910C941B050E949B0D63E0D7
:101C100084E50E944F0480E20E9487046AEA70E033
:101C200084E00E94F40D82ED8093E30208950E9407
:101C30009B0D63E084E50E944F0480E20E948704CC
:101C400066EA70E084E00E94F40D88EC8093E30281
:101C500008950E94890C6CE970E083E00E94F40D05
:101C600087E08093E3021092A90208950E94890CF4
:101C70006CE870E083E00E94F40D82E08093E30260
:101C800008950E94890C63E870E083E00E94F40DDF
:101C900081E08093E30208950F931F93CF93DF9326
:101CA00091E090934704C9E4D4E088830AE414E007
:101CB00085E0F801808345E166E080E00E94420D06
:101CC000F80160816F5F88810E9481048FEA0E9421
:101CD0008704F80160818881DF91CF911F910F9176
:101CE0000C948104EF92FF920F931F93CF93DF9395
:101CF000CDB7DEB766970FB6F894DEBF0FBECDBF87
:101D0000082FE92E1092470460914A046F5F45E165
:101D100080E00E94420D64E08CE00E944F0480E26B
:101D20000E94870464E082E10E944F041091E30264
:101D30009DEEF92EF10E89E08F1518F080E20E94D9
:101D400087046AE070E08F2D0E94910514514FE0E6
:101D500064E086E00E94420D64E084E20E944F0449
:101D600087E591E09A8389838CE491E09C838B835F
:101D700083E491E09E838D838BE391E098878F834A
:101D800083E391E09A8789878BE291E09C878B8738
:101D900083E291E09E878D878DE191E0988B8F871C
:101DA00082E191E09A8B898B89E091E09C8B8B8B0F
:101DB0008EEF90E09E8B8D8B8AEF90E01B3040F48D
:101DC000E12FF0E0EE0FFF1FEC0FFD1F81819281EC
:101DD0000E941B0585E00E94960D65E080E00E9450
:101DE0004F04F090A902FF2019F08EE30E948704AF
:101DF0001B3090F589E0189FF0011124EE5CFE4F36
:101E00008781823049F507FD03C080E30E94870483
:101E10000034E0F480E30E9487040032B8F480E3E9
:101E20000E948704003190F480E30E948704083008
:101E300068F480E30E948704043040F480E30E9449
:101E40008704023018F480E30E94870462E070E0A7
:101E5000802F0E94910506C06AE070E0802F9E2DC1
:101E60000E94D205F11013C01B3048F489E0189F7E
:101E7000F0011124EE5CFE4F8085882341F065E07F
:101E800084E50E944F0480E691E00E941B0580914A
:101E9000A502882381F08091A60266960FB6F89479
:101EA000DEBF0FBECDBFDF91CF911F910F91FF908D
:101EB000EF900C944C0E66960FB6F894DEBF0FBEF2
:101EC000CDBFDF91CF911F910F91FF90EF900895BB
:101ED00085ED8093BC008091D1039091D203A091B5
:101EE000D303B091D4030796A11DB11D23E0B6958D
:101EF000A795979587952A95D1F72091BC0024FD49
:101F000003C01092CF0308954091D1035091D203A2
:101F10006091D3037091D403452B462B472B69F373
:101F20000097A105B10541F02AE22A95F1F700C01A
:101F30000197A109B109E1CF8091D0030C94A006CB
:101F40002F923F924F925F926F927F928F929F92C9
:101F5000AF92BF92CF92DF92EF92FF920F931F93B7
:101F6000CF93DF9300D000D0CDB7DEB79C838B83B7
:101F70007C0141E8E40EF11C6C0150E8C50ED11C57
:101F80008C010E571F4F8D579F4F2C018B819C81C9
:101F90008C579F4F4C0122242A94AB80BC8097E839
:101FA000A90EB11CEB81FC81EB57FF4FFA83E9834B
:101FB000F7018081F6019081891709F4BAC0EB819D
:101FC000FC81E80FF11D308037FE6DC0F801908173
:101FD000891739F0F501208131812F5F3F4F31831F
:101FE0002083F8018083F2012082832D8076F40122
:101FF000803609F441C0832D829586708E5F808380
:10200000F8012081F4018081820F9927991F81387E
:1020100091059CF180E8682E621AF894F6014081DF
:10202000F8018081841708F044C0F42FF81B8F2F2B
:10203000F60180837894F80160814617E8F5712CE9
:1020400050E06B817C81CB01860D971D0E94BA27E1
:10205000F80160814B815C81460F511DBA01A301DB
:102060008B819C810E94BA27F7018081F8019081C1
:10207000891BF7018083F8011082F70190819F5F2F
:102080009083F8018081392F381B97FF02C0F70138
:102090001082F2012081F40190819317A9F0322679
:1020A000F201308285CFF40180818111E6CF308248
:1020B000A7CF862D840FBCCF461B50E08B819C811F
:1020C000860F911DBC01CCCF32122AC04B815C819E
:1020D000480F511DCA01E981FA81408151814F5F4A
:1020E0005F4F51834083F7013081F80130830097BF
:1020F000B1F20F900F900F900F90DF91CF911F9141
:102100000F91FF90EF90DF90CF90BF90AF909F9096
:102110008F907F906F905F904F903F902F90089599
:10212000F5018081918101969183808390E080E028
:10213000DACF90E080E0DDCF8F929F92AF92BF9296
:10214000CF92DF92EF92FF920F931F93CF93DF9383
:10215000C090B102D090B202F601D581D370D061A7
:10216000882EE89487F887FDDC5F962EE89497F830
:1021700067FDD85FA42EE894A7F811E147FF10E1AE
:10218000B22EE894B7F827FD1E5FF02EE894F7F81A
:1021900007FD1C5F0E2D0F77E7FC185FF601C2816B
:1021A0008381C82788E0C8278681C8278781C827F8
:1021B000C027CF25CB25CA25C925C825CD27C127AE
:1021C00065EE80EC91E00E94820860E180EC91E095
:1021D0000E948208F601628180EC91E00E948208F0
:1021E000F601638180EC91E00E94820862E080EC5D
:1021F00091E00E9482086D2F80EC91E00E9482089D
:10220000F601668180EC91E00E948208F601678108
:1022100080EC91E00E948208682D80EC91E00E94A1
:102220008208692D80EC91E00E948208612F80EC89
:1022300091E00E9482086A2D80EC91E00E94820861
:102240006B2D80EC91E00E9482086F2D80EC91E074
:102250000E948208602F80EC91E00E9482086C2F1F
:102260006F7780EC91E00E9482086FEF80EC91E044
:102270000E94820880EC91E00E94A00F9093B2022D
:102280008093B102009711F00E949D0881E0DF91D8
:10229000CF911F910F91FF90EF90DF90CF90BF9063
:1022A000AF909F908F900895DF92EF92FF920F93DF
:1022B0001F93CF93DF93082FD62F822F6AE00E94BF
:1022C0004226D82E4D53142F1F77D851DF77E09038
:1022D0001601F0902401CE2DCF256FEDC627C02723
:1022E000CD27C827C127602F80EC91E00E9482088B
:1022F0006EE080EC91E00E9482086BE780EC91E058
:102300000E9482086D2D80EC91E00E9482086DE6AB
:1023100080EC91E00E94820868E780EC91E00E94E6
:102320008208612F80EC91E00E94820860E080ECDE
:1023300091E00E9482086D2F80EC91E00E9482085B
:1023400060E080EC91E00E94820860E480EC91E023
:102350000E9482086E2D80EC91E00E9482086F2D11
:1023600080EC91E00E9482086C2F6F7780EC91E006
:102370000E9482086FEF80EC91E00E94820880EC5E
:1023800091E00E94A00F9093B2028093B102009757
:1023900069F00E949D080F3E49F4DF91CF911F9193
:1023A0000F91FF90EF90DF900C945603DF91CF9147
:1023B0001F910F91FF90EF90DF9008950F931F935F
:1023C000CF93DF9300D0CDB7DEB70091E20211E0EA
:1023D00010271093E20219821A82BE016E5F7F4FAE
:1023E000CE0101960E9467091123B9F020911801CE
:1023F0000023B1F00E9456036093DC027093DD026B
:102400008093DE029093DF020E94390A0F900F90B2
:10241000DF91CF911F910F910895002359F320E090
:102420004A8169818FEE0E945411E4CF6623B1F096
:1024300020912A0130912B01B901615071096F3F40
:10244000774060F48217930749F481E0411101C09D
:1024500080E09091E20289130C94DE1108950F93AD
:102460001F93CF93DF93E82FF0E099E0899FD0018D
:102470001124AE5CBE4F15962D913C91261737075F
:10248000C0F08B01C82FEE0FFF1FEA5EFE4F718375
:102490006083CF5FCC0FD0E0612FCE010E94022479
:1024A000602FCE010196DF91CF911F910F910C9477
:1024B0000224DF91CF911F910F9108958B3010F47A
:1024C0000C942F120895CF93DF936DE490E080E099
:1024D0000E9402246AE581E090E00E940224C2E3A7
:1024E000D1E069817A8188810E945E12299681E01B
:1024F000C539D807B1F7DF91CF910895863061F4DF
:10250000672B21F40E94631281E0089568E070E077
:1025100086E00E942F12F8CF99E0899FF0011124E4
:10252000EE5CFE4F238134816217730758F02581DA
:1025300036812617370730F09085911103C00E942D
:102540005E12E2CF80E008951F920F920FB60F92B5
:1025500011242F933F938F939F93AF93BF938091B9
:10256000E9029091EA02A091EB02B091EC02309165
:10257000E80223E0230F2D3758F50196A11DB11D68
:102580002093E8028093E9029093EA02A093EB0281
:10259000B093EC028091ED029091EE02A091EF02D7
:1025A000B091F0020196A11DB11D8093ED029093B0
:1025B000EE02A093EF02B093F002BF91AF919F9112
:1025C0008F913F912F910F900FBE0F901F901895F4
:1025D00026E8230F0296A11DB11DD2CF1F920F92A4
:1025E0000FB60F9211242F933F934F935F936F93E6
:1025F0007F938F939F93AF93BF93EF93FF938091BC
:10260000B900887F803609F44AC0F0F5883209F4B1
:10261000A7C018F5803109F49BC0B8F4882309F4E9
:10262000F9C0883009F494C0FF91EF91BF91AF9148
:102630009F918F917F916F915F914F913F912F91DA
:102640000F900FBE0F901F901895883109F488C025
:10265000803251F78093CD0314C0803409F49DC0BB
:1026600040F48033B9F38833F9F68093CD0385ECD9
:10267000B0C0803509F485C0883509F496C0883427
:1026800099F60E94680FD0CF883909F48CC038F5CC
:10269000883729F050F4883611F0803729F683E026
:1026A0008093CF031092960257C0883809F47BC0FC
:1026B000803919F0803809F0B7CF809196028032C6
:1026C00008F071C0E091960281E08E0F809396022F
:1026D0008091BB00F0E0EA58FD4F80833DC0803B15
:1026E00039F0E0F4803A09F479C0883A09F09CCFD7
:1026F00084E08093CF031092750210927402E091EF
:10270000A503F091A60309958091740281110FC071
:1027100081E0809374021092540209C0803C09F455
:10272000A6CF883C09F4A3CF883B09F07DCFE09188
:10273000750281E08E0F80937502F0E0EC5AFD4F38
:1027400080818093BB00909175028091740229C0B2
:102750008091AA038093BB0085EC8093BC0064CF7A
:102760009091CC038091CB03981758F5E091CC035E
:1027700081E08E0F8093CC03F0E0E555FC4F808123
:10278000E9CFE091CC0381E08E0F8093CC03809160
:10279000BB00F0E0E555FC4F80839091CC03809125
:1027A000CB039817C8F285E8D8CFE091CC0381E03D
:1027B0008E0F8093CC038091BB00F0E0E555FC4F79
:1027C00080838091CE0381115CCF81E08093A90347
:1027D00084EA8093BC001092CF0326CF85EC8093CF
:1027E000BC001092CF0380919602803230F4E091C9
:1027F0009602F0E0EA58FD4F10826091960270E078
:10280000E091A303F091A40386E792E0099510926A
:1028100096020ACF1092CD0334CF1F920F920FB6BB
:102820000F921124DF92EF92FF920F931F932F9339
:102830003F934F935F936F937F938F939F93AF9348
:10284000BF93CF93DF93EF93FF93B19A80910B03E4
:1028500090910C0380549C4F90930C0380930B0336
:1028600080910B0390910C039093890080938800D2
:1028700080915202882371F010925202189B26C058
:1028800081E080931103B59A80916F0080628093FC
:102890006F001CC0809110038F5F809310038091A4
:1028A0001103843009F043C080911003893030F562
:1028B0008091070390E09595879580930703189B77
:1028C00005C080910703806880930703FF91EF9113
:1028D000DF91CF91BF91AF919F918F917F916F9138
:1028E0005F914F913F912F911F910F91FF90EF902A
:1028F000DF900F900FBE0F901F901895B59A8091A2
:102900006F00806280936F008091050390910603B1
:10291000189929C0FC01E957FF4F808191810196E8
:10292000918380831092100381E080931103809142
:1029300011038330E9F5E0910E03F0910F038081DC
:1029400020910D0333B190E0022E02C0959587953A
:102950000A94E2F7832780FD11C01092100382E0F1
:102960008093110325C0609107030E94820880E0D4
:1029700090E0892BB9F20E940000D4CF809110031F
:10298000893008F043C03091070381E090E001C036
:10299000880F2A95EAF7908130FF36C08095892309
:1029A00080838091070390E0959587958093070336
:1029B00080911103823099F48091100381118EC0AF
:1029C000E0910E03F0910F03808190910D0321E0BF
:1029D00030E001C0220F9A95EAF7822B8083809124
:1029E0001103813009F072CF80911003882309F41C
:1029F0004ACF80911003883308F468CF10921103F6
:102A000080916F008D7F43CF892BCACF80911003B7
:102A1000893059F4308181E090E001C0880F2A9517
:102A2000EAF7809583238083C3CF809112038F5F61
:102A30008093120390911303891750F5109210039D
:102A40008091090390910A03A0911203A80FB92F56
:102A5000B11D8C9180930703808141E050E001C05B
:102A6000440F2A95EAF7842B80838091840090910B
:102A700085008A5A9C4F90930C0380930B0380919E
:102A80000B0390910C03909389008093880090CF62
:102A900081E0809308030091090310910A03E090FC
:102AA0000503F0900603C8010E949108D82ED0E0DB
:102AB000C0E0CD1548F4F801EC0FFD1F6081C7019F
:102AC0000E9482082196F5CF80E090E0892B11F0DA
:102AD0000E9400001092100381E042CF8091100309
:102AE0008F3008F47CCFE0910E03F0910F0320812A
:102AF00030910D0381E090E001C0880F3A95EAF72C
:102B00008095822380831092100381E080931103CB
:102B1000E0910503F0910603E357FF4F8081918117
:102B20000196918380835BCF1F920F920FB60F9215
:102B300011248F939F93EF93FF93B59AEFE6F0E004
:102B400080818F7D80838091860090918700805264
:102B50009E4F90930C0380930B0380910B039091F5
:102B60000C039093890080938800B19A80818260E1
:102B7000808384E0809311031092100381E080939E
:102B80005202FF91EF919F918F910F900FBE0F9086
:102B90001F9018951F920F920FB60F9211242F932A
:102BA0003F934F938F939F93EF93FF9380911501E2
:102BB000882389F088B18C7F88B98091BD018823F2
:102BC000B1F0409A1092BD018091B2009091020143
:102BD000890F8093B200FF91EF919F918F914F9158
:102BE0003F912F910F900FBE0F901F901895419A13
:102BF00091E09093BD018091BC01813009F43FC008
:102C000088F0823009F459C08091BB01882309F40F
:102C10008BC08091B20083578093B2008DE880937F
:102C20000201D9CF9093BB01809101018150809323
:102C300001018111EECF9093BC012091B901309137
:102C4000BA01C901019649E0429FF001439FF00D8E
:102C50001124ED5FFE4F382F292F823091050CF0A3
:102C60006AC04189019639964423A9F33093B9018A
:102C70002093BA011092B8011092B701C5CF1092FB
:102C8000BB0182E08093BC0180E8809300018091C9
:102C9000B9019091BA0129E0289FF001299FF00D18
:102CA0001124ED5FFE4F8091B7019091B801E80FBC
:102CB000F91F80818093B601A7CF809100012091F8
:102CC000B601282351F19093BB0190E0959587952B
:102CD00080930001892B09F097CF8091B7019091E3
:102CE000B80101969093B8018093B7012091B90182
:102CF0003091BA0149E0429FF001439FF00D112449
:102D0000ED5FFE4F27812817190609F04CF4109249
:102D1000BC0180E18093010177CF1092BB01D5CF38
:102D200081E08093BC0170CF8091B200855E80937A
:102D3000B2008BE174CF1092BA011092B9019ACF10
:102D40000F931F93CF93DF93C091A702D091A80256
:102D50002196D093A802C093A70265E080E00E946C
:102D60004F0401E0C038D10580F084EB90E0DF91A2
:102D7000CF911F910F910C941B052196D093A8021F
:102D8000C093A702C038D10580F7C091A702D091A7
:102D9000A8020093D503C093F7031092D6031092B4
:102DA000F80381E00E94C106182F882311F08430B7
:102DB00021F78BEB90E00E941B05DD27C031D10588
:102DC00018F480E30E94870460E170E0CE010E9465
:102DD000D20580E2143009F48FE3DF91CF911F9187
:102DE0000F910C9487040F931F93CF93DF9302E608
:102DF00014E0F8011382128288EE93E0A0E0B0E0C4
:102E000084839583A683B78389E991E09183808346
:102E1000C6E7D4E086E0888380E8898388E08A83F7
:102E20001B821C821D821E8286E00E94AC020E94D0
:102E300056036B837C838D839E83EEE6F4E08DE303
:102E400080831783068311828FEF828383831582A9
:102E50001482EFE4F4E0118A108A128AEAEFF3E0B8
:102E6000138212828BEA91E091838083148215820F
:102E7000168217828AE090E09187808712861386F7
:102E80001486158616861786108A928B818B138A74
:102E9000148A158A168A178A108E118E938F828F44
:102EA000148E158E168E178E10A211A212A294A344
:102EB00083A315A216A217A210A611A612A613A6E6
:102EC00095A784A716A617A610AA11AA12AA13AA34
:102ED00014AA96AB85AB17AA10AE11AE12AE13AE04
:102EE00014AE15AE97AF86AF10923A0410923B0421
:102EF00010923C0410923D0410923E0410923F0444
:102F00001092400490934204809341041092430431
:102F10001092440410924504109246041092470403
:102F20001092480410924B0410924C0410924D04DD
:102F300010924E041092490410924A048EE180933C
:102F4000F903DF91CF911F910F910895CF93DF93F4
:102F5000CDB7DEB761970FB6F894DEBF0FBECDBF19
:102F6000789484B5826084BD84B5816084BD85B564
:102F7000826085BD85B5816085BD80916E00816070
:102F800080936E0010928100809181008260809316
:102F90008100809181008160809381008091800018
:102FA0008160809380008091B10084608093B10043
:102FB0008091B00081608093B00080917A0084603D
:102FC00080937A0080917A00826080937A00809169
:102FD0007A00816080937A0080917A008068809383
:102FE0007A001092C10076E1E72E71E0F72EE2E060
:102FF000CE2ED12CC6010E94FA23182FC6010196AD
:103000000E94FA23212F30E0322F2227820F932FA4
:10301000911DD7018D939D937D01B2E0CB0ED11C04
:10302000E8E1CE16D10431F780912201909123017D
:10303000089728F468E070E086E00E942F128091E3
:103040002401909125010B9711F00E9463120E94B8
:10305000940CE4E1F3E08FE8DF011D928A95E9F733
:1030600087E00E94AC02E5EFF4E02491E1EEF4E0A9
:10307000E491F0E0EE0FFF1FEA53FB4F45915491AE
:1030800080E091E031E0291741F08F5F932F082E07
:1030900001C0990F0A94EAF7F6CF50930F034093BB
:1030A0000E0380930D0384E193E0909306038093D5
:1030B00005032098E0910E03F0910F0320813091D9
:1030C0000D0381E090E001C0880F3A95EAF7809502
:1030D000822380831092800081E08093810010928F
:1030E0001103B59A80916F00806280936F00809188
:1030F0008100887F8160809381008091260182FF1A
:10310000BCC01092F3021092F2021092F4021092DC
:10311000040384FF03C088E08093F4028BEB89836F
:103120008BE78A831B82CE0101960E949D08109234
:10313000D90210929B0210929A021092D50210921C
:10314000D6021092D7021092D8021092DA020E9490
:10315000890611E01093D5038DE38093F703109255
:10316000D6031092F80381E00E94C106811102C0CB
:103170001093D40211E01093D50380E78093F703F6
:103180001092D6031092F80381E00E94C1068111CB
:1031900074C01093990280915F049091600400972D
:1031A00011F00E94312786E090E00E9495268C0164
:1031B00080E7F801808382E694E092838183138222
:1031C00080E290E0958384831093600400935F0411
:1031D0000E94890681E0D80113968C93C8010E9451
:1031E000D407882309F449C081E2898B41E050E08B
:1031F000BE016F5E7F4F80915F04909160040E94DA
:10320000DF091092500410924F0410925204109251
:1032100051041092540410925304109256041092C8
:103220005504109258041092570410925A041092A8
:10323000590410925C0410925B0410925E04109288
:103240005D040E940C0A81E8898341E050E0BE01E0
:103250006F5F7F4F80915F04909160040E94DF094F
:103260008FEE898341E050E0BE016F5F7F4F809118
:103270005F04909160040E94DF0989E00E94AC0223
:103280001092E0021092E1028091280190912901B0
:1032900044E0969587954A95E1F7B1E08B278170D8
:1032A000809315018091260182FD1092150187B14E
:1032B000836087B91092B00082E08093B10081E012
:1032C000809370008DE88093B2000E945603609353
:1032D000E4027093E5028093E6029093E70230ECFB
:1032E000432E37E2532E39E0632E712C20E0222E3C
:1032F00020E0322E0E9456030091790410917A0446
:1033000020917B0430917C04601B710B820B930B2A
:10331000653171058105910508F454C00E9456037A
:103320006093790470937A0480937B0490937C0477
:103330001091770480917804113C20F0819580935E
:10334000780402C01032D0F380917804180F1093E3
:10335000770400917604802F0E94AC02111105C001
:1033600060E0802F0E94E5022DC01F3F11F461E054
:10337000F8CFE02FF0E0EE5AFB4FE491E33009F490
:10338000CCC040F4E130D1F0E23009F4C1C017FD07
:10339000EECFE6CFE73009F4CCC0E83009F4D1C075
:1033A000E430A9F780918000806280938000812FB3
:1033B00090E090938B0080938A0004C084B580686D
:1033C00084BD17BD0E9456030091A0021091A10276
:1033D0002091A2023091A302601B710B820B930B10
:1033E0006E3771058105910528F10E94560360939F
:1033F000A0027093A1028093A2029093A3029091E5
:103400009F0281E0982790939F02992399F09091D1
:103410009E02982790939E02992361F090919D02BD
:10342000982790939D02992329F090919C028927D7
:1034300080939C020E94940C0E94560300914B04BE
:1034400010914C0420914D0430914E04601B710B7F
:10345000820B930B653F71408105910580F00E94BE
:10346000560360934B0470934C0480934D049093E7
:103470004E048091480491E089278093480480910C
:103480004604882309F465C08F5F0E94B7030E9439
:103490008F0394E99093BC00982F90958091AC0293
:1034A000911159C0882309F4EFC21092AC0284E153
:1034B00093E00E94A00FFC019093B2028093B102AE
:1034C000892B09F443C67181272F30E06281462F92
:1034D00050E0CA019695982F882797958795807810
:1034E0009770872B932BA081A23B09F470C30196A0
:1034F000A13B09F47AC708F058C3A33809F472C78E
:10350000A03B09F075C3407260710E94161270C32F
:1035100084B5806284BD18BD55CF809180008068DD
:1035200080938000812F90E09093890080938800A1
:1035300049CF8091B00080688093B0001093B300B1
:1035400041CF8091B00080628093B0001093B400AE
:1035500039CF8FEFA1CF981709F496C21091E302EB
:103560009093AC02111105C092FFA1CF0E94410EB1
:103570009ECF1130E1F493FF03C00E94060C97CF59
:1035800092FF03C00E94360E92CF91FF90CF0E940F
:10359000D40D8AE08093E3028091E002812780933A
:1035A000AB028091E20218271093AA0280CF12305A
:1035B00061F493FDDBCF91FF03C00E94170E77CF1C
:1035C00092FF75CF0E94290E72CF173089F493FDB8
:1035D000D9CF91FF7EC18091260182FD7AC18CE313
:1035E0008093E30280E00E94C6090E94A70D5FCF8E
:1035F0001A30E9F594FDBACF8091260182FD57CFAC
:1036000090FF22C091FF17C0198A1982BE016F5F17
:103610007F4FCE0141960E946709BE016F5F7F4FC9
:10362000CE0141960E94B40B8091AB0291E08927B4
:103630008093AB023CCF0E94DE118091E20291E0C8
:1036400089278093AA0233CF8091280180FF2FCF52
:10365000609118016F5F93FD05C092FF28CF6091C4
:103660001801615070E081E00E947E1220CF143179
:1036700008F42FC18091F903811708F42AC190FF43
:1036800030C08091A902882309F411CF6091A7026C
:103690007091A8028CEE810F0E947E12182FE0918B
:1036A000E302E4518FEF9FEFEB3038F4F0E0EE0FE0
:1036B000FF1FEA5EFE4F808191810E94720E65E0DD
:1036C0008CE30E944F048BE494E0111102C084E467
:1036D00094E00E941B0561E08091A6020E94810493
:1036E000E6CE94FF11C08091A902882309F465CF2A
:1036F0001092A5021092A9021451E12F1B3008F478
:1037000097C08FEF9FEF3BC091FF3EC08091A90211
:1037100081110EC014511B3058F4A12FB0E029E0E4
:10372000129FF0011124EE5CFE4F8085882389F002
:103730008091A502882309F4BACE8091A6028F5FFA
:10374000893001F18093A6028091A6020E944C0E5E
:10375000AECEAA0FBB1FAA5EBE4F8D919C919093D7
:10376000A8028093A70221E02093A902378132307A
:1037700009F020E02093A50221E02093A6020E94F8
:10378000720E95CE81E0DECF93FF5EC08091A902DC
:10379000882309F442C02091A7023091A8028091A9
:1037A000A502882399F18091A60248E050E0481BC9
:1037B0005109A1E0B0E002C0AA0FBB1F4A95E2F791
:1037C000CD0180959095822393239093A8028093B6
:1037D000A7028091A7029091A8028F3F910589F4DA
:1037E00014518FEF9FEF1B3040F4B9E01B9FF001A5
:1037F0001124EE5CFE4F858196819093A802809300
:10380000A7028091A7029091A802B9CF2150310957
:103810003093A8022093A702DCCF1150133181F01E
:103820001093E302E091E302E451EB3008F069CF3A
:10383000F0E0EE0FFF1FEA5EFE4F808191819FCF87
:1038400084E18093E302EECF92FF31CE9091A90202
:103850009923C1F18091A7029091A8022091A5021D
:10386000222371F12091A602E8E0F0E0E21BF109C9
:1038700041E050E002C0440F551FEA95E2F79A017B
:10388000842B932B9093A8028093A70214518FEF5F
:103890009FEF1B3040F459E0159FF0011124EE5CBE
:1038A000FE4F858196812091A7023091A802821750
:1038B000930708F0A6CF1092A8021092A702A1CFFA
:1038C0000196E0CF1F5F1093E302181708F4AACF08
:1038D000B8CF84EC810F823008F0A1C090FF40C0C7
:1038E0008091A902882309F4E2CD1C33B1F4109130
:1038F000A702198A1982BE016F5F7F4FCE014196E0
:103900000E946709809118016AE00E94422601E046
:103910002981412F60E00E94760A8091E3028D3375
:10392000B1F41091A702198A1982BE016F5F7F4F0F
:10393000CE0141960E946709809118016AE00E94B9
:10394000422601E0212F498960E00E94760A61E069
:1039500080E30E944F048DE394E00E941B05A7CDF5
:1039600094FF08C09091A902992309F42BCE1092DC
:10397000A90239CE91FF10C09091A902911197CD63
:103980000E94C609282F30E03093A8022093A70296
:1039900091E09093A90229CE93FF20C08091A902C3
:1039A0008823B1F08091A7029091A80201978F3FE0
:1039B000910539F09093A8028093A7028091A70205
:1039C00014CE88E11C3309F08CE38150990BF2CFBF
:1039D0008CE31C33F1F41093E3021DC092FF54C03A
:1039E0008091A902882391F08091A7029091A8026A
:1039F000019628E11C3309F02CE32817190609F079
:103A0000C8F61092A8021092A702D8CF1D3319F35E
:103A10008DE38093E3028091E3028C53E4CD183C64
:103A200089F492FF03C00E94050E41CD94FDAACDFA
:103A300091FF3DCD84E18093E30280911601909146
:103A400017019DCE123DC9F493FDB7CD94FD9ACDDB
:103A500091FF2DCD83ED8093E30264E080E30E942B
:103A60004F0480E20E9487048FEF9FEF9093A8029B
:103A70008093A7020E94A0161ACD133D29F494FD4D
:103A8000D2CF92FF14CDF6CF8091E302873089F533
:103A900064E080E00E944F04BE016F5F7F4FCE0163
:103AA00041960E946709882309F461C0898987319A
:103AB00008F053C0082F10E08A3018F480E30E9409
:103AC00087046AE070E0C8010E94D2058AE30E9480
:103AD000870489818C3308F045C0082F10E08A30B4
:103AE00018F480E30E9487046AE070E0C8010E9435
:103AF000D2058091E3028A3009F0D9CCF090180108
:103B00000091260110912701047011278091A402D1
:103B1000F81671F065E08AE20115110511F464E010
:103B200082E40E944F048F2D0E948704F092A40229
:103B3000F090E0028091AB02F816A1F1F092AB0296
:103B4000012BD1F065E088E40E944F0482E394E009
:103B5000F11003CF8DE294E000CF83EB91E00E945F
:103B60007E05B4CF83EB91E00E947E05C2CF87E350
:103B700094E00E941B05BDCF64E08AE50E944F04DB
:103B80008FE4F11001C085E40E9487048091E20275
:103B90009091AA02891709F48ACC8093AA020E9404
:103BA000720985CC012B91F382CCAC3B09F433C470
:103BB000A03D09F43AC4A43BD9F47C33C9F480E0B5
:103BC00090E0892BA9F08CE30E94000011C022E054
:103BD00030E065FD02C021E030E040E050E0452BE0
:103BE00039F0880F991F6071820F931F0E940000A7
:103BF0008091260182FF45C0E091B102F091B202AE
:103C000082818B37F1F58081877F873ED1F5828570
:103C100086FD04C08091F40283FF71C48091F2029A
:103C20009091F3021816190664F58EE0A5EFB2E044
:103C300001900D928A95E1F78091FA028093040336
:103C400081E00E949D0B21143104A9F08091F402BF
:103C500082FF11C02091FA02B0E82B9FC00111240D
:103C60002091F902280F392F311D8FEF9FE3821B1E
:103C7000930B0E940000E2E0F0E0F093F302E09387
:103C8000F2028091260182FD45C00091B10210919F
:103C9000B202C8010E9491088430E1F4D8018C91ED
:103CA0008B3BC1F411968C918B37A1F48091E20289
:103CB000F0901801811101C0F12C81E00E94C60929
:103CC000E82E80E00E94C6092F2D4E2D682F87EE2A
:103CD0000E945411C8010E9491088E30D9F4F80155
:103CE00080818F3EB9F482818B37A1F48091E2020A
:103CF00010911801811101C010E081E00E94C609F5
:103D0000082F80E00E94C609212F402F682F87EEE0
:103D10000E9454110091B1021091B202C8010E9498
:103D20009108803109F012C2D8018C91853E09F0CA
:103D30000DC214968C911497823009F007C2169622
:103D40002C9116978091160190911701281719064A
:103D500009F0E3C117962C91179780912401909157
:103D600025012817190609F0D8C115968C911597C9
:103D700090E09C01E4E0220F331FEA95E1F7207800
:103D80001996AC901997E894A7F82A2930E0322FB9
:103D9000222745E0880F991F4A95E1F78078189609
:103DA000AC90E894A7F8A82AA20EB32EB11C650126
:103DB000B1E0CB1AD1089C2CEAE0EC1550F029E0D8
:103DC000C29EF0011124EE5CFE4F31E0878181300C
:103DD00009F030E0D80113968C918130F1F5BBE009
:103DE000CB16D104D0F5F801828590E063856F771A
:103DF000AC015695542F442757954795262F240FED
:103E0000332309F483C336E0880F991F3A95E1F70D
:103E1000807864856F77862B682F70E0762F662711
:103E2000620F711D8C2D0E945E12E091B102F09123
:103E3000B202838180648383FAE04FEFF91530F09A
:103E4000F601EE0FFF1FEA5EFE4F4081E12C00E01D
:103E500020E060E08A2D0E949C10E091B102F09178
:103E6000B20283818230B9F42BE0C216D10498F4F7
:103E700082E483833AE04FEF391530F0F601EE0F1C
:103E8000FF1FEA5EFE4F4081E12C00E020E060E091
:103E90008A2D0E949C10E091B102F091B2028381C0
:103EA000833009F04BC04BE0C416D10408F046C083
:103EB000628570E09B013695322F22273795279532
:103EC000332783858F77820F932F911D16E0660F1E
:103ED000771F1A95E1F76078772724852F77622B73
:103EE0005AE02FEF3FEF591538F0F601EE0FFF1FA4
:103EF000EA5EFE4F2081318186239723892B09F4C6
:103F000007C3622B732B8C2D0E945E12E091B102CD
:103F1000F091B2028381806483837AE04FEF791558
:103F200030F0F601EE0FFF1FEA5EFE4F4081E12CFC
:103F300000E020E060E08A2D0E949C10E091B10238
:103F4000F091B2028381853009F07FC08BE0C81602
:103F5000D10408F07AC0828590E08C0126E0000F41
:103F6000111F2A95E1F7007864856F77062BBC0155
:103F700035E0660F771F3A95E1F7162F10786585C3
:103F80006F77162BBC0144E0660F771F4A95E1F767
:103F9000A62FA078EA2E66856F77E62A63856F776D
:103FA0009695982F882797958795680F70E08C2DA8
:103FB0000E945E12FF24F394FC0C602F70E08F2DA2
:103FC0000E945E1202E00C0D612F70E0802F0E94B3
:103FD0005E1213E01C0D6E2D70E0812F0E945E12A8
:103FE000E091B102F091B202838180648383BAE0F0
:103FF0004FEFB91530F0F601EE0FFF1FEA5EFE4FEE
:104000004081EAE02FEFEF1538F0EF2DF0E0EE0FF2
:10401000FF1FEA5EFE4F20810B3008F07EC2E02FCA
:10402000F0E0EE0FFF1FEA5EFE4F0081EE24EA94FF
:104030001B3038F4E12FF0E0EE0FFF1FEA5EFE4F79
:10404000E08060E08A2D0E949C10E091B102F09126
:10405000B20283818630B1F52BE0C216D10490F50F
:1040600086E483833AE04FEF391530F0F601EE0F26
:10407000FF1FEA5EFE4F4081E1E0EC0D2FEFEB30D9
:1040800030F4F0E0EE0FFF1FEA5EFE4F2081E2E029
:10409000EC0D0FEFEB3030F4F0E0EE0FFF1FEA5EB7
:1040A000FE4F0081E3E0EC0DEE24EA94EB3030F4B7
:1040B000F0E0EE0FFF1FEA5EFE4FE08060E08A2D29
:1040C0000E949C10E091B102F091B202838188308D
:1040D00061F488E4838340912401E42E0091160169
:1040E00020E06DE08AE30E949C10E091B102F09123
:1040F000B20283818F3089F40E946312E091B10291
:10410000F091B202838180648383E12C00E020E09F
:1041100040E06B2D8A2D0E949C10E091B102F0913D
:10412000B2028681811112C0878181110FC0838103
:10413000873061F487E4838340912401E42E009169
:10414000160120E06DE08AE30E949C108091260118
:1041500082FF39C20E9456030091AD021091AE0257
:104160002091AF023091B002AB01BC01401B510B5A
:10417000620B730B433451056105710508F488C067
:10418000D901C8018D5B9F4FAF4FBF4F8093AD02E8
:104190009093AE02A093AF02B093B0028091F2026E
:1041A0009091F302029709F05AC08091F902909120
:1041B000F802890F87FF17C38F778093F9028091E8
:1041C000FA028F5F8093FA024091F40287FD16C0D5
:1041D00043FF0BC390E02091040330E02A5F3F4F80
:1041E000281739070CF001C327E730E040FF02C071
:1041F00028E730E0281739070CF4F7C28DE68093E2
:10420000F902842F817088588093FA028091FB0212
:104210008F5F8F3708F083C18093FB0241FF93C10A
:104220008FEE8093F50285EF92E00E949D082114A5
:104230003104A9F08091F40282FF11C02091FA02AA
:1042400040E8249FC00111242091F902280F392F42
:10425000311D8FEF9FE3821B930B0E940000809122
:10426000F2029091F302892B79F48BEB89838BE72F
:104270008A831B82CE0101960E949D0881E090E016
:104280009093F3028093F2028091260182FF9BC1FA
:104290008091DA02882389F12091D90280E6C82E24
:1042A0008AEED82EE12CF12C222359F030E050E098
:1042B00040E060E67AEE80E090E00E944E266901E0
:1042C0007A010E9456030091D5021091D6022091E6
:1042D000D7023091D802601B710B820B930BC6166C
:1042E000D706E806F90648F48BEB89838BE78A83C7
:1042F0001B82CE0101960E949D088091D4028823E2
:1043000009F416C210916E040E9431036B017C0106
:104310008091CF0381111BC181E08093CF038093F3
:10432000CE039FEF9093CD031092CC031092CB035A
:104330008093AA039091AA03812F880F892B8093E1
:10434000AA038091A903813009F0BEC11092A9038C
:104350000E9431036B017C018091AA038093BB0012
:104360008091D1039091D203A091D303B091D40353
:10437000892B8A2B8B2BA1F00E9431030091D10352
:104380001091D2032091D3033091D4036C197D098D
:104390008E099F09061717072807390708F4F8C080
:1043A0008091BC0083FDD8CF85EC8093BC000E9437
:1043B00031036B017C018091CF03813009F486C108
:1043C0008091CC038111A4C18091CC03ABEAB3E00E
:1043D000E3EBF2E090E0981709F4DFC02D91219310
:1043E0009F5FF9CF0E94390A03CC66FF0AC020E024
:1043F00030E0232B09F4FCCB407260710E94000076
:10440000F7CB20E030E0232B09F4F2CB407160724F
:104410000E940000EDCB20E030E0232B09F4E8CB34
:10442000407260710E940000E3CB7076703221F020
:104430007036B1F17111DCCB80E090E0892B09F48A
:10444000D7CBC9019695982F88279795879580781F
:104450009F70840F951FA5E035952795AA95E1F7E4
:10446000217001963381448150E03D3731F0A0E85E
:104470003A9FF00111244E0F5F1F6F7081F162307F
:1044800081F1643081F1663081F1683081F16A3008
:1044900081F16C3081F16E3081F10E940000A8CB77
:1044A00080E090E0892B09F4A3CB0381802F807DED
:1044B000803109F09DCBE480FF24F39411E041E0CA
:1044C000802F8F2109F040E02E2D2F21FF0C612F2E
:1044D00080E80E9400001F5F153089F789CB61E4F6
:1044E000DCCF62E4DACF63E4D8CF64E4D6CF65E40E
:1044F000D4CF66E4D2CF67E4D0CF68E4CECF83E0F8
:1045000090E09093F3028093F202BBCB80E084CCE6
:104510006095709562237323F6CC0FEF87CD83E40B
:104520008093FB028091FD028F5F87FD03C0809323
:10453000FD0274CE88E68093FD028091FE028F5FBB
:104540008093FE026BCE80E00E949D0B70CE809126
:10455000D1039091D203A091D303B091D403892BBE
:104560008A2B8B2B09F4D4CE0E9431038090D10387
:104570009090D203A090D303B090D4036C197D091E
:104580008E099F0986169706A806B90608F0C0CEC0
:104590008091D0030E94A00680E01092A80380932F
:1045A000A703813009F4B6C082E890E090937304C9
:1045B0008093720480916F0482FDBAC08091D3020F
:1045C000882309F4B8C010911A01112391F1C09009
:1045D000E402D090E502E090E602F090E702C11418
:1045E000D104E104F10429F10E945603AB01BC019E
:1045F0004C195D096E097F0928EE33E0129FC00156
:10460000139F900D1124092E000CAA0BBB0B8417CD
:104610009507A607B70768F41092E4021092E50226
:104620001092E6021092E7028AE08093E3020E9471
:10463000D40D198A1982BE016F5F7F4FCE0141965A
:104640000E9467099091E2029923D9F09091260186
:1046500092FF86C0882351F089819091E1029817DA
:1046600029F08093E10281708093E002809115012E
:1046700081110BC098B19C7F8091DB028370892BE4
:1046800088B9809115018823A9F08091E00290E813
:10469000811191E8F8948091E20280931401909343
:1046A0000E0180910C0120910D01822789278093B2
:1046B0000F01789480E090E0892B11F40C947A1922
:1046C0000E9400000C94761985EE6FCE8091D10384
:1046D0009091D203A091D303B091D403892B8A2B5C
:1046E0008B2B09F468CE0E9431030091D103109105
:1046F000D2032091D3033091D4036C197D098E0924
:104700009F09061717072807390708F054CE40CF2E
:1047100081E05CCE8091740490917504DC01ED9190
:10472000FC910284F385E02D099580936F0444CFBA
:104730001092D30248CF81E08093D3029091DB02A4
:10474000913009F482E08093DB028091D4028823C7
:1047500009F439CF8091DB028C6F0E94B10733CF0F
:1047600010911801111101C01AE00E9456036B014B
:104770007C01212F30E050E040E0C301B2010E94F3
:1047800070268091DC029091DD02A091DE02B09152
:10479000DF02C81AD90AEA0AFB0A2C153D054E05A4
:1047A0005F05D8F40E9456036093DC027093DD022B
:1047B0008093DE029093DF02BE016F5F7F4FCE01D8
:1047C00041960E94B40B212F498169898FEE0E9486
:1047D0005411898181708093E0026091E00289E048
:1047E0000E94E50243CF8093F9022114310409F0BD
:1047F00021CD4ACDF999FECF92BD81BDF89A992776
:1048000080B50895262FF999FECF1FBA92BD81BDBC
:1048100020BD0FB6F894FA9AF99A0FBE0196089542
:104820005058BB27AA270E9428240C949B250E943D
:104830008D2538F00E94942520F039F49F3F19F41B
:1048400026F40C948A250EF4E095E7FB0C9484255D
:10485000E92F0E94AC2558F3BA1762077307840743
:10486000950720F079F4A6F50C94CE250EF4E0958A
:104870000B2EBA2FA02D0B01B90190010C01CA011A
:10488000A0011124FF27591B99F0593F50F4503EC5
:1048900068F11A16F040A22F232F342F4427585FB7
:1048A000F3CF469537952795A795F0405395C9F7CF
:1048B0007EF41F16BA0B620B730B840BBAF0915087
:1048C000A1F0FF0FBB1F661F771F881FC2F70EC026
:1048D000BA0F621F731F841F48F4879577956795F9
:1048E000B795F7959E3F08F0B0CF9395880F08F0E5
:1048F0009927EE0F9795879508950E94602508F4F3
:1049000081E008950E9496240C949B250E94942592
:1049100058F00E948D2540F029F45F3F29F00C9457
:10492000842551110C94CF250C948A250E94AC2526
:1049300068F39923B1F3552391F3951B550BBB27CE
:10494000AA2762177307840738F09F5F5F4F220F13
:10495000331F441FAA1FA9F335D00E2E3AF0E0E80A
:1049600032D091505040E695001CCAF72BD0FE2F54
:1049700029D0660F771F881FBB1F261737074807E8
:10498000AB07B0E809F0BB0B802DBF01FF279358A0
:104990005F4F3AF09E3F510578F00C9484250C94BB
:1049A000CF255F3FE4F3983ED4F3869577956795DE
:1049B000B795F7959F5FC9F7880F911D96958795D5
:1049C00097F90895E1E0660F771F881FBB1F6217F4
:1049D00073078407BA0720F0621B730B840BBA0BB2
:1049E000EE1F88F7E09508950E94B42588F09F5740
:1049F00098F0B92F9927B751B0F0E1F0660F771F03
:104A0000881F991F1AF0BA95C9F714C0B13091F0F8
:104A10000E94CE25B1E008950C94CE25672F782F03
:104A20008827B85F39F0B93FCCF3869577956795BD
:104A3000B395D9F73EF490958095709561957F4F29
:104A40008F4F9F4F0895E89409C097FB3EF49095CF
:104A50008095709561957F4F8F4F9F4F9923A9F057
:104A6000F92F96E9BB279395F695879577956795E6
:104A7000B795F111F8CFFAF4BB0F11F460FF1BC02A
:104A80006F5F7F4F8F4F9F4F16C0882311F096E9BD
:104A900011C0772321F09EE8872F762F05C066236B
:104AA00071F096E8862F70E060E02AF09A95660F24
:104AB000771F881FDAF7880F9695879597F90895DD
:104AC000990F0008550FAA0BE0E8FEEF161617061F
:104AD000E807F907C0F012161306E407F50798F087
:104AE000621B730B840B950B39F40A2661F0232BA0
:104AF000242B252B21F408950A2609F4A140A6951C
:104B00008FEF811D811D089597F99F6780E870E000
:104B100060E008959FEF80EC089500240A94161633
:104B2000170618060906089500240A94121613069B
:104B3000140605060895092E0394000C11F4882329
:104B400052F0BB0F40F4BF2B11F460FF04C06F5F45
:104B50007F4F8F4F9F4F089557FD9058440F551F1B
:104B600059F05F3F71F04795880F97FB991F61F0EF
:104B70009F3F79F087950895121613061406551F66
:104B8000F2CF4695F1DF08C0161617061806991FD2
:104B9000F1CF86957105610508940895E894BB27C7
:104BA00066277727CB0197F908950E94E8250C9492
:104BB0009B250E948D2538F00E94942520F0952396
:104BC00011F00C9484250C948A2511240C94CF2583
:104BD0000E94AC2570F3959FC1F3950F50E0551FCF
:104BE000629FF001729FBB27F00DB11D639FAA2742
:104BF000F00DB11DAA1F649F6627B00DA11D661F91
:104C0000829F2227B00DA11D621F739FB00DA11DB1
:104C1000621F839FA00D611D221F749F3327A00D6B
:104C2000611D231F849F600D211D822F762F6A2F07
:104C300011249F5750409AF0F1F088234AF0EE0F6C
:104C4000FF1FBB1F661F771F881F91505040A9F799
:104C50009E3F510580F00C9484250C94CF255F3F36
:104C6000E4F3983ED4F3869577956795B795F795D5
:104C7000E7959F5FC1F7FE2B880F911D969587954D
:104C800097F90895991B79E004C0991F961708F0C9
:104C9000961B881F7A95C9F780950895A1E21A2E70
:104CA000AA1BBB1BFD010DC0AA1FBB1FEE1FFF1FD0
:104CB000A217B307E407F50720F0A21BB30BE40B20
:104CC000F50B661F771F881F991F1A9469F7609567
:104CD0007095809590959B01AC01BD01CF01089521
:104CE000052E97FB1EF400940E94872657FD07D0DF
:104CF0000E944E2607FC03D04EF40C948726509554
:104D00004095309521953F4F4F4F5F4F08959095B7
:104D10008095709561957F4F8F4F9F4F0895EE0F4F
:104D2000FF1F0590F491E02D09940F931F93CF93EB
:104D3000DF938230910510F482E090E0E0917F04EF
:104D4000F091800430E020E0B0E0A0E0309799F4EA
:104D50002115310509F44AC0281B390B24303105CF
:104D6000D8F58A819B816115710589F1FB019383D7
:104D70008283FE0111C04081518102811381481755
:104D80005907E0F04817590799F4109761F0129607
:104D90000C93129713961C933296CF01DF91CF910B
:104DA0001F910F91089500937F0410938004F4CF16
:104DB0002115310551F04217530738F0A901DB01E5
:104DC0009A01BD01DF01F801C1CFEF01F9CF909346
:104DD000800480937F04CDCFFE01E20FF31F819307
:104DE00091932250310939832883D7CF20917D04B4
:104DF00030917E04232B41F420912E0130912F011C
:104E000030937E0420937D0420912C0130912D015C
:104E10002115310541F42DB73EB740913001509135
:104E20003101241B350BE0917D04F0917E04E217E3
:104E3000F307A0F42E1B3F0B2817390778F0AC01BD
:104E40004E5F5F4F2417350748F04E0F5F1F50939A
:104E50007E0440937D04819391939FCFF0E0E0E046
:104E60009CCFCF93DF930097E9F0FC013297138238
:104E70001282A0917F04B0918004ED0130E020E027
:104E80001097A1F420813181820F931F20917D041E
:104E900030917E042817390709F061C0F0937E0431
:104EA000E0937D04DF91CF910895EA01CE17DF07EB
:104EB000E8F54A815B819E0141155105B1F7E90191
:104EC000FB83EA8349915991C40FD51FEC17FD0765
:104ED00061F4808191810296840F951FE901998385
:104EE0008883828193819B838A83F0E0E0E012963D
:104EF0008D919C9113970097B9F52D913C91119745
:104F0000CD010296820F931F20917D0430917E0483
:104F10002817390739F6309751F51092800410920E
:104F20007F04B0937E04A0937D04BCCFD383C2835F
:104F300040815181840F951FC817D90761F44E5FD6
:104F40005F4F88819981480F591F518340838A811F
:104F50009B81938382832115310509F0B0CFF093B3
:104F60008004E0937F049ECFFD01DC01C0CF13825B
:104F70001282D7CF6817790768F4FB01DC01E40FD0
:104F8000F51FA40FB51F02C002900E924150504071
:104F9000D8F708950C94D327DC0101C06D934150DC
:104FA0005040E0F70895FB01DC0102C001900D9232
:0C4FB00041505040D8F70895F894FFCF0E
:104FBC0080108DFF00FF000000000301C0FA00000C
:104FCC00000000040001FFFFFFFFFFFFFFFFFFFFDA
:104FDC00FFFFFFFFFFFFFFFFFFFFFFFF000081044C
:104FEC00800000010001007E000000011E000A008C
:104FFC006300000002030000000900000003000031
:10500C000000000000010400000000000000010589
:10501C0000000000000000010608000000FF000076
:10502C0000070B000B000B0000010800000000FF44
:10503C000002000910000000FF0002000A9F02009D
:10504C00000008010000000000500823087F08F948
:10505C00071C080908FA0700000000400662037FDD
:06506C000843063F3F006F
:00000001FF
