:100000000C9431010C9459010C9459010C94590130
:100010000C9459010C9459010C9459010C945901F8
:100020000C9459010C9454160C941E160C949714AD
:100030000C9459010C9459010C9459010C945901D8
:100040000C942E130C9459010C9459010C945901E1
:100050000C9459010C9459010C9459010C945901B8
:100060000C9478130C945901426574726965623F6F
:1000700000496E626574726965626E61686D653FA4
:100080000043563F004932432D5363616E3F0046A3
:10009000617374436C6F636B0066657274696700AB
:1000A000307800204443430054616B7400566572FD
:1000B00073696F6E2000556872656E7A656E747232
:1000C000616C6500446576696465722031303A0080
:1000D00046432D536C6176652053746174757300CB
:1000E00053746F707065643A2052756E3F200052F1
:1000F000756E6E696E673A2053746F703F00457677
:10010000656E004F646420002D313A002D2D2D00C6
:100110003F3F3F00416472204C4E2D302F31004351
:100120006F6E6669672031004366672046432D5332
:100130006C760053572D49440056657273696F6E93
:1001400000526573657276650052657365727665F7
:100150000052657365727665005761697454696D04
:10016000650044657669642E31303A6E00446576E8
:10017000696365494400726F004356004D696E75AE
:100180007465005374756E6465004576656E004F46
:10019000646420002D2D3A2D2D0073746F726564F8
:1001A000006661696C65640073746F726564000059
:1001B0000000080002010000030407000000000026
:1001C0000000000086227E6DD24620290B2170108F
:1001D0004080523F065B4F666D7D077F6F090D6162
:1001E0004843D35F777C395E79713D76301E753830
:1001F00015373F736B336D783E3E2A766E5B3964FC
:100200000F2308025F7C585E7B716F74100C753091
:1002100014545C7367506D781C1C14766E5B46300A
:1002200070010000000000250028002B00000000E5
:1002300000240027002A0004040404040404040227
:100240000202020202030303030303010204081073
:100250002040800102040810200102040810200040
:10026000A61711241FBECFEFD8E0DEBFCDBF11E02F
:10027000A0E0B1E0E2EFFFE402C005900D92A83CDF
:10028000B107D9F724E0A8ECB1E001C01D92A43871
:10029000B207E1F711E0C1E3D1E004C02197FE010C
:1002A0000E94B126C033D107C9F70E943C180C94B4
:1002B000F7270C94000091E09093E30380930504EA
:1002C0001092E4031092060408950895089590E0B2
:1002D000FC01E55BFD4F2491895C9D4FFC018491FD
:1002E000882399F090E0880F991FFC01E35DFD4F92
:1002F000A591B491FC01ED5DFD4F859194918FB76F
:10030000F894EC91E22BEC938FBF08958530A8F41C
:10031000262F2052330BF901ED53FE4FE491A82F05
:10032000B0E0AA0FBB1FAE5ABB4F30E8439FA001FD
:100330001124E42BF0E0ED93FC93089590E0FC0190
:10034000E155FE4F2491FC01E55BFD4F3491FC012A
:10035000E95CFD4FE491EE23C9F0222339F023300C
:1003600001F1A8F4213019F1223029F1F0E0EE0F6B
:10037000FF1FED5DFD4FA591B4918FB7F894EC91FF
:10038000611126C030953E233C938FBF08952730DE
:10039000A9F02830C9F0243049F7809180008F7D82
:1003A00003C0809180008F7780938000DFCF84B579
:1003B0008F7784BDDBCF84B58F7DFBCF8091B0007C
:1003C0008F778093B000D2CF8091B0008F7DF9CF2E
:1003D0003E2BDACF3FB7F8948091DC029091DD029A
:1003E000A091DE02B091DF0226B5A89B05C02F3F89
:1003F00019F00196A11DB11D3FBFBA2FA92F982F4B
:100400008827BC01CD01620F711D811D911D42E045
:10041000660F771F881F991F4A95D1F708952FB748
:10042000F8946091D8027091D9028091DA0290918B
:10043000DB022FBF0895AF92BF92CF92DF92EF926F
:10044000FF920F931F93CF93DF936C017B018B017E
:10045000040F151FEB015E01AE18BF08C017D107CE
:1004600059F06991D601ED91FC910190F081E02D58
:10047000C6010995892B79F7C501DF91CF911F91AD
:100480000F91FF90EF90DF90CF90BF90AF900895C5
:1004900020918502260F3327331F21323105ECF4DA
:1004A0002091DD03FC0190E080E0243069F082E0DF
:1004B0000895A09185022191AC014B595D4FA40F85
:1004C000B52FB11D2C930196861798F38091850264
:1004D000680F6093850280E0089581E0089510928E
:1004E000DD0381E08093DC031092B70361E082E1D9
:1004F0000E949E0161E083E10E949E01E9EBF0E031
:1005000080818E7F808380818D7F808388E480934B
:10051000B80085E48093BC0008951092B603109251
:10052000B5031092E403109206040E946F0285E660
:1005300091E09093B4038093B30386E691E09093A7
:10054000B2038093B1030895CF93DF9391E090932A
:1005500064028823B9F0C091B800D091BA008091AC
:10056000BC008A7B8093BC0060E082E10E949E0117
:1005700060E083E10E949E010E946F02D093BA0066
:10058000C093B800DF91CF9108958F929F92AF9260
:10059000BF92CF92DF92EF92FF920F931F93CF9370
:1005A000DF93D0910604D13208F0D7C0182FC09144
:1005B00005040E94EA016B017C018091DD03811139
:1005C0006BC082E08093DD031093DC038FEF809398
:1005D000DB031092DA03D093D903A5EEB3E0E9EB85
:1005E000F3E080E0D81391C01092B8038091B80373
:1005F000CC0FC82BC093B8038091B703813009F0AA
:1006000088C01092B7030E94EA016B017C018091BF
:10061000B8038093BB008091DF039091E003A09129
:10062000E103B091E203892B8A2B8B2BA1F00E946E
:10063000EA010091DF031091E0032091E103309182
:10064000E2036C197D098E099F0906171707280711
:10065000390708F442C08091BC0083FDD8CF85ECF7
:100660008093BC000E94EA016B017C018091DD0354
:10067000823009F450C08091DB038F3F09F46FC0D2
:100680008091DB03803209F46CC08091DB038033FE
:1006900009F469C084E026C08091DF039091E003F3
:1006A000A091E103B091E203892B8A2B8B2B09F4F3
:1006B00084CF0E94EA018090DF039090E003A09035
:1006C000E103B090E2036C197D098E099F0986163B
:1006D0009706A806B90608F070CF8091DE030E9445
:1006E000A40285E01092E403109206041092E30342
:1006F000DF91CF911F910F91FF90EF90DF90CF90FE
:10070000BF90AF909F908F9008959D9191938F5F30
:1007100069CF85EEA5CF8091DF039091E003A09192
:10072000E103B091E203892B8A2B8B2B09F49ECF36
:100730000E94EA010091DF031091E0032091E103A0
:100740003091E2036C197D098E099F09061717077E
:100750002807390708F08ACFC0CF81E0C3CF80E0F7
:10076000C1CF82E0BFCF83E0BDCFCF92DF92EF92C7
:10077000FF920F931F93CF93DF93D82FC62F613231
:1007800008F098C00E94EA016B017C018091DD03B2
:1007900081116BC081E08093DD038093DC039FEFC8
:1007A0009093DB031092DA039C0F9093D90380930C
:1007B000B8038091B803DD0FD82BD093B803809194
:1007C000B703813009F078C01092B7030E94EA01A4
:1007D0006B017C018091B8038093BB008091DF03A3
:1007E0009091E003A091E103B091E203892B8A2B61
:1007F0008B2BA1F00E94EA010091DF031091E0032E
:100800002091E1033091E2036C197D098E099F0963
:10081000061717072807390708F448C08091BC005D
:1008200083FDD8CF85EC8093BC000E94EA016B0168
:100830007C018091DD03813009F440C08091DA03AE
:100840008C1710F4C091DA03E9EBF3E0A3EFB2E008
:1008500080E08C1355C08C2FDF91CF911F910F91A9
:10086000FF90EF90DF90CF9008958091DF039091FB
:10087000E003A091E103B091E203892B8A2B8B2B3B
:1008800009F484CF0E94EA010091DF031091E00394
:100890002091E1033091E2036C197D098E099F09D3
:1008A000061717072807390708F070CF8091DE0375
:1008B0000E94A402C0E0CFCF85EEB5CF8091DF03C8
:1008C0009091E003A091E103B091E203892B8A2B80
:1008D0008B2B09F4AECF0E94EA010091DF03109147
:1008E000E0032091E1033091E2036C197D098E0948
:1008F0009F09061717072807390708F09ACFD6CFA0
:1009000091919D938F5FA5CF0895E091B60380915B
:10091000B503E81730F4F0E0ED50FD4F808190E032
:1009200008958FEF9FEF08959091B6038091B503DE
:100930002FEF3FEF981748F4E92FF0E0ED50FD4F0F
:10094000208130E09F5F9093B603C90108958091A4
:10095000B5039091B603891B990B0895CF92DF924E
:10096000EF92FF920F931F93CF93DF937C01CB0104
:100970008A012091E303222389F0EB016B01C40E6D
:10098000D51ECC15DD0569F06991D701ED91FC917B
:100990000190F081E02DC7010995F3CF642F0E94EB
:1009A0004802C801DF91CF911F910F91FF90EF9006
:1009B000DF90CF900895CF93DF931F92CDB7DEB72E
:1009C00069832091E3032223F9F020910604203269
:1009D00058F021E030E0FC013383228390E080E096
:1009E0000F90DF91CF9108958091E403E82FF0E01C
:1009F000EB51FC4F998190838F5F8093E403809348
:100A0000060481E090E0ECCF61E0CE0101960E9407
:100A10004802F7CF682F85E694E00C94DB0481E070
:100A20000C94C502CF93DF93C1E7D4E08A83888119
:100A30000E945B018E819F81DC01ED91FC91019010
:100A4000F081E02D6A8109958E819F810E940F05BA
:100A500090E09D838C83DF91CF910895CF93DF93B6
:100A6000EC0118820E948D02888180620E945B01E5
:100A700080E00E940A058FEF0E940A0585E694E057
:100A80000E940F05888180620E945B0181E00E94C4
:100A90000A058FEF0E940A0585E694E0DF91CF9169
:100AA0000C940F05CF93DF93D62FC72FFC018081C5
:100AB00080620E945B0182E10E940A058D2F0E94E4
:100AC0000A058C2F0E940A0585E694E0DF91CF91FC
:100AD0000C940F05CF93DF93EC018B81882371F089
:100AE00088810E945B0189819A810E940F0591E0B3
:100AF000811190E0892FDF91CF9108950E948D029E
:100B000081E08B83CE010E946A05982F8111E8CF86
:100B1000F1CF9C01DC01A058BF4FEC9191E09E0FFA
:100B20009C93E20FF32FF11D608397FD1C920895B3
:100B3000FC0180818076803611F481810895808166
:100B4000829586708E5F0895CF92DF92EF92FF922A
:100B50000F931F93CF93DF93EC0109E11EE2EE2484
:100B6000E394F12C93E0D92ECC24C394CE010E94BF
:100B7000980580932103E0912103E1501092200316
:100B80008FEF909120039E1768F4A0912003AC0F83
:100B9000BD2FB11D9C918927909120039F5F909359
:100BA0002003EFCFEC0FFD2FF11D8083F89480918F
:100BB0001F03813059F480911E03811738F0109281
:100BC0001F0380916F008D7F80936F0078948091D8
:100BD0001F03813031F480911E03843138F2C12C1F
:100BE000C5CF80911F0381110EC0F89480916F00D2
:100BF0008F7D80936F00B59B09C080916F008062EC
:100C000080936F007894C110B1CF56C0E0911C035F
:100C1000F0911D03808190911B03970101C0220F69
:100C20009A95EAF7822B80838091840090918500C9
:100C30008A5A9C4F90931A03809319038091190349
:100C400090911A0390938900809388007894D093B0
:100C50001803C09317031092200310921603888183
:100C600080931503D0921F0310921E03B19A8091B6
:100C70006F00826080936F0080911F038330E1F3E7
:100C8000809116038823B1F0E0911303F0911403CF
:100C9000E757FF4F8081918101969183808383E0A4
:100CA00090E0DF91CF911F910F91FF90EF90DF9037
:100CB000CF90089580911F031B3108F0115001500F
:100CC00009F052CF8091AD039091AE0301969093BD
:100CD000AE038093AD0386E090E0E3CF8B30B8F4B1
:100CE00029E0829FF0011124EC5BFE4F8581968103
:100CF000803127E2920758F4883E23E0920748F4B7
:100D00008436910540F40A9740F481E0089585E027
:100D1000089584E0089583E0089582E00895209185
:100D2000D001FC0120838091D101FB01808380915F
:100D3000D20108951F93CF93DF9300D0CDB7DEB7D4
:100D4000182F19821A82BE016E5F7F4FCE01019665
:100D50000E948F06898111118A810F900F90DF9177
:100D6000CF911F910895089590E080E00895EF924B
:100D7000FF920F931F93CF93DF93DC0114962D9175
:100D80003C912417350710F490E01DC0EA017B0167
:100D90008C01FC0180810E945B01D80111968D912C
:100DA0009C91DC01ED91FC910280F381E02DAE017C
:100DB000B7010995C817D90739F781E00E94C50224
:100DC00091E08111E1CF892FDF91CF911F910F9198
:100DD000FF90EF900895CF93DF93CDB7DEB7619783
:100DE0000FB6F894DEBF0FBECDBF1982A2E5B4E006
:100DF000FE013196BF019C9111968C91119712962C
:100E000091838283329684E0A236B807A1F741E14C
:100E100050E080916204909163040E94B70661964D
:100E20000FB6F894DEBF0FBECDBFDF91CF9108950E
:100E30000E94B5031092B6038093B5030895FF9204
:100E40000F931F93CF93DF938C01C62FDCE06830A4
:100E500010F0C850DDE0F801808180620E945B01E3
:100E60008D2F0E940A0585E694E00E940F05F80187
:100E70008081806261E070E090E00E94180785E662
:100E800094E00E949404F82EF801808180620E9410
:100E90005B018D2F0E940A0581E090E001C0880F60
:100EA000CA95EAF78F290E940A0585E694E0DF914A
:100EB000CF911F910F91FF900C940F050F931F93EB
:100EC000CF93DF938C01C62FD2E1683010F0C85069
:100ED000D3E1F801808180620E945B018D2F0E9426
:100EE0000A0585E694E00E940F05F8018081806282
:100EF00061E070E090E00E94180785E694E00E94AF
:100F00009404992702C095958795CA95E2F7817058
:100F1000DF91CF911F910F910895FF920F931F932F
:100F2000CF93DF931F92CDB7DEB78C016983F42E88
:100F3000F8014783608785E090E095838483642F80
:100F4000CE0101960E945E07F80116826F2DCE0138
:100F500001960E945E07882319F083E0F8018683DA
:100F60000E940F02F80160837183828393830F9044
:100F7000DF91CF911F910F91FF900895EF92FF9213
:100F80000F931F93CF93DF938C01C62FE42E84E140
:100F9000F82ED2E1683020F0C85095E1F92ED3E167
:100FA000F801808180620E945B018F2D0E940A05FA
:100FB00085E694E00E940F05F8018081806261E07F
:100FC00070E090E00E94180785E694E00E94940487
:100FD00021E030E001C0220FCA95EAF7F1E0C82F06
:100FE000C22BEF1619F02095C22FC823F80180817B
:100FF00080620E945B018D2F0E940A058C2F0E9447
:101000000A0585E694E0DF91CF911F910F91FF9043
:10101000EF900C940F05FC01962F828D8F3F31F0DD
:10102000603140F4CF014B960C94BE07642F892F9A
:101030000C949E0108950F931F93CF93DF93C62FB7
:101040008C01055E1F4FD1E062FB442740F94D271C
:1010500068E0C8010E94BE07C1FB442740F94D2744
:1010600067E0C8010E94BE074C2F4095417066E0C2
:10107000C801DF91CF911F910F910C94BE07FF9291
:101080000F931F93CF93DF938C01C62FF42ED0E0E4
:10109000683010F0C850D1E0F801808180620E9471
:1010A0005B018D2F0E940A0585E694E00E940F05E2
:1010B000F8018081806261E070E090E00E94180792
:1010C00085E694E00E94940421E030E001C0220F04
:1010D000CA95EAF7C82FC22BFF2019F02095C22F1E
:1010E000C823F801808180620E945B018D2F0E94DD
:1010F0000A058C2F0E940A0585E694E0DF91CF91C6
:101100001F910F91FF900C940F05603110F40C9417
:101110003F080895CF93DF93EC0140E06E810E9479
:101120000B0841E06E81CE010E940B0840E06E8109
:10113000CE010E940B088BE891E00197F1F7DF9157
:10114000CF910895AF92BF92CF92DF92EF92FF922C
:101150000F931F93CF93DF93EC018A8D8E01095F6C
:101160001F4FC62ED12C8F3F09F482C07E018BE128
:10117000E80EF11C8B8D80620E945B0182E10E946F
:101180000A0585E694E00E940F058B8D806262E07F
:1011900070E090E00E94180785E694E00E949404B5
:1011A000B82E85E694E00E94940460E0782FCB018D
:1011B0008B29F80130E020E001E010E04191B80116
:1011C000042E02C0660F771F0A94E2F760957095AF
:1011D00086239723B601022E02C0759567950A945F
:1011E000E2F76170772702C0660F771F4A95E2F732
:1011F000862B972B2F5F3F4F24303105F9F62E8138
:10120000680102C0CC0CDD1C2A95E2F7C094D09492
:10121000C822D922B601C7010E9452058E81B801A9
:1012200002C0660F771F8A95E2F7C62AD72AB60151
:10123000C7010E9452058E81B80102C0660F771F58
:101240008A95E2F7609570956C217D21C7010E9417
:1012500052058BE891E00197F1F7DF91CF911F9153
:101260000F91FF90EF90DF90CF90BF90AF900895D7
:10127000F12CE12C5E01EBE1AE0EB11CF801819185
:101280008F019A8D9F3F39F141E0682FC5010E947F
:101290008508A6010E2C02C0559547950A94E2F7E1
:1012A0004170F80131976081CE010E940B08FFEF79
:1012B000EF1AFF0A84E0E816F10401F7CE01DF918E
:1012C000CF911F910F91FF90EF90DF90CF90BF9043
:1012D000AF900C948A080E946701DBCFAF92BF9257
:1012E000CF92DF92EF92FF920F931F93CF93DF93F2
:1012F000EC01F62E6C810E940B086D816F3F21F08E
:1013000040E0CE010E940B080F2D10E08C8984FF75
:101310003AC06E0187E0C80ED11CF12CE12C5E01B1
:10132000EBE1AE0EB11CF60181916F019A8D9F3FEA
:1013300039F141E0682FC5010E948508A8010E2CF3
:1013400002C0559547950A94E2F74170F60131972E
:101350006081CE010E940B08FFEFEF1AFF0A88E0C0
:10136000E816F10401F7CE01DF91CF911F910F91A3
:10137000FF90EF90DF90CF90BF90AF900C948A08D1
:101380000E946701DBCFB80184E0759567958A9567
:10139000E1F7CE010E94A2086F2DCE01DF91CF911F
:1013A0001F910F91FF90EF90DF90CF90BF90AF9083
:1013B0000C94A20841E00E946E0981E090E008953B
:1013C00041E0682F88E094E00E946E0981E090E09F
:1013D00008950F931F93CF93DF938C01D0E0C0E06B
:1013E000F801EC0FFD1F6491662339F041E088E0BD
:1013F00094E00E946E092196F3CFCE01DF91CF9148
:101400001F910F91089540E00C946E09CF93DF93E4
:10141000CDB7DEB728970FB6F894DEBF0FBECDBFAD
:1014200098E0E2E3F1E0DE01119601900D929A95C9
:10143000E1F790912004961708F46FEF262F30E023
:10144000220F331F41E050E04C0F5D1F240F351F6A
:10145000F9016081680F606888E094E028960FB613
:10146000F894DEBF0FBECDBFDF91CF910C94030A7D
:1014700061E00E94030A8BE39FE10197F1F7089571
:1014800087E08093D20288E094E00E94380A60E00E
:1014900080E00E94060A8FE890E00C94E90988E059
:1014A00094E00E94380A60E080E00E94060A85E825
:1014B00090E00E94E90982ED8093D202089588E0CD
:1014C00094E00E94380A60E080E00E94060A81E809
:1014D00090E00E94E90988EC8093D202089588E0A8
:1014E00094E00E94380A60E080E00E94060A81E7EA
:1014F00090E00E94E90982E08093D202089588E09A
:1015000094E00E94380A60E080E00E94060A88E6C3
:1015100090E00E94E90981E08093D2020895CF9380
:10152000DF93CDB7DEB760970FB6F894DEBF0FBE7E
:10153000CDBF80912A0190912B019C01215031094E
:101540002F3F374010F090E080E00197811528E0B0
:101550009207F8F49C01220F232F221F330B3195A1
:101560008F779091D102911112C0206191EB9983F4
:101570008A832B83CE0101960E94A40560960FB644
:10158000F894DEBF0FBECDBFDF91CF9108952063E9
:10159000EDCF85E090E0F2CF4F925F926F927F9215
:1015A0008F929F92AF92BF92CF92DF92EF92FF9273
:1015B0000F931F93CF93DF9391E09093D2016091AB
:1015C000A9027091AA026F5F7F4F7093AA02609385
:1015D000A9028093C8020093D301811101C090E059
:1015E0009093C902011104C09091260193FFA5C0F8
:1015F000882309F4A2C0D22F042F0E940F02609307
:10160000C4027093C5028093C6029093C702809172
:10161000D101D81709F48DC080912601909127013E
:1016200080729927D0FD04C0892B21F082E003C08D
:10163000892BE1F381E08093CA028091C302882361
:1016400029F08091CA028C6F0E9412058091A80235
:10165000882309F46EC06D2F70E084E6089F600D4A
:10166000711D1124072E000C880B990B0E94472531
:101670002B013C0120E030E040E05FE30E94332496
:101680000E9416256B017C01812C912C30E8A32E41
:101690003FE3B32E10E080E1C81687E2D806E104EC
:1016A000F104E0F0115020E030E040E251E4C501E7
:1016B000B4010E94A4244B015C01AC019B01C30155
:1016C000B2010E94F72520E030E040E05FE30E9495
:1016D00033240E9416256B017C01DDCF20E030E031
:1016E00040E85FE3C501B4010E949F24712CC4E06F
:1016F0002AE0822E912CA12CB12C87FF2FC080E4F0
:1017000090E09093530480935204909355048093F7
:101710005404909359048093580490935B048093ED
:101720005A0482E090E090935704809356040E94FC
:10173000EB060093D001D093D101DF91CF911F919F
:101740000F91FF90EF90DF90CF90BF90AF909F9060
:101750008F907F906F905F904F900895C114D10447
:10176000E104F10411F4171588F1112319F0442450
:1017700043941711412C5C2EC1506C2E84E08515CA
:1017800058F0C701B601A50194010E947026605D62
:10179000442D852D0E948601C23069F4CEEFC50D1F
:1017A00084E0861540F0E62DF0E0EE0FFF1FEE5AC4
:1017B000FB4F11821082C701B601A50194010E945E
:1017C000702669017A017394C9CFC150C7FDA9CFB2
:1017D000C530DCF7EC2FF0E0EE0FFF1FEE5AFB4FA9
:1017E00011821082F2CF0F93082F2091E902235427
:1017F0008091EB0298E9980F883618F468E10E940E
:101800006426492F6091EC028091E6020E94CC0A86
:101810000F9108950F93FC01DB018C918F5F8C3346
:1018200070F48C93809118016AE00E94642601E0B4
:101830002C91408160E00E94CC0A0F9108951C9287
:1018400080818F5F883110F48083ECCF1082EACFE3
:101850008F929F92AF92BF920F931F93CF93DF937C
:10186000CDB7DEB7A1970FB6F894DEBF0FBECDBFE0
:1018700019A2423008F44AE08E010F5D1F4F842EFA
:10188000912CB12CA12CA50194010E947026E62F69
:10189000B901CA01EA3044F5E05DD801EE938D014B
:1018A000232B242B252B79F790E080E0109769F00B
:1018B000FD0101900020E9F73197AF014A1B5B0B56
:1018C000BD0188E094E00E941B02A1960FB6F89437
:1018D000DEBF0FBECDBFDF91CF911F910F91BF90A3
:1018E000AF909F908F900895E95CD7CF88E094E007
:1018F0000E94380A60E080E00E94060A86EB90E0D1
:101900000E94E90961E080E00E94060A8DEA90E009
:101910000E94E909609122017091230190E080E02A
:101920004AE00E94280C61E08CE00E94060A809147
:10193000280184FD04C083EA90E00C94E90988EA58
:1019400090E0FBCF0F931F93CF93DF930E948D0204
:1019500080E20E945B0185E694E00E940F05811100
:101960002AC18091BB02811108C181E594E00E94E7
:101970002E05809122048F3F09F457C00E948D02EA
:1019800083E294E00E942E0541E068E083E294E067
:101990000E943F0841E066E083E294E00E943F0835
:1019A00041E067E083E294E00E943F0867E088E05E
:1019B00094E00E941B0860910D04662329F041E029
:1019C00083E294E00E94850841E060910C0483E288
:1019D00094E00E94850841E060910E0483E294E067
:1019E0000E9485080FE014E0C8E0D4E0F80161919E
:1019F0008F0141E083E294E00E948508F4E0033126
:101A00001F07A1F70DE014E040E06F8583E294E04A
:101A10000E9485086F85603120F483E294E00E9483
:101A20001F0721960C171D0779F780911C04886009
:101A300080931C0482E080932004109221048BE3A5
:101A40009DE00197F1F740E060910C0488E094E09C
:101A50000E940B0840E060910E0488E094E00E9430
:101A60000B0860910D046F3F29F040E088E094E09E
:101A70000E940B0860911C0464FD81C063E088E053
:101A800094E00E94A208CBE4D6E4CE010197F1F7DE
:101A900063E088E094E00E94A2082197F1F763E0F8
:101AA00088E094E00E94A20883E592E00197F1F7B4
:101AB00062E088E094E00E94A20860911C046062E9
:101AC00088E094E00E94030A84E080931D046CE0A7
:101AD00088E094E00E94030A88E094E00E94380ABB
:101AE00082E080931E0466E088E094E00E94030A8E
:101AF00040E065E081E594E00E943F0865E081E513
:101B000094E00E941F0744E050E06091510484E299
:101B100094E00E948D0743E050E06091510486E319
:101B200094E00E948D0742E050E0609151048FE301
:101B300094E00E948D0741E050E0609151048DE2F5
:101B400094E00E948D0750E040E06091510488E4E9
:101B500094E00E948D0780912401909125010B97BC
:101B600011F40E94760C1092BA021092D2021092D6
:101B7000B6021092B5021092B70281E01DC06062F9
:101B800088E094E00E94030A8BE496E40197F1F761
:101B900060911C04606288E094E00E94030A83E57F
:101BA00092E00197F1F760911C04606288E094E094
:101BB0000E94030A82CF80E08093BB02DF91CF9125
:101BC0001F910F910895CF93DF93EC016530D8F00A
:101BD000C03187E2D80750F480E30E94E009C83E94
:101BE00083E0D80718F480E30E94E009C436D105E9
:101BF00018F480E30E94E009CA30D10550F480E374
:101C00000E94E00906C0643051F3633079F362301A
:101C100099F3BE0190E080E04AE0DF91CF910C940F
:101C2000280C0F931F93CF93DF9300D0CDB7DEB76F
:101C300061E080E00E94060A8091260182FF3AC09E
:101C40008091D201811105C08CE091E00E94E909E8
:101C500044C00091C8021091D30164E08091A902B0
:101C60009091AA020E94E30D88E091E00E94E909A8
:101C700062E0802F90E00E94E30D8DE20E94E00977
:101C800080E3111181E30E94E0098DE20E94E009E6
:101C90001A821982BE016F5F7F4FCE0102960E94A9
:101CA0008F06898180FD03C08EEF90E0CFCF83E067
:101CB00091E0CCCF8091D1028823B1F08FEE90E0FB
:101CC0000E94E9091091CF0260E08FE00E94060AAD
:101CD00085E411118FE40E94E0090F900F90DF91CD
:101CE000CF911F910F91089580EE90E0AFCFCF93E9
:101CF000DF93C82F88E094E00E94380A60E080E01B
:101D00000E94060AD091D20283E891E0DC3321F0F0
:101D1000DD3321F48CE791E00E94E90961E080E085
:101D20000E94060A8091B702882391F08EE30E94F8
:101D3000E0098CE3DC3309F488E1C81778F46C2FF0
:101D400070E090E080E04AE0DF91CF910C94280CA5
:101D500084EC8D0F0E949A06C82FEBCFDF91CF91B4
:101D60000895EF92FF920F931F93CF93DF93CDB718
:101D7000DEB766970FB6F894DEBF0FBECDBF082F53
:101D8000F92E60911D046D7F60931D04686088E0EA
:101D900094E00E94030A88E094E00E94380A60E020
:101DA00080E00E94060A89E791E00E94E90960E06C
:101DB00083E00E94060AE090D2021DEE1E0D1A304A
:101DC00018F480E20E94E009612F70E090E080E06A
:101DD0004AE00E94280C1CEE1E0D60E086E00E9486
:101DE000060A8DE691E09A83898382E691E09C83DE
:101DF0008B8389E591E09E838D8381E591E09887CF
:101E00008F8389E491E09A87898781E491E09C87B8
:101E10008B8789E391E09E878D8783E391E0988BA0
:101E20008F8788E291E09A8B898B8FE191E09C8B80
:101E30008B8B84E191E09E8B8D8B80E191E01B3058
:101E400040F4E12FF0E0EE0FFF1FEC0FFD1F81814A
:101E500092810E94E90961E080E00E94060A809177
:101E6000B702882319F08EE30E94E0091B30A0F529
:101E700089E0189FF0011124EC5BFE4F87818230CE
:101E800059F507FD03C080E30E94E0090034E0F447
:101E900080E30E94E0090032B8F480E30E94E00988
:101EA000003190F480E30E94E009083068F480E398
:101EB0000E94E009043040F480E30E94E00902300F
:101EC00018F480E30E94E009602F70E090E080E069
:101ED00042E00E94280C08C0812F0E946E06682FE5
:101EE000802F9F2D0E94E30D8091B702811144C085
:101EF0001B3048F489E0189FF0011124EC5BFE4F81
:101F000080858823D9F161E08EE00E94060A86E789
:101F100091E066960FB6F894DEBF0FBECDBFDF919D
:101F2000CF911F910F91FF90EF900C94E90989E0F8
:101F3000189FF0011124EC5BFE4F808581111EC0BB
:101F400061E08091B4020E94060A60911D04862F10
:101F5000826080931D046A6088E094E066960FB604
:101F6000F894DEBF0FBECDBFDF91CF911F910F91CF
:101F7000FF90EF900C94030A1B30C8F266960FB6E0
:101F8000F894DEBF0FBECDBFDF91CF911F910F91AF
:101F9000FF90EF90089588E094E00E94380A60E096
:101FA00080E00E94060A8091260182FF06C080ED33
:101FB00090E00E94E9090C94110E84EC90E00E94DC
:101FC000E9096091180170E090E080E04AE00E9429
:101FD000280CF1CF42E050E065EC71E088E094E03D
:101FE0000C941B0285ED8093BC008091DF039091DF
:101FF000E003A091E103B091E2030796A11DB11D9A
:1020000023E0B695A795979587952A95D1F72091C6
:10201000BC0024FD03C01092DD0308954091DF034E
:102020005091E0036091E1037091E203452B462B50
:10203000472B69F30097A105B10541F02AE22A95E3
:10204000F1F700C00197A109B109E1CF8091DE034A
:102050000C94A4022F923F924F925F926F927F92C4
:102060008F929F92AF92BF92CF92DF92EF92FF92A8
:102070000F931F93CF93DF9300D000D0CDB7DEB77F
:102080009C838B837C0141E8E40EF11C6C0150E8D9
:10209000C50ED11C8C010E571F4F8D579F4F2C0121
:1020A0008B819C818C579F4F4C0122242A94AB80BA
:1020B000BC8097E8A90EB11CEB81FC81EB57FF4F68
:1020C000FA83E983F7018081F6019081891709F489
:1020D000BAC0EB81FC81E80FF11D308037FE6DC086
:1020E000F8019081891739F0F501208131812F5F46
:1020F0003F4F31832083F8018083F2012082832DBA
:102100008076F401803609F441C0832D8295867073
:102110008E5F8083F8012081F4018081820F9927EE
:10212000991F813891059CF180E8682E621AF89415
:10213000F6014081F8018081841708F044C0F42F33
:10214000F81B8F2FF60180837894F8016081461781
:10215000E8F5712C50E06B817C81CB01860D971DD9
:102160000E94DC27F80160814B815C81460F511D84
:10217000BA01A3018B819C810E94DC27F701808139
:10218000F8019081891BF7018083F8011082F70123
:1021900090819F5F9083F8018081392F381B97FFD2
:1021A00002C0F7011082F2012081F401908193179F
:1021B000A9F03226F201308285CFF40180818111AD
:1021C000E6CF3082A7CF862D840FBCCF461B50E0D0
:1021D0008B819C81860F911DBC01CCCF32122AC00D
:1021E0004B815C81480F511DCA01E981FA81408110
:1021F00051814F5F5F4F51834083F7013081F80178
:1022000030830097B1F20F900F900F900F90DF91F5
:10221000CF911F910F91FF90EF90DF90CF90BF90E3
:10222000AF909F908F907F906F905F904F903F9076
:102230002F900895F501808191810196918380838B
:1022400090E080E0DACF90E080E0DDCF8F929F9247
:10225000AF92BF92CF92DF92EF92FF920F931F93B4
:10226000CF93DF93C090C002D090C102F601D58118
:10227000D370D061882EE89487F887FDDC5F962EB6
:10228000E89497F867FDD85FA42EE894A7F811E1C9
:1022900047FF10E1B22EE894B7F827FD1E5FF02E3D
:1022A000E894F7F807FD1C5F0E2D0F77E7FC185F29
:1022B000F601C2818381C82788E0C8278681C827A4
:1022C0008781C827C027CF25CB25CA25C925C82582
:1022D000CD27C12765EE84ED91E00E94890560E17C
:1022E00084ED91E00E948905F601628184ED91E020
:1022F0000E948905F601638184ED91E00E948905C1
:1023000062E084ED91E00E9489056D2F84ED91E0FB
:102310000E948905F601668184ED91E00E9489059D
:10232000F601678184ED91E00E948905682D84EDB6
:1023300091E00E948905692D84ED91E00E94890554
:10234000612F84ED91E00E9489056A2D84ED91E072
:102350000E9489056B2D84ED91E00E9489056F2D07
:1023600084ED91E00E948905602F84ED91E00E9448
:1023700089056C2F6F7784ED91E00E9489056FEFDE
:1023800084ED91E00E94890584ED91E00E942A107D
:102390009093C1028093C002009711F00E94A4059F
:1023A00081E0DF91CF911F910F91FF90EF90DF902F
:1023B000CF90BF90AF909F908F900895DF92EF9253
:1023C000FF920F931F93CF93DF93082FD62F822F67
:1023D0006AE00E946426D82E4D53142F1F77D851DF
:1023E000DF77E0901601F0902401CE2DCF256FED20
:1023F000C627C027CD27C827C127602F84ED91E0CD
:102400000E9489056EE084ED91E00E9489056BE7EA
:1024100084ED91E00E9489056D2D84ED91E00E948C
:1024200089056DE684ED91E00E94890568E784EDF9
:1024300091E00E948905612F84ED91E00E94890559
:1024400060E084ED91E00E9489056D2F84ED91E0BC
:102450000E94890560E084ED91E00E94890560E4B6
:1024600084ED91E00E9489056E2D84ED91E00E943B
:1024700089056F2D84ED91E00E9489056C2F6F779F
:1024800084ED91E00E9489056FEF84ED91E00E9458
:10249000890584ED91E00E942A109093C1028093F7
:1024A000C002009769F00E94A4050F3E49F4DF9135
:1024B000CF911F910F91FF90EF90DF900C940F023E
:1024C000DF91CF911F910F91FF90EF90DF900895D2
:1024D0000F931F93CF93DF9300D0CDB7DEB700915A
:1024E000D10211E010271093D10219821A82BE0185
:1024F0006E5F7F4FCE0101960E948F061123B9F0C7
:10250000209118010023B1F00E940F026093CB02CA
:102510007093CC028093CD029093CE020E948F0ADA
:102520000F900F90DF91CF911F910F91089500238D
:1025300059F320E04A8169818FEE0E94DE11E4CFD9
:102540006623B1F020912A0130912B01B90161502D
:1025500071096F3F774060F48217930749F481E077
:10256000411101C080E09091D10289130C9468124E
:1025700008950F931F93CF93DF93E82FF0E099E036
:10258000899FD0011124AC5BBE4F15962D913C91D3
:1025900026173707C0F08B01C82FEE0FFF1FEA5E2A
:1025A000FE4F71836083CF5FCC0FD0E0612FCE01EF
:1025B0000E942424602FCE010196DF91CF911F91BC
:1025C0000F910C942424DF91CF911F910F910895C6
:1025D0008B3010F40C94B9120895CF93DF936DE40F
:1025E00090E080E00E9424246AE581E090E00E946F
:1025F0002424C4E4D1E069817A8188810E94E812B0
:10260000299681E0C73AD807B1F7DF91CF910895B5
:10261000863061F4672B21F40E94ED1281E0089569
:1026200068E070E086E00E94B912F8CF99E0899FD7
:10263000F0011124EC5BFE4F238134816217730794
:1026400058F0258136812617370730F09085911193
:1026500003C00E94E812E2CF80E008951F920F921B
:102660000FB60F9211242F933F938F939F93AF93A5
:10267000BF938091D8029091D902A091DA02B091D3
:10268000DB023091D70223E0230F2D3758F5019656
:10269000A11DB11D2093D7028093D8029093D90237
:1026A000A093DA02B093DB028091DC029091DD020C
:1026B000A091DE02B091DF020196A11DB11D8093B1
:1026C000DC029093DD02A093DE02B093DF02BF91A3
:1026D000AF919F918F913F912F910F900FBE0F90CF
:1026E0001F90189526E8230F0296A11DB11DD2CF89
:1026F0001F920F920FB60F9211242F933F934F9377
:102700005F936F937F938F939F93AF93BF93EF9359
:10271000FF938091B900887F803609F44AC0F0F5B4
:10272000883209F4A7C018F5803109F49BC0B8F4C9
:10273000882309F4F9C0883009F494C0FF91EF911F
:10274000BF91AF919F918F917F916F915F914F91C9
:102750003F912F910F900FBE0F901F9018958831C9
:1027600009F488C0803251F78093DB0314C08034B1
:1027700009F49DC040F48033B9F38833F9F68093AF
:10278000DB0385ECB0C0803509F485C0883509F4D9
:1027900096C0883499F60E94F20FD0CF883909F498
:1027A0008CC038F5883729F050F4883611F080371E
:1027B00029F683E08093DD031092A70257C0883882
:1027C00009F47BC0803919F0803809F0B7CF8091C7
:1027D000A702803208F071C0E091A70281E08E0F5D
:1027E0008093A7028091BB00F0E0E957FD4F808302
:1027F0003DC0803B39F0E0F4803A09F479C0883A72
:1028000009F09CCF84E08093DD0310928602109241
:102810008502E091B303F091B4030995809185029C
:1028200081110FC081E0809385021092650209C07A
:10283000803C09F4A6CF883C09F4A3CF883B09F07B
:102840007DCFE091860281E08E0F80938602F0E0DA
:10285000EB59FD4F80818093BB009091860280915F
:10286000850229C08091B8038093BB0085EC8093DA
:10287000BC0064CF9091DA038091D903981758F582
:10288000E091DA0381E08E0F8093DA03F0E0E75401
:10289000FC4F8081E9CFE091DA0381E08E0F8093D5
:1028A000DA038091BB00F0E0E754FC4F8083909105
:1028B000DA038091D9039817C8F285E8D8CFE09160
:1028C000DA0381E08E0F8093DA038091BB00F0E0A1
:1028D000E754FC4F80838091DC0381115CCF81E061
:1028E0008093B70384EA8093BC001092DD0326CF67
:1028F00085EC8093BC001092DD038091A7028032AA
:1029000030F4E091A702F0E0E957FD4F10826091AA
:10291000A70270E0E091B103F091B20387E892E082
:1029200009951092A7020ACF1092DB0334CF1F92B1
:102930000F920FB60F921124DF92EF92FF920F9336
:102940001F932F933F934F935F936F937F938F9337
:102950009F93AF93BF93CF93DF93EF93FF93B19A7E
:102960008091190390911A0380549C4F90931A03FD
:10297000809319038091190390911A039093890011
:102980008093880080916302882371F01092630223
:10299000189B26C081E080931F03B59A80916F0039
:1029A000806280936F001CC080911E038F5F8093B4
:1029B0001E0380911F03843009F043C080911E03E1
:1029C000893030F58091150390E095958795809337
:1029D0001503189B05C0809115038068809315032B
:1029E000FF91EF91DF91CF91BF91AF919F918F9127
:1029F0007F916F915F914F913F912F911F910F9117
:102A0000FF90EF90DF900F900FBE0F901F901895E2
:102A1000B59A80916F00806280936F00809113035C
:102A200090911403189929C0FC01E957FF4F808148
:102A3000918101969183808310921E0381E080939F
:102A40001F0380911F038330E9F5E0911C03F0918F
:102A50001D03808120911B0333B190E0022E02C040
:102A6000959587950A94E2F7832780FD11C010920F
:102A70001E0382E080931F0325C0609115030E940E
:102A8000890580E090E0892BB9F20E940000D4CF44
:102A900080911E03893008F043C03091150381E016
:102AA00090E001C0880F2A95EAF7908130FF36C088
:102AB0008095892380838091150390E09595879573
:102AC0008093150380911F03823099F480911E0337
:102AD00081118EC0E0911C03F0911D0380819091C3
:102AE0001B0321E030E001C0220F9A95EAF7822B08
:102AF000808380911F03813009F072CF80911E0383
:102B0000882309F44ACF80911E03883308F468CFE4
:102B100010921F0380916F008D7F43CF892BCACF06
:102B200080911E03893059F4308181E090E001C02A
:102B3000880F2A95EAF7809583238083C3CF8091FD
:102B400020038F5F8093200390912103891750F514
:102B500010921E038091170390911803A0912003F7
:102B6000A80FB92FB11D8C9180931503808141E08E
:102B700050E001C0440F2A95EAF7842B80838091AE
:102B80008400909185008A5A9C4F90931A038093F9
:102B900019038091190390911A03909389008093EF
:102BA000880090CF81E08093160300911703109165
:102BB0001803E0901303F0901403C8010E949805D5
:102BC000D82ED0E0C0E0CD1548F4F801EC0FFD1F81
:102BD0006081C7010E9489052196F5CF80E090E0D1
:102BE000892B11F00E94000010921E0381E042CF59
:102BF00080911E038F3008F47CCFE0911C03F0918C
:102C00001D03208130911B0381E090E001C0880FFB
:102C10003A95EAF780958223808310921E0381E023
:102C200080931F03E0911303F0911403E357FF4FC8
:102C3000808191810196918380835BCF1F920F9257
:102C40000FB60F9211248F939F93EF93FF93B59A32
:102C5000EFE6F0E080818F7D808380918600909107
:102C6000870080529E4F90931A038093190380919E
:102C7000190390911A039093890080938800B19A68
:102C800080818260808384E080931F0310921E0302
:102C900081E080936302FF91EF919F918F910F905C
:102CA0000FBE0F901F9018951F920F920FB60F92A4
:102CB00011242F933F934F938F939F93EF93FF9301
:102CC00080911501882389F088B18C7F88B9809123
:102CD000CF018823B1F0409A1092CF018091B200C9
:102CE00090910201890F8093B200FF91EF919F9123
:102CF0008F914F913F912F910F900FBE0F901F908A
:102D00001895419A91E09093CF018091CE01813046
:102D100009F43FC088F0823009F459C08091CD0198
:102D2000882309F48BC08091B20083578093B2004E
:102D30008DE880930201D9CF9093CD01809101015C
:102D40008150809301018111EECF9093CE012091AB
:102D5000CB013091CC01C901019649E0429FF001BD
:102D6000439FF00D1124ED5FFE4F382F292F823045
:102D700091050CF06AC04189019639964423A9F364
:102D80003093CB012093CC011092CA011092C9015B
:102D9000C5CF1092CD0182E08093CE0180E8809370
:102DA00000018091CB019091CC0129E0289FF00196
:102DB000299FF00D1124ED5FFE4F8091C901909184
:102DC000CA01E80FF91F80818093C801A7CF8091C5
:102DD00000012091C801282351F19093CD0190E08A
:102DE0009595879580930001892B09F097CF809165
:102DF000C9019091CA0101969093CA018093C901BB
:102E00002091CB013091CC0149E0429FF001439FDA
:102E1000F00D1124ED5FFE4F27812817190609F0E8
:102E20004CF41092CE0180E18093010177CF109293
:102E3000CD01D5CF81E08093CE0170CF8091B200DB
:102E4000855E8093B2008BE174CF1092CC0110921A
:102E5000CB019ACF8B3028F529E0829FF001112415
:102E6000EC5BFE4F85819681803127E29207C8F4A2
:102E7000883E23E09207B8F484369105B0F40A97AF
:102E8000B0F481E09091B402891B990B85309105D3
:102E900080F4880F991FFC01E65CFE4F80819181D0
:102EA000089585E0EFCF84E0EDCF83E0EBCF82E0C3
:102EB000E9CF90E080E008951F93CF93DF93C09116
:102EC000B502D091B6022196D093B602C093B50256
:102ED00061E080E00E94060AC038D10538F089E937
:102EE00090E0DF91CF911F910C94E909C091B50258
:102EF000D091B6028C2F0E945B0185E694E00E947F
:102F00000F05182F882311F08430D1F480EA90E067
:102F10000E94E909DD27C031D10518F480E30E9441
:102F2000E009BE0190E080E040E10E94280C80E2D0
:102F3000143009F48FE3DF91CF911F910C94E009D5
:102F40002196D093B602C093B502C6CF0F931F93BC
:102F5000CF93DF9305E614E0F8011382128288EE26
:102F600093E0A0E0B0E084839583A683B7838BEAE7
:102F700091E091838083C9E7D4E086E0888380E88C
:102F8000898388E08A831B821C821D821E8286E0E0
:102F90000E9467010E940F026B837C838D839E8356
:102FA000E1E7F4E08DE380831783068311828FEFDE
:102FB0008283838315821482E2E5F4E0118A108A09
:102FC000128AE8E0F4E013821282128E148A8FE0F3
:102FD00084838EE085838DE086838CE087838BE01D
:102FE00080878AE0818789E08287178681E0808BED
:102FF00082E0818B83E0828B84E0838B8DEB91E098
:1030000091838083148E158E168E178E8AE090E041
:1030100091A380A312A213A215A216A217A210A612
:1030200092A781A713A614A616A617A610AA11AADE
:1030300093AB82AB14AA15AA17AA10AE11AE12AEAA
:1030400094AF83AF15AE16AE1092480410924904A7
:1030500010924A0410924B0490934D0480934C04B8
:1030600010924E0410924F048EE180930704DF917A
:10307000CF911F910F910895CF93DF93CDB7DEB716
:1030800062970FB6F894DEBF0FBECDBF789484B5BB
:10309000826084BD84B5816084BD85B5826085BD54
:1030A00085B5816085BD80916E00816080936E00E2
:1030B00010928100809181008260809381008091D4
:1030C0008100816080938100809180008160809385
:1030D00080008091B10084608093B1008091B00045
:1030E00081608093B00080917A00846080937A0040
:1030F00080917A00826080937A0080917A0081606A
:1031000080937A0080917A00806880937A00109290
:10311000C10016E1E12E11E0F12E02E0C02ED12C0B
:10312000C6010E941C24182FC60101960E941C246F
:10313000212F30E0322F2227820F932F911DD701AC
:103140008D939D937D01B2E0CB0ED11CE8E1CE16AC
:10315000D10431F78091220190912301089728F43E
:1031600068E070E086E00E94B9128091240190919D
:1031700025010B9711F00E94ED120E94A20CE2E2D1
:10318000F3E08FE8DF011D928A95E9F787E00E945E
:103190006701E2E5F2E02491EEE3F2E0E491F0E091
:1031A000EE0FFF1FED5DFD4F4591549180E091E0E2
:1031B00031E0291741F08F5F932F082E01C0990F3E
:1031C0000A94EAF7F6CF50931D0340931C038093B3
:1031D0001B0382E293E090931403809313032098DF
:1031E000E0911C03F0911D03208130911B0381E0CD
:1031F00090E001C0880F3A95EAF78095822380839A
:103200001092800081E08093810010921F03B59A94
:1032100080916F00806280936F0080918100887F31
:103220008160809381008091260182FFB2C010925C
:10323000E1021092E0021092E2021092F20284FF88
:1032400003C088E08093E2028BEB89838BE78A835B
:103250001B82CE0101960E94A4051092C802109212
:10326000AA021092A9021092C4021092C5021092F2
:10327000C6021092C7021092C9020E948D028DE30D
:103280000E945B0185E694E00E940F05811103C056
:1032900081E08093C30280E70E945B0185E694E0B1
:1032A0000E940F05811175C081E08093A802809172
:1032B000620490916304009711F00E94532786E006
:1032C00090E00E94B7268C0180E7F801808385E6B4
:1032D00094E092838183138280E290E095838483DB
:1032E00010936304009362040E948D0281E0D80170
:1032F00013968C93C8010E946A05882309F449C07B
:1033000081E2898B41E050E0BE016F5E7F4F80918A
:103310006204909163040E94B706109253041092C5
:1033200052041092550410925404109257041092B3
:103330005604109259041092580410925B04109293
:103340005A0410925D0410925C0410925F04109273
:103350005E0410926104109260040E94EB0681E802
:10336000898341E050E0BE016F5F7F4F809162042E
:10337000909163040E94B7068FEE898341E050E08C
:10338000BE016F5F7F4F80916204909163040E9441
:10339000B70689E00E9467011092CF021092D00216
:1033A000809128019091290174E0969587957A95EE
:1033B000E1F7B1E08B2781708093150180912601A0
:1033C00082FD1092150187B1836087B91092B00019
:1033D00082E08093B10081E0809370008DE880935B
:1033E000B2000E940F026093D3027093D4028093C4
:1033F000D5029093D60260EC462E67E2562E69E025
:10340000662E712C88248394912C50E0252E50E058
:10341000352E0E940F0200917C0410917D042091B2
:103420007E0430917F04601B710B820B930B65311E
:1034300071058105910508F454C00E940F02609344
:103440007C0470937D0480937E0490937F0410919C
:103450007A0480917B04113C20F0819580937B0459
:1034600002C01032D0F380917B04180F10937A04BD
:1034700000917904802F0E946701111105C060E05E
:10348000802F0E949E012DC01F3F11F461E0F8CFF4
:10349000E02FF0E0E155FE4FE491E33009F4D1C0B4
:1034A00040F4E130D1F0E23009F4C6C017FDEECFB0
:1034B000E6CFE73009F4D1C0E83009F4D6C0E430F3
:1034C000A9F780918000806280938000812F90E036
:1034D00090938B0080938A0004C084B5806884BD7B
:1034E00017BD0E940F020091AF021091B00220910F
:1034F000B1023091B202601B710B820B930B6E37DD
:1035000071058105910528F10E940F026093AF02B9
:103510007093B0028093B1029093B2029091AE0288
:1035200081E098279093AE02992399F09091AD0293
:1035300098279093AD02992361F09091AC0298275F
:103540009093AC02992329F09091AB028927809344
:10355000AB020E94A20C8091BB028130E1F565E0D4
:1035600081E594E00E945E07E0E28E9FC001112495
:103570008095909561E085FD60E088E094E00E9490
:103580001B0827E1E22E24E0F22E10E000E03FE1EC
:10359000D32EC02ED7016D917D0180E0603120F4E3
:1035A00083E294E00E945E0790E002C0880F991FBA
:1035B000CA94E2F780959095D8220F5F1F4F05308F
:1035C000110539F78091BA02D11057C0882309F448
:1035D00042C31092BA0282E293E00E942A10FC01D8
:1035E0009093C1028093C002892B09F488C671812F
:1035F000272F30E06281462F50E0CA019695982F20
:1036000088279795879580789770872B932BA08133
:10361000A23B09F4B5C30196A13B09F4E9C708F040
:103620009DC3A33809F4E1C7A03B09F0BAC34072B7
:1036300060710E94A012B5C384B5806284BD18BDBC
:1036400050CF80918000806880938000812F90E02F
:10365000909389008093880044CF8091B000806867
:103660008093B0001093B3003CCF8091B000806293
:103670008093B0001093B40034CF8D1509F4EBC2E1
:103680000091D202D092BA02011105C0D2FEA3CF9E
:103690000E947F0AA0CF0130F1F4D3FE05C00E9442
:1036A000760C1092D20297CFD2FE03C00E946F0A0E
:1036B00092CFD1FEF1C10E94CB0F8AE08093D2025B
:1036C0008091CF0280278093B9028091D102082790
:1036D0000093B80280CF023061F4D3FCD9CFD1FE81
:1036E00003C00E945F0A77CFD2FE75CF0E94400AC6
:1036F00072CF073079F4D3FCD9CFD1FECDC1809100
:10370000260182FDC9C18CE38093D20280E00E9431
:103710009A0624C20A30E9F5D4FCBACF809126017A
:1037200082FD59CFD0FE22C0D1FE17C0198A19825E
:10373000BE016F5F7F4FCE0141960E948F06BE0192
:103740006F5F7F4FCE0141960E940A0C8091B902B3
:1037500091E089278093B9023ECF0E946812809140
:10376000D10291E089278093B80235CF809128015A
:1037700080FF31CF609118016F5FD3FC05C0D2FE8E
:103780002ACF60911801615070E081E00E94081317
:1037900022CF043108F480C180910704801708F417
:1037A0007BC11CEE100FD0FE2DC08091B702882384
:1037B00009F411CF6091B5027091B602812F0E9479
:1037C0000813082F8FEF9FEF1B3040F4E12FF0E03C
:1037D000EE0FFF1FEA5EFE4F808191810E94B10EC5
:1037E00061E08AE00E94060A88EA91E0011102C0C5
:1037F00081EA91E00E94E90961E08091B4020E94AF
:10380000060AE9CED4FE0EC08091B702882309F4DF
:1038100068CF1092B702E12F1B3008F4C3C08FEFBE
:103820009FEF2FC1D1FE57C08091B70281111FC0F9
:103830001B30E8F4E12FF0E029E0129FD0011124C1
:10384000AC5BBE4F18968C91811111C0EE0FFF1F1B
:10385000EA5EFE4F808191819093B6028093B5021B
:1038600021E02093B7021092B4020E94B10E809121
:10387000B702882309F4AFCE0091B4020F5F009322
:10388000B4021B3048F439E0139FF0011124EC5BC3
:10389000FE4F8781823061F0812F0E946E0690E09A
:1038A00001960817190631F481E08093B40202C032
:1038B0000930D1F361E08091B4020E94060A609160
:1038C0001D04862F826080931D046A6088E094E066
:1038D0000E94030A80CED3FE6DC09091B702992357
:1038E00009F453C0E090B502F090B6028FEF9FEF5D
:1038F0001B30F0F5C12ED12C49E0149FF0011124AA
:10390000EC5BFE4F0781023080F4812F0E942A1762
:103910008E0D9F1D9093B6028093B5028E159F0564
:1039200020F4F092B602E092B5022091B5023091F7
:10393000B602023099F48091B402A8E0B0E0A81B6E
:10394000B109F40102C0EE0FFF1FAA95E2F7CF0103
:10395000822B932B9093B6028093B50289E08C9DC5
:10396000F0018D9DF00D1124EC5BFE4F8581968159
:103970002091B5023091B6028217930708F07DC0FE
:10398000F092B602E092B50278C00F5F0093D202C7
:10399000081710F08093D202E091D202E451EB308C
:1039A00008F03DCFF0E0EE0FFF1FEA5EFE4F808192
:1039B000918167C0D2FE70C08091B702882309F45C
:1039C00063C0E090B502F090B60290E080E01B305A
:1039D00008F041C0C12ED12C29E0129FF001112422
:1039E000EC5BFE4F0781023088F4812F0E942A177A
:1039F000A701481B590B5093B6024093B502E41639
:103A0000F50620F4F092B602E092B5022091B502DC
:103A10003091B6020230A9F48091B402A8E0B0E07F
:103A2000A81BB109F40102C0EE0FFF1FAA95E2F72F
:103A3000CF0180959095822393239093B602809333
:103A4000B50289E08C9DF0018D9DF00D1124EC5B99
:103A5000FE4F838194812091B5023091B6022817E0
:103A6000390720F4F092B602E092B5028091B502D7
:103A70009091B602019609F483CF8091B50290919E
:103A8000B6020E94B10EA7CD01500093D2020331BD
:103A900009F082CF84E17ECF84EC800F823008F081
:103AA000A6C0D0FE40C08091B702882309F493CD10
:103AB0000C33B1F41091B502198A1982BE016F5FFF
:103AC0007F4FCE0141960E948F06809118016AE0D7
:103AD0000E94642601E02981412F60E00E94CC0A07
:103AE0008091D2028D33B1F41091B502198A1982F6
:103AF000BE016F5F7F4FCE0141960E948F0680917D
:103B000018016AE00E94642601E0212F498960E0E3
:103B10000E94CC0A61E088E00E94060A8AE991E0EE
:103B20000E94E90958CDD4FE08C09091B7029923AC
:103B300009F4DCCD1092B702EACDD1FE12C090910B
:103B4000B702911148CD0E949A06282F30E0309399
:103B5000B6022093B50291E09093B7020E94770ECF
:103B60003ACDD3FE26C08091B7028823C9F0809158
:103B7000B5029091B602019628E10C3309F02CE3CE
:103B80002817190631F028F09093B6028093B502F9
:103B900004C01092B6021092B5028091B502DECF39
:103BA0008DE30D3309F50093D2028091D2028C533C
:103BB000AECDD2FE50C08091B702882379F08091BB
:103BC000B5029091B602009739F488E10C3309F000
:103BD0008CE38150990BD8CF0197D6CF0150009339
:103BE000D2020B3311F78CE38093D202DECF083C74
:103BF00089F4D2FE03C00E944F0AEDCCD4FC56CD0E
:103C0000D1FEE9CC84E18093D2028091160190919B
:103C1000170137CF023DC9F4D3FC63CDD4FC46CDA8
:103C2000D1FED9CC83ED8093D20260E088E00E947F
:103C3000060A80E20E94E0092FEF3FEF3093B602C0
:103C40002093B5020E945C17C6CC033D21F4D4FC3E
:103C5000D2CFD2FCF7CF8091D202873009F561E054
:103C600080E00E94060ABE016F5F7F4FCE01419641
:103C70000E948F06882309F450C08989873108F093
:103C800046C062E090E00E94E30D8AE30E94E009F2
:103C900089818C3308F03EC062E090E00E94E30D21
:103CA0008091D2028A3009F096CC1091180180914F
:103CB000B302181789F08091260182FF33C061E0BA
:103CC00087E00E94060A612F70E090E080E04AE001
:103CD0000E94280C1093B3021091CF02809126010C
:103CE00090912701847099272091B902121799F1B8
:103CF0001093B902892BC9F061E08CE00E94060A9A
:103D00008FE891E011110CCF8AE891E009CF0E9471
:103D1000EA0FBBCF0E94EA0FC3CF84E991E00E9473
:103D2000E909BECF60E08BE0CCCF60E08FE00E947D
:103D3000060A8FE4111101C085E40E94E009809118
:103D4000D1029091B802891709F445CC8093B8024A
:103D50000E94110E40CC892B91F33DCCAC3B09F471
:103D60005DC4A03D09F464C4A43BD9F47C33C9F418
:103D700080E090E0892BA9F08CE30E94000011C044
:103D800022E030E065FD02C021E030E040E050E09C
:103D9000452B39F0880F991F6071820F931F0E9485
:103DA00000008091260182FF45C0E091C002F091A1
:103DB000C10282818B37F1F58081877F873ED1F503
:103DC000828586FD04C08091E20283FF9DC48091BC
:103DD000E0029091E1021816190664F58EE0A3EE58
:103DE000B2E001900D928A95E1F78091E80280930C
:103DF000F20281E00E94F30B21143104A9F08091BA
:103E0000E20282FF11C02091E802A0E82A9FC001CF
:103E100011242091E702280F392F311D8FEF9FE3E6
:103E2000821B930B0E940000E2E0F0E0F093E102BD
:103E3000E093E0028091260182FD45C00091C0021E
:103E40001091C102C8010E9498058430E1F4D801A4
:103E50008C918B3BC1F411968C918B37A1F480919E
:103E6000D102F0901801811101C0F12C81E00E9473
:103E70009A06E82E80E00E949A062F2D4E2D682F7C
:103E800087EE0E94DE11C8010E9498058E30D9F499
:103E9000F80180818F3EB9F482818B37A1F4809143
:103EA000D10210911801811101C010E081E00E943F
:103EB0009A06082F80E00E949A06212F402F682F33
:103EC00087EE0E94DE110091C0021091C102C8016C
:103ED0000E949805803109F012C2D8018C91853E6C
:103EE00009F00DC214968C911497823009F007C224
:103EF00016962C911697809116019091170128170C
:103F0000190609F0E3C117962C91179780912401A7
:103F1000909125012817190609F0D8C115968C91A2
:103F2000159790E09C01E4E0220F331FEA95E1F73A
:103F300020781996AC901997E894A7F82A2930E0D0
:103F4000322F222745E0880F991F4A95E1F78078A4
:103F50001896AC90E894A7F8A82AA20EB32EB11C2C
:103F60006501B1E0CB1AD108CA8AEC2DEB3050F4D0
:103F700029E0C29EF0011124EC5BFE4F31E0878105
:103F8000813009F030E0D80113968C918130F1F541
:103F9000BBE0CB16D104D0F5F801828590E06385B3
:103FA0006F77AC015695542F442757954795262F88
:103FB000240F332309F4AFC336E0880F991F3A95D5
:103FC000E1F7807864856F77862B682F70E0762F15
:103FD0006627620F711D8C2D0E94E812E091C002CD
:103FE000F091C102838180648383FA894FEFFB30B3
:103FF00030F4F601EE0FFF1FEA5EFE4F4081E12C28
:1040000000E020E060E08A2D0E942611E091C002CD
:10401000F091C10283818230B9F42BE0C216D10441
:1040200098F482E483833A894FEF3B3030F4F60111
:10403000EE0FFF1FEA5EFE4F4081E12C00E020E022
:1040400060E08A2D0E942611E091C002F091C10229
:104050008381833009F04BC04BE0C416D10408F0D3
:1040600046C0628570E0CB019695982F882797957A
:104070008795992723852F77280F392F311D16E033
:10408000660F771F1A95E1F76078772784858F7719
:10409000682B5A898FEF9FEF5B3038F4F601EE0FF3
:1040A000FF1FEA5EFE4F8081918126233723232B59
:1040B00009F433C3682B792B8C2D0E94E812E09110
:1040C000C002F091C1028381806483837A894FEFBB
:1040D0007B3030F4F601EE0FFF1FEA5EFE4F4081A9
:1040E000E12C00E020E060E08A2D0E942611E091A2
:1040F000C002F091C1028381853009F07FC08BE05E
:10410000C816D10408F07AC0828590E08C0126E0C0
:10411000000F111F2A95E1F7007864856F77062B51
:10412000BC0135E0660F771F3A95E1F7162F10783E
:1041300065856F77162BBC0144E0660F771F4A95A3
:10414000E1F7A62FA078EA2E66856F77E62A6385C9
:104150006F779695982F882797958795680F70E0C9
:104160008C2D0E94E812FF24F394FC0C602F70E069
:104170008F2D0E94E81202E00C0D612F70E0802F5D
:104180000E94E81213E01C0D6E2D70E0812F0E943A
:10419000E812E091C002F091C102838180648383C0
:1041A000BA894FEFBB3030F4F601EE0FFF1FEA5E25
:1041B000FE4F4081EAE02FEFEF1538F0EF2DF0E0F1
:1041C000EE0FFF1FEA5EFE4F20810B3008F0AAC2FF
:1041D000E02FF0E0EE0FFF1FEA5EFE4F0081EE24BD
:1041E000EA941B3038F4E12FF0E0EE0FFF1FEA5E97
:1041F000FE4FE08060E08A2D0E942611E091C0020F
:10420000F091C10283818630B1F52BE0C216D10452
:1042100090F586E483833A894FEF3B3030F4F60122
:10422000EE0FFF1FEA5EFE4F4081E1E0EC0D2FEF45
:10423000EB3030F4F0E0EE0FFF1FEA5EFE4F20811E
:10424000E2E0EC0D0FEFEB3030F4F0E0EE0FFF1F8B
:10425000EA5EFE4F0081E3E0EC0DEE24EA94EB30E1
:1042600030F4F0E0EE0FFF1FEA5EFE4FE08060E00A
:104270008A2D0E942611E091C002F091C102838133
:10428000883061F488E4838340912401E42E009116
:10429000160120E06DE08AE30E942611E091C00241
:1042A000F091C10283818F3089F40E94ED12E09178
:1042B000C002F091C102838180648383E12C00E01D
:1042C00020E040E06B2D8A2D0E942611E091C00273
:1042D000F091C1028681811112C0878181110FC0C6
:1042E0008381873061F487E4838340912401E42E45
:1042F0000091160120E06DE08AE30E942611809172
:10430000260182FFF1C00E940F020091BC021091B1
:10431000BD022091BE023091BF02AB01BC01401B27
:10432000510B620B730B433451056105710508F4A1
:1043300086C0D901C8018D5B9F4FAF4FBF4F80939F
:10434000BC029093BD02A093BE02B093BF028091C5
:10435000E0029091E102029709F05AC08091E702D1
:104360009091E602890F87FF60C28F778093E70202
:104370008091E8028F5F8093E8024091E20287FD1E
:1043800016C043FF54C290E02091F20230E02A5F51
:104390003F4F281739070CF04AC227E730E040FFAB
:1043A00002C028E730E0281739070CF440C28DE638
:1043B0008093E702842F817088588093E80280916F
:1043C000E9028F5F8F3708F0AFC18093E90241FFA8
:1043D000BFC18FEE8093E30283EE92E00E94A405BA
:1043E00021143104A9F08091E20282FF11C02091D2
:1043F000E80240E8249FC00111242091E702280F21
:10440000392F311D8FEF9FE3821B930B0E94000019
:104410008091E0029091E102892B69F48BEB898312
:104420008BE78A831B82CE0101960E94A40590929D
:10443000E1028092E0028091260182FF55C08091C6
:10444000C902882389F12091C80280E6C82E8AEE2D
:10445000D82EE12CF12C222359F030E050E040E03E
:1044600060E67AEE80E090E00E94702669017A01B1
:104470000E940F020091C4021091C5022091C60251
:104480003091C702601B710B820B930BC616D706C7
:10449000E806F90648F48BEB89838BE78A831B8255
:1044A000CE0101960E94A4058091C302882309F4DD
:1044B00061C161E0809171040E94B5031092B6035E
:1044C0008093B503813009F447C182E890E090936E
:1044D0007604809375048091720482FD4BC18091B3
:1044E000C202882309F449C110911A01112391F1E4
:1044F000C090D302D090D402E090D502F090D602C2
:10450000C114D104E104F10429F10E940F02AB01AE
:10451000BC014C195D096E097F0928EE33E0129F3A
:10452000C001139F900D1124092E000CAA0BBB0B88
:1045300084179507A607B70768F41092D302109264
:10454000D4021092D5021092D6028AE08093D20251
:104550000E94CB0F198A1982BE016F5F7F4FCE0177
:1045600041960E948F069091D1029923D9F09091A3
:10457000260192FF17C1882351F089819091D002C2
:10458000981729F08093D00281708093CF02809198
:10459000150181110BC098B19C7F8091CA02837074
:1045A000892B88B9809115018823A9F08091CF02C9
:1045B00090E8811191E8F8948091D10280931401E0
:1045C00090930E0180910C0120910D018227892783
:1045D00080930F01789480E090E0892B11F40C9483
:1045E000091A0E9400000C94021A0E948F0AD9CB6B
:1045F00066FF0AC020E030E0232B09F4D2CB4072E2
:1046000060710E940000CDCB20E030E0232B09F444
:10461000C8CB407160720E940000C3CB20E030E044
:10462000232B09F4BECB407260710E940000B9CB0D
:104630007076703221F07036C1F17111B2CB80E02A
:1046400090E0892B09F4ADCBC9019695982F882766
:104650009795879580789F70840F951FA5E0359575
:104660002795AA95E1F72170019633814481E42FC3
:10467000F0E0AF013D3731F070E8379FA001112421
:104680004E0F5F1F6F7081F1623081F1643081F1F4
:10469000663081F1683081F16A3081F16C3081F1EE
:1046A0006E3081F10E9400007CCB80E090E0892B8D
:1046B00009F477CB0381802F807D803109F071CBA5
:1046C000E480FF24F39411E041E0802F8F2109F072
:1046D00040E02E2D2F21FF0C612F80E80E9400006A
:1046E0001F5F153089F75DCB61E4DCCF62E4DACF80
:1046F00063E4D8CF64E4D6CF65E4D4CF66E4D2CF08
:1047000067E4D0CF68E4CECF83E090E09093E102FD
:104710008093E0028FCB80E058CC60957095682341
:104720007923CACC0FEF5BCD83E48093E9028091BB
:10473000EB028F5F87FD03C08093EB0248CE88E6D3
:104740008093EB028091EC028F5F8093EC023FCE6E
:1047500080E00E94F30B44CE80917704909178041E
:10476000DC01ED91FC910284F385E02D09958093A5
:104770007204B3CE1092C202B7CE81E08093C2021F
:104780009091CA02913009F482E08093CA0280912C
:10479000C302882309F4A8CE8091CA028C6F0E94BC
:1047A0001205A2CE10911801111101C01AE00E9449
:1047B0000F026B017C01212F30E050E040E0C3018B
:1047C000B2010E9492268091CB029091CC02A091DE
:1047D000CD02B091CE02C81AD90AEA0AFB0A2C15FA
:1047E0003D054E055F05D8F40E940F026093CB0291
:1047F0007093CC028093CD029093CE02BE016F5F86
:104800007F4FCE0141960E940A0C212F4981698970
:104810008FEE0E94DE11898181708093CF026091BA
:10482000CF0289E00E949E01B2CE8093E70221145C
:10483000310409F0D8CDFFCDF999FECF92BD81BDED
:10484000F89A992780B50895262FF999FECF1FBAB7
:1048500092BD81BD20BD0FB6F894FA9AF99A0FBEA9
:10486000019608955058BB27AA270E944A240C9409
:10487000BD250E94AF2538F00E94B62520F039F4FE
:104880009F3F19F426F40C94AC250EF4E095E7FB59
:104890000C94A625E92F0E94CE2558F3BA1762077B
:1048A00073078407950720F079F4A6F50C94F0259A
:1048B0000EF4E0950B2EBA2FA02D0B01B90190013B
:1048C0000C01CA01A0011124FF27591B99F0593F7F
:1048D00050F4503E68F11A16F040A22F232F342FC7
:1048E0004427585FF3CF469537952795A795F04015
:1048F0005395C9F77EF41F16BA0B620B730B840B2A
:10490000BAF09150A1F0FF0FBB1F661F771F881FE1
:10491000C2F70EC0BA0F621F731F841F48F4879539
:1049200077956795B795F7959E3F08F0B0CF93952B
:10493000880F08F09927EE0F9795879508950E94A4
:10494000822508F481E008950E94B8240C94BD25C6
:104950000E94B62558F00E94AF2540F029F45F3F31
:1049600029F00C94A62551110C94F1250C94AC253A
:104970000E94CE2568F39923B1F3552391F3951B3B
:10498000550BBB27AA2762177307840738F09F5F70
:104990005F4F220F331F441FAA1FA9F335D00E2EDD
:1049A0003AF0E0E832D091505040E695001CCAF74A
:1049B0002BD0FE2F29D0660F771F881FBB1F26170D
:1049C00037074807AB07B0E809F0BB0B802DBF01E4
:1049D000FF2793585F4F3AF09E3F510578F00C94B3
:1049E000A6250C94F1255F3FE4F3983ED4F3869519
:1049F00077956795B795F7959F5FC9F7880F911DD4
:104A00009695879597F90895E1E0660F771F881FBF
:104A1000BB1F621773078407BA0720F0621B730B72
:104A2000840BBA0BEE1F88F7E09508950E94D625F7
:104A300088F09F5798F0B92F9927B751B0F0E1F05F
:104A4000660F771F881F991F1AF0BA95C9F714C00F
:104A5000B13091F00E94F025B1E008950C94F0255A
:104A6000672F782F8827B85F39F0B93FCCF3869548
:104A700077956795B395D9F73EF4909580957095A5
:104A800061957F4F8F4F9F4F0895E89409C097FB22
:104A90003EF490958095709561957F4F8F4F9F4F15
:104AA0009923A9F0F92F96E9BB279395F695879559
:104AB00077956795B795F111F8CFFAF4BB0F11F41C
:104AC00060FF1BC06F5F7F4F8F4F9F4F16C08823C3
:104AD00011F096E911C0772321F09EE8872F762FF9
:104AE00005C0662371F096E8862F70E060E02AF03A
:104AF0009A95660F771F881FDAF7880F9695879526
:104B000097F90895990F0008550FAA0BE0E8FEEFFA
:104B100016161706E807F907C0F012161306E40781
:104B2000F50798F0621B730B840B950B39F40A267A
:104B300061F0232B242B252B21F408950A2609F458
:104B4000A140A6958FEF811D811D089597F99F675C
:104B500080E870E060E008959FEF80EC0895002405
:104B60000A941616170618060906089500240A94D2
:104B700012161306140605060895092E0394000C58
:104B800011F4882352F0BB0F40F4BF2B11F460FFE7
:104B900004C06F5F7F4F8F4F9F4F089557FD905810
:104BA000440F551F59F05F3F71F04795880F97FBF1
:104BB000991F61F09F3F79F08795089512161306AB
:104BC0001406551FF2CF4695F1DF08C016161706DA
:104BD0001806991FF1CF869571056105089408950F
:104BE000E894BB2766277727CB0197F908950E94A1
:104BF0000A260C94BD250E94AF2538F00E94B625E8
:104C000020F0952311F00C94A6250C94AC251124CA
:104C10000C94F1250E94CE2570F3959FC1F3950F5A
:104C200050E0551F629FF001729FBB27F00DB11D30
:104C3000639FAA27F00DB11DAA1F649F6627B00DC0
:104C4000A11D661F829F2227B00DA11D621F739FA9
:104C5000B00DA11D621F839FA00D611D221F749FB7
:104C60003327A00D611D231F849F600D211D822FFE
:104C7000762F6A2F11249F5750409AF0F1F0882325
:104C80004AF0EE0FFF1FBB1F661F771F881F915052
:104C90005040A9F79E3F510580F00C94A6250C9436
:104CA000F1255F3FE4F3983ED4F3869577956795B9
:104CB000B795F795E7959F5FC1F7FE2B880F911D7C
:104CC0009695879597F90895991B79E004C0991FE7
:104CD000961708F0961B881F7A95C9F78095089556
:104CE000A1E21A2EAA1BBB1BFD010DC0AA1FBB1FF0
:104CF000EE1FFF1FA217B307E407F50720F0A21B62
:104D0000B30BE40BF50B661F771F881F991F1A94CE
:104D100069F760957095809590959B01AC01BD01F8
:104D2000CF010895052E97FB1EF400940E94A9263A
:104D300057FD07D00E94702607FC03D04EF40C9458
:104D4000A92650954095309521953F4F4F4F5F4F85
:104D5000089590958095709561957F4F8F4F9F4FE7
:104D60000895EE0FFF1F0590F491E02D09940F9325
:104D70001F93CF93DF938230910510F482E090E08F
:104D8000E0918204F091830430E020E0B0E0A0E004
:104D9000309799F42115310509F44AC0281B390BC5
:104DA00024303105D8F58A819B816115710589F11F
:104DB000FB0193838283FE0111C0408151810281F6
:104DC000138148175907E0F04817590799F41097CD
:104DD00061F012960C93129713961C933296CF01A2
:104DE000DF91CF911F910F9108950093820410934A
:104DF0008304F4CF2115310551F04217530738F0E1
:104E0000A901DB019A01BD01DF01F801C1CFEF016A
:104E1000F9CF9093830480938204CDCFFE01E20FFB
:104E2000F31F819391932250310939832883D7CF7F
:104E30002091800430918104232B41F420912E0194
:104E400030912F01309381042093800420912C0114
:104E500030912D012115310541F42DB73EB7409118
:104E6000300150913101241B350BE0918004F09109
:104E70008104E217F307A0F42E1B3F0B2817390714
:104E800078F0AC014E5F5F4F2417350748F04E0FA6
:104E90005F1F5093810440938004819391939FCF2F
:104EA000F0E0E0E09CCFCF93DF930097E9F0FC01C6
:104EB000329713821282A0918204B0918304ED0193
:104EC00030E020E01097A1F420813181820F931F00
:104ED00020918004309181042817390709F061C0BE
:104EE000F0938104E0938004DF91CF910895EA016B
:104EF000CE17DF07E8F54A815B819E014115510518
:104F0000B1F7E901FB83EA8349915991C40FD51F99
:104F1000EC17FD0761F4808191810296840F951F43
:104F2000E90199838883828193819B838A83F0E05E
:104F3000E0E012968D919C9113970097B9F52D9111
:104F40003C911197CD010296820F931F209180040E
:104F5000309181042817390739F6309751F51092AE
:104F6000830410928204B0938104A0938004BCCF88
:104F7000D383C28340815181840F951FC817D907FD
:104F800061F44E5F5F4F88819981480F591F5183AB
:104F900040838A819B81938382832115310509F0A7
:104FA000B0CFF0938304E09382049ECFFD01DC0137
:104FB000C0CF13821282D7CF6817790768F4FB013C
:104FC000DC01E40FF51FA40FB51F02C002900E9282
:104FD00041505040D8F708950C94EE27FB01DC01B6
:104FE00002C001900D9241505040D8F70895F894B6
:024FF000FFCFF1
:104FF20080108DFF00FF000000000301C0FA0000D6
:10500200000000040001FFFFFFFFFFFFFFFFFFFFA3
:10501200FFFFFFFFFFFFFFFFFFFFFFFF0000840412
:105022008000000040001400540001000A006400E7
:10503200E803102700010001007E000000011E00AD
:105042000A006300000002030000000900000003E0
:105052000000000000000001040000000000000049
:10506200010500000000000000010608000000FF2A
:10507200000000070B000B000B00000108000000FD
:1050820000FF0002000910000000FF0002000A9F5A
:105092000200000008010000000000DB04AE04B4BE
:1050A200068404A7049404850400000000DA091BA6
:0850B20002B406B3063F3F0003
:00000001FF
