:100000000C94B1000C94D9000C94D9000C94D90034
:100010000C94D9000C94D9000C94D9000C94D900FC
:100020000C94D9000C94D9000C943A120C94B3108F
:100030000C94D9000C94D9000C94D9000C94D900DC
:100040000C944A0F0C94D9000C94D9000C94D9004C
:100050000C94D9000C94D9000C94D9000C94D900BC
:100060000C94940F0C94D900496E626574726965A2
:10007000626E61686D653F0043563F004932432D13
:100080005363616E3F006665727469670030780083
:1000900056657273696F6E2000555A2D53746172E4
:1000A000742F53746F70003F3F3F0053572D4944E6
:1000B0000056657273696F6E00526573657276657E
:1000C0000044657669646572435600434C4B2D438A
:1000D0004D442D494400416472204C4E2D302F3147
:1000E000005265736572766500446576696365499B
:1000F0004400726F004356000000000024002700F7
:100100002A00000000002300260029000000000053
:10011000250028002B000404040404040404020243
:100120000202020203030303030301020408102076
:100130004080010204081020010204081020000081
:100140000008000201000003040700000000000096
:1001500000006661696C65640073746F72656400A9
:10016000A21211241FBECFEFD8E0DEBFCDBF11E039
:10017000A0E0B1E0ECE4F9E302C005900D92A039F3
:10018000B107D9F724E0A0E9B1E001C01D92A7357D
:10019000B207E1F710E0C1EBD0E004C02197FE0107
:1001A0000E94831CC03BD107C9F70E945D130C94C9
:1001B000A41C0C94000091E09093DA038093D9037F
:1001C0001092D8031092D703089508950895AF921E
:1001D000BF92CF92DF92EF92FF920F931F93CF9334
:1001E000DF936C017B018B01040F151FEB015E0196
:1001F000AE18BF08C017D10759F06991D601ED912B
:10020000FC910190F081E02DC6010995892B79F7C9
:10021000C501DF91CF911F910F91FF90EF90DF907B
:10022000CF90BF90AF900895833081F028F4813053
:1002300099F08230A9F008958730A9F08830C9F08C
:100240008430B1F4809180008F7D03C08091800064
:100250008F7780938000089584B58F7784BD08954B
:1002600084B58F7DFBCF8091B0008F778093B000F5
:1002700008958091B0008F7DF9CFCF93DF93282F21
:1002800030E0F901E25CFE4F8491F901E65DFE4F3A
:10029000D491F901EA5EFE4FC491CC23A1F0811103
:1002A0000E941401EC2FF0E0EE0FFF1FEE5FFE4FF7
:1002B000A591B491EC91ED2381E090E009F480E008
:1002C000DF91CF91089580E090E0FACF1F93CF9314
:1002D000DF93282F30E0F901E25CFE4F8491F901B1
:1002E000E65DFE4FD491F901EA5EFE4FC491CC2346
:1002F000A9F0162F81110E941401EC2FF0E0EE0FEF
:10030000FF1FE45FFE4FA591B4918FB7F894EC9175
:10031000111108C0D095DE23DC938FBFDF91CF9100
:100320001F910895DE2BF8CFCF93DF9390E0FC016F
:10033000E65DFE4F24918A5E9E4FFC0184918823E6
:10034000D1F090E0880F991FFC01E850FF4FA59174
:10035000B491FC01E45FFE4FC591D491623071F419
:100360009FB7F8943C91822F809583238C93E881EA
:100370002E2B28839FBFDF91CF9108958FB7F894DC
:10038000EC912E2B2C938FBFF6CF3FB7F894809132
:10039000690290916A02A0916B02B0916C0226B53D
:1003A000A89B05C02F3F19F00196A11DB11D3FBFAD
:1003B000BA2FA92F982F8827BC01CD01620F711D7C
:1003C000811D911D42E0660F771F881F991F4A9576
:1003D000D1F708952FB7F894609165027091660285
:1003E00080916702909168022FBF0895CF92DF92AB
:1003F000EF92FF920F931F93CF93DF93EC018D85C4
:100400000E943D01182F8C85181759F10E94EA01AE
:10041000C880D980EA80FB806C197D098E099F090C
:10042000CC80DD80EE80FF806C157D058E059F05FC
:10043000C0F00E94EA01688379838A839B831C87CA
:10044000188619861A861B8681E08E8781E090E0E7
:10045000DF91CF911F910F91FF90EF90DF90CF90A0
:10046000089588859985AA85BB85892B8A2B8B2B36
:10047000D1F00E94EA01088119812A813B81601B29
:10048000710B820B930B088519852A853B856017B4
:1004900071078207930738F00E94EA016883798325
:1004A0008A839B83CDCF1E8690E080E0D1CF2091C0
:1004B0004102260F3327331F21323105ECF42091FE
:1004C000B103FC0190E080E0243069F082E00895FF
:1004D000A09141022191AC014F5D5D4FA40FB52F5A
:1004E000B11D2C930196861798F380914102680FF5
:1004F0006093410280E0089581E008951092B10375
:1005000081E08093B00310928B0361E082E10E944E
:10051000660161E083E10E946601E9EBF0E0808121
:100520008E7F808380818D7F808388E48093B80074
:1005300085E48093BC00089510926A0310926903C9
:100540001092D8031092D7030E947E0285EE90E0AD
:10055000909368038093670386EE90E09093660320
:10056000809365030895CF93DF9391E090932002E9
:100570008823B9F0C091B800D091BA008091BC0036
:100580008A7B8093BC0060E082E10E94660160E0AB
:1005900083E10E9466010E947E02D093BA00C0935C
:1005A000B800DF91CF910895CF92DF92EF92FF9242
:1005B0000F931F93CF93DF93D091D70381E0D13274
:1005C00008F09CC0C091D9030E94C5016B017C0159
:1005D0008091B10381116CC082E08093B10381E00E
:1005E0008093B0038FEF8093AF031092AE03D0934C
:1005F000AD03A7EBB3E0EDE8F3E080E0D8138DC0E6
:1006000010928C0380918C03CC0FC82BC0938C0369
:1006100080918B03813009F084C010928B030E947B
:10062000C5016B017C0180918C038093BB0080919C
:10063000B3039091B403A091B503B091B603892B95
:100640008A2B8B2BA1F00E94C5010091B30310915E
:10065000B4032091B5033091B6036C197D098E095E
:100660009F09061717072807390708F442C0809129
:10067000BC0083FDD8CF85EC8093BC000E94C501EF
:100680006B017C018091B103823009F44CC08091F0
:10069000AF038F3F09F469C08091AF03803209F442
:1006A00066C08091AF03803309F463C084E026C044
:1006B0008091B3039091B403A091B503B091B603B8
:1006C000892B8A2B8B2B09F483CF0E94C5010091C3
:1006D000B3031091B4032091B5033091B6036C19A4
:1006E0007D098E099F09061717072807390708F0A3
:1006F0006FCF8091B2030E94B30285E01092D803BD
:100700001092D7031092DA03DF91CF911F910F91CE
:10071000FF90EF90DF90CF9008959D9191938F5F20
:100720006DCF85EEA9CF8091B3039091B403A091D2
:10073000B503B091B603892B8A2B8B2B09F4A2CF7A
:100740000E94C5010091B3031091B4032091B50339
:100750003091B6036C197D098E099F09061717079A
:100760002807390708F08ECFC4CF80E0C7CF82E0DA
:10077000C5CF83E0C3CF0895E0916A0380916903F8
:10078000E81730F4F0E0E559FC4F808190E00895DF
:100790008FEF9FEF089590916A03809169032FEF87
:1007A0003FEF981748F4E92FF0E0E559FC4F20811E
:1007B00030E09F5F90936A03C901089580916903B7
:1007C00090916A03891B990B0895CF92DF92EF9263
:1007D000FF920F931F93CF93DF937C01CB018A018C
:1007E0002091DA03222389F0EB016B01C40ED51EA0
:1007F000CC15DD0569F06991D701ED91FC9101906F
:10080000F081E02DC7010995F3CF642F0E945702B4
:10081000C801DF91CF911F910F91FF90EF90DF9072
:10082000CF900895CF93DF931F92CDB7DEB7698342
:100830002091DA032223F9F02091D703203258F0D7
:1008400021E030E0FC013383228390E080E00F90D0
:10085000DF91CF9108958091D803E82FF0E0E9541B
:10086000FC4F998190838F5F8093D8038093D70347
:1008700081E090E0ECCF61E0CE0101960E9457024A
:10088000F7CF682F8BED93E00C941204CF93DF9396
:10089000EC0118820E949C02888180620E94DB0029
:1008A00080E00E9441048FEF0E9441040E94D40224
:1008B000888180620E94DB0081E00E9441048FEF0A
:1008C0000E944104DF91CF910C94D402CF93DF9327
:1008D000D62FC72FFC01808180620E94DB0082E15D
:1008E0000E9441048D2F0E9441048C2F0E944104DC
:1008F000DF91CF910C94D4029C01DC01A058BF4F32
:10090000EC9191E09E0F9C93E20FF32FF11D608319
:1009100097FD1C920895FC0180818076803611F449
:10092000818108958081829586708E5F0895CF922F
:10093000DF92EF92FF920F931F93CF93DF93EC011F
:1009400009E11EE2EE24E394F12C93E0D92ECC24AD
:10095000C394CE010E948B048093D502E091D5020E
:10096000E1501092D4028FEF9091D4029E1768F458
:10097000A091D402AC0FBD2FB11D9C9189279091FD
:10098000D4029F5F9093D402EFCFEC0FFD2FF11DA7
:100990008083F8948091D302813059F48091D202FF
:1009A000811738F01092D30280916F008D7F809371
:1009B0006F0078948091D302813031F48091D2021B
:1009C000843138F2C12CC5CF8091D30281110EC081
:1009D000F89480916F008F7D80936F00B59B09C064
:1009E00080916F00806280936F007894C110B1CFC6
:1009F00056C0E091D002F091D10280819091CF0257
:100A0000970101C0220F9A95EAF7822B808380918B
:100A10008400909185008A5A9C4F9093CE028093D7
:100A2000CD028091CD029091CE0290938900809367
:100A300088007894D093CC02C093CB021092D40259
:100A40001092CA0288818093C902D092D302109278
:100A5000D202B19A80916F00826080936F00809182
:100A6000D3028330E1F38091CA028823B1F0E09190
:100A7000C702F091C802E757FF4F8081918101962C
:100A80009183808383E090E0DF91CF911F910F915C
:100A9000FF90EF90DF90CF9008958091D3021B31AB
:100AA00008F01150015009F052CF809161039091EC
:100AB00062030196909362038093610386E090E065
:100AC000E3CFCF93DF93CDB7DEB760970FB6F8943F
:100AD000DEBF0FBECDBF01979C01220F232F221F27
:100AE000330B31952F708F77611120614111206296
:100AF00090EB99838A832B83CE0101960E94970401
:100B000060960FB6F894DEBF0FBECDBFDF91CF91D8
:100B10000895CF938DE00E943D01C1E0892B09F03B
:100B2000C0E08CE00E943D01E0E0892B09F4E2E0A6
:100B3000CE2B8BE00E943D01E0E0892B09F4E4E03C
:100B4000EC2B0E2E000CFF0BEE5DFE4F8081CF9143
:100B500008958830B8F429E0829FF0011124E65D01
:100B6000FE4F85819681803127E2920758F4883EB6
:100B700023E0920748F48436910540F40A9740F444
:100B800081E0089585E0089584E0089583E0089564
:100B900082E00895089590E080E008958F929F92FA
:100BA000AF92BF920F931F93CF93DF93CDB7DEB772
:100BB000A1970FB6F894DEBF0FBECDBF19A2423089
:100BC00008F44AE08E010F5D1F4F842E912CB12C4A
:100BD000A12CA50194010E94611CE62FB901CA0154
:100BE000EA3044F5E05DD801EE938D01232B242BF0
:100BF000252B79F790E080E0109769F0FD010190D6
:100C00000020E9F73197AF014A1B5B0BBD0186E07D
:100C100094E00E94E700A1960FB6F894DEBF0FBEE5
:100C2000CDBFDF91CF911F910F91BF90AF909F905B
:100C30008F900895E95CD7CF8F929F92AF92BF9229
:100C4000CF92DF92EF92FF921F93CF93DF93D82F33
:100C5000162F0E94C5016B017C018091B1038111A7
:100C600066C0C12F81E08093B1038093B0039FEFF2
:100C70009093AF031092AE03910F9093AD038093C6
:100C80008C0380918C03DD0FD82BD0938C03809143
:100C90008B03813009F082C010928B030E94C50142
:100CA0006B017C0180918C038093BB008091B30326
:100CB0009091B403A091B503B091B603892B8A2B10
:100CC0008B2BA1F00E94C5018090B3039090B403D8
:100CD000A090B503B090B6036C197D098E099F09E9
:100CE00086169706A806B90608F442C08091BC0093
:100CF00083FDD8CF85EC8093BC000E94C5016B01B9
:100D00007C018091B103813009F44AC08091AE0327
:100D1000811710F4C091AE03ADE8B3E0EBE6F3E069
:100D200080E08C1751F19D9191938F5FFACF809164
:100D3000B3039091B403A091B503B091B603892B8E
:100D40008A2B8B2B09F489CF0E94C5018090B303B5
:100D50009090B403A090B503B090B6036C197D09D0
:100D60008E099F0986169706A806B90608F075CF62
:100D70008091B2030E94B302C0E010926A03C09354
:100D800069038C2FDF91CF911F91FF90EF90DF903F
:100D9000CF90BF90AF909F908F90089585EEABCF8E
:100DA0008091B3039091B403A091B503B091B603C1
:100DB000892B8A2B8B2B09F4A4CF0E94C50180902C
:100DC000B3039090B403A090B503B090B6036C1930
:100DD0007D098E099F0986169706A806B90608F0B0
:100DE00090CFC6CFFF920F931F93CF93DF938C01C9
:100DF000C62FDCE0683010F0C850DDE0F8018081DB
:100E000080620E94DB008D2F0E9441040E94D40268
:100E1000F8018081806261E070E090E00E941C0631
:100E20008BED93E00E94CB03F82EF8018081806265
:100E30000E94DB008D2F0E94410481E090E001C000
:100E4000880FCA95EAF78F290E944104DF91CF915C
:100E50001F910F91FF900C94D4020F931F93CF9387
:100E6000DF938C01C62FD2E1683010F0C850D3E177
:100E7000F801808180620E94DB008D2F0E94410476
:100E80000E94D402F8018081806261E070E090E00D
:100E90000E941C068BED93E00E94CB03992702C0B1
:100EA00095958795CA95E2F78170DF91CF911F9153
:100EB0000F910895FF920F931F93CF93DF931F928B
:100EC000CDB7DEB78C016983F42EF80147836087C4
:100ED00085E090E095838483642FCE0101960E9483
:100EE0002D07F80116826F2DCE0101960E942D0765
:100EF000882319F083E0F80186830E94EA01F80153
:100F000060837183828393830F90DF91CF911F91D0
:100F10000F91FF900895EF92FF920F931F93CF933D
:100F2000DF938C01C62FE42E84E1F82ED2E16830E5
:100F300020F0C85095E1F92ED3E1F801808180625C
:100F40000E94DB008F2D0E9441040E94D402F80110
:100F50008081806261E070E090E00E941C068BED71
:100F600093E00E94CB0321E030E001C0220FCA953C
:100F7000EAF7F1E0C82FC22BEF1619F02095C22F27
:100F8000C823F801808180620E94DB008D2F0E94BF
:100F900041048C2F0E944104DF91CF911F910F914A
:100FA000FF90EF900C94D402FC01962F828D8F3F1E
:100FB00031F0603140F4CF014B960C948B07642FD5
:100FC000892F0C94660108950F931F93CF93DF939D
:100FD000C62F8C01055E1F4FD1E062FB442740F90C
:100FE0004D2768E0C8010E948B07C1FB442740F9E8
:100FF0004D2767E0C8010E948B074C2F4095417038
:1010000066E0C801DF91CF911F910F910C948B077F
:10101000FF920F931F93CF93DF938C01C62FF42E73
:10102000D0E0683010F0C850D1E0F80180818062D3
:101030000E94DB008D2F0E9441040E94D402F8011F
:101040008081806261E070E090E00E941C068BED80
:1010500093E00E94CB0321E030E001C0220FCA954B
:10106000EAF7C82FC22BFF2019F02095C22FC82302
:10107000F801808180620E94DB008D2F0E94410474
:101080008C2F0E944104DF91CF911F910F91FF900F
:101090000C94D402603110F40C9408080895CF9396
:1010A000DF93EC0140E06E810E94D40741E06E8145
:1010B000CE010E94D40740E06E81CE010E94D40789
:1010C0008BE891E00197F1F7DF91CF910895AF920E
:1010D000BF92CF92DF92EF92FF920F931F93CF9325
:1010E000DF93EC018A8D8E01095F1F4FC62ED12C34
:1010F0008F3F09F480C07E018BE1E80EF11C8B8DDF
:1011000080620E94DB0082E10E9441040E94D402BE
:101110008B8D806262E070E090E00E941C068BED97
:1011200093E00E94CB03B82E8BED93E00E94CB039B
:1011300060E0782FCB018B29F80130E020E001E05E
:1011400010E04191B801042E02C0660F771F0A9487
:10115000E2F76095709586239723B601022E02C0B0
:10116000759567950A94E2F76170772702C0660F5C
:10117000771F4A95E2F7862B972B2F5F3F4F24303E
:101180003105F9F62E81680102C0CC0CDD1C2A95D0
:10119000E2F7C094D094C822D922B601C7010E94B8
:1011A00066048E81B80102C0660F771F8A95E2F748
:1011B000C62AD72AB601C7010E9466048E81B801EB
:1011C00002C0660F771F8A95E2F7609570956C21D3
:1011D0007D21C7010E9466048BE891E00197F1F739
:1011E000DF91CF911F910F91FF90EF90DF90CF9003
:1011F000BF90AF900895F12CE12C5E01EBE1AE0EB3
:10120000B11CF80181918F019A8D9F3F39F141E026
:10121000682FC5010E944A08A6010E2C02C05595F0
:1012200047950A94E2F74170F80131976081CE0149
:101230000E94D407FFEFEF1AFF0A84E0E816F104DA
:1012400001F7CE01DF91CF911F910F91FF90EF90A9
:10125000DF90CF90BF90AF900C944F0861E00E9458
:101260009401DACFAF92BF92CF92DF92EF92FF92CA
:101270000F931F93CF93DF93EC01F62E6C810E94A6
:10128000D4076D816F3F21F040E0CE010E94D4076A
:101290000F2D10E08C8984FF3BC06E0187E0C80EE3
:1012A000D11CF12CE12C5E01EBE1AE0EB11CF6017C
:1012B00081916F019A8D9F3F39F141E0682FC501FF
:1012C0000E944A08A8010E2C02C0559547950A9421
:1012D000E2F74170F60131976081CE010E94D40798
:1012E000FFEFEF1AFF0A88E0E816F10401F7CE01DC
:1012F000DF91CF911F910F91FF90EF90DF90CF90F2
:10130000BF90AF900C944F0861E00E949401DACF37
:10131000B80184E0759567958A95E1F7CE010E9442
:1013200067086F2DCE01DF91CF911F910F91FF9034
:10133000EF90DF90CF90BF90AF900C94670841E0A2
:101340000E94320981E090E0089541E0682F86E034
:1013500094E00E94320981E090E008950F931F937A
:10136000CF93DF938C01D0E0C0E0F801EC0FFD1FBC
:101370006491662339F041E086E094E00E943209EE
:101380002196F3CFCE01DF91CF911F910F91089558
:1013900040E00C943209CF93DF93CDB7DEB72897A6
:1013A0000FB6F894DEBF0FBECDBF98E0E0E1F1E0EC
:1013B000DE01119601900D929A95E1F790911E042D
:1013C000961708F46FEF262F30E0220F331F41E00D
:1013D00050E04C0F5D1F240F351FF9016081680F2D
:1013E000606886E094E028960FB6F894DEBF0FBEE2
:1013F000CDBFDF91CF910C94C80961E00E94C8096C
:101400008BE39FE10197F1F7089586E094E00E9455
:10141000FD0960E080E00E94CB098CE790E00E942B
:10142000AE0982ED80937802089586E094E00E94F0
:10143000FD0960E080E00E94CB0988E790E00E940F
:10144000AE0988EC80937802089586E094E00E94CB
:10145000FD0960E080E00E94CB0988E690E00E94F0
:10146000AE0982E0809378020895EF92FF920F9385
:101470001F93CF93DF93CDB7DEB760970FB6F89485
:10148000DEBF0FBECDBF7C0160911B046D7F6093FA
:101490001B04686086E094E00E94C80986E094E03E
:1014A0000E94FD0960E080E00E94CB0985EF90E09A
:1014B0000E94AE0960E083E00E94CB09109178029F
:1014C0000DEE010F0A3018F480E20E94A509602F8A
:1014D00070E090E080E04AE00E94CE05145160E0A8
:1014E00086E00E94CB0989EE90E09A83898381EEA1
:1014F00090E09C838B8386ED90E09E838D838BECC4
:1015000090E098878F8381EC90E09A87898789EBB8
:1015100090E09C878B8781EB90E09E878D878BEA9C
:1015200090E0988B8F8787EA90E0183040F4E12FA5
:10153000F0E0EE0FFF1FEC0FFD1F818192810E94F2
:10154000AE0961E080E00E94CB0980917702882398
:1015500019F08EE30E94A509183008F059C089E0FF
:10156000189FF0011124E65DFE4F8781823009F05B
:101570004FC00E2DE7FC03C080E30E94A509003494
:10158000E0F480E30E94A5090032B8F480E30E94F1
:10159000A509003190F480E30E94A509083068F4A1
:1015A00080E30E94A509043040F480E30E94A5096D
:1015B000023018F480E30E94A509602F70E090E0EB
:1015C00080E042E00E94CE0580917702811174C0D4
:1015D000183050F489E0189FF0011124E65DFE4FA9
:1015E0008085882309F46AC061E08EE00E94CB09FF
:1015F00082EF90E060960FB6F894DEBF0FBECDBFCD
:10160000DF91CF911F910F91FF90EF900C94AE0955
:10161000812F0E94A905853058F4843089F08330E9
:10162000B9F08230E1F0B70190E080E04AE0CACF43
:1016300080E1E81687E2F80658F480E30E94A509E5
:1016400088EEE81683E0F80618F480E30E94A50906
:1016500084E6E816F10418F480E30E94A5098AE004
:10166000E816F10400F780E30E94A509DCCF89E0C9
:10167000189FF0011124E65DFE4F808581111EC088
:1016800061E0809174020E94CB0960911B04862F57
:10169000826080931B046A6086E094E060960FB6D7
:1016A000F894DEBF0FBECDBFDF91CF911F910F9198
:1016B000FF90EF900C94C8091830C8F260960FB6EE
:1016C000F894DEBF0FBECDBFDF91CF911F910F9178
:1016D000FF90EF90089586E094E00E94FD0960E09D
:1016E00080E00E94CB0989E990E00E94AE0961E0A8
:1016F00080E00E94CB0980E990E00E94AE096091F1
:101700000C0170910D0190E080E04AE00C94CE0550
:101710000F931F93CF93DF930E949C0280E20E945D
:10172000DB000E94D40281112AC180917A028111CA
:1017300008C18FE494E00E944604809120048F3F0A
:1017400009F457C00E949C0281E294E00E94460482
:1017500041E068E081E294E00E94080841E066E030
:1017600081E294E00E94080841E067E081E294E0B1
:101770000E94080867E086E094E00E94E407609118
:101780000B04662329F041E081E294E00E944A08BC
:1017900041E060910A0481E294E00E944A0841E03D
:1017A00060910C0481E294E00E944A080DE014E08C
:1017B000C6E0D4E0F80161918F0141E081E294E05C
:1017C0000E944A08F4E001311F07A1F70BE014E082
:1017D00040E06F8581E294E00E944A086F856031A5
:1017E00020F481E294E00E94F20621960C171D0776
:1017F00079F780911A04886080931A0482E08093BC
:101800001E0410921F048BE39DE00197F1F740E066
:1018100060910A0486E094E00E94D40740E0609161
:101820000C0486E094E00E94D40760910B046F3FA3
:1018300029F040E086E094E00E94D40760911A0409
:1018400064FD81C063E086E094E00E946708CBE419
:10185000D6E4CE010197F1F763E086E094E00E94C0
:1018600067082197F1F763E086E094E00E9467083B
:1018700083E592E00197F1F762E086E094E00E9450
:10188000670860911A04606286E094E00E94C809CB
:1018900084E080931B046CE086E094E00E94C80919
:1018A00086E094E00E94FD0982E080931C0466E0DB
:1018B00086E094E00E94C80940E065E08FE494E08F
:1018C0000E94080865E08FE494E00E94F20644E07C
:1018D00050E060914F0482E294E00E945A0743E096
:1018E00050E060914F0484E394E00E945A0742E084
:1018F00050E060914F048DE394E00E945A0741E06C
:1019000050E060914F048BE294E00E945A0750E04F
:1019100040E060914F0486E494E00E945A07809171
:101920000E0190910F010F9711F40E946B0B109212
:10193000790210927802109276021092750210923B
:10194000770281E01DC0606286E094E00E94C809D1
:101950008BE496E40197F1F760911A04606286E0E7
:1019600094E00E94C80983E592E00197F1F7609145
:101970001A04606286E094E00E94C80982CF80E089
:1019800080937A02DF91CF911F910F9108951F9359
:10199000CF93DF93C0917502D09176022196D093B8
:1019A0007602C093750261E080E00E94CB09C038E6
:1019B000D10538F086E890E0DF91CF911F910C942B
:1019C000AE09C0917502D09176028C2F0E94DB0087
:1019D0000E94D402182F882311F08430D1F48DE8AE
:1019E00090E00E94AE09DD27C031D10518F480E3F4
:1019F0000E94A509BE0190E080E040E10E94CE0572
:101A000080E2143009F48FE3DF91CF911F910C94A1
:101A1000A5092196D0937602C0937502C8CF85EDB3
:101A20008093BC008091B3039091B403A091B5035F
:101A3000B091B6030796A11DB11D23E0B695A795F9
:101A4000979587952A95D1F72091BC0024FD03C076
:101A50001092B10308954091B3035091B403609183
:101A6000B5037091B603452B462B472B69F30097BE
:101A7000A105B10541F02AE22A95F1F700C00197CE
:101A8000A109B109E1CF8091B2030C94B3022F9266
:101A90003F924F925F926F927F928F929F92AF92FE
:101AA000BF92CF92DF92EF92FF920F931F93CF934B
:101AB000DF9300D000D0CDB7DEB79C838B837C0151
:101AC00041E8E40EF11C6C0150E8C50ED11C8C01FC
:101AD0000E571F4F8D579F4F2C018B819C818C5728
:101AE0009F4F4C0122242A94AB80BC8097E8A90E1A
:101AF000B11CEB81FC81EB57FF4FFA83E983F701BF
:101B00008081F6019081891709F4BAC0EB81FC81CC
:101B1000E80FF11D308037FE6DC0F8019081891704
:101B200039F0F501208131812F5F3F4F31832083D0
:101B3000F8018083F2012082832D8076F4018036C3
:101B400009F441C0832D829586708E5F8083F801F1
:101B50002081F4018081820F9927991F8138910596
:101B60009CF180E8682E621AF894F6014081F80131
:101B70008081841708F044C0F42FF81B8F2FF601E2
:101B800080837894F80160814617E8F5712C50E065
:101B90006B817C81CB01860D971D0E94891CF80109
:101BA00060814B815C81460F511DBA01A3018B817D
:101BB0009C810E94891CF7018081F8019081891B1A
:101BC000F7018083F8011082F70190819F5F908375
:101BD000F8018081392F381B97FF02C0F70110826E
:101BE000F2012081F40190819317A9F03226F201CD
:101BF000308285CFF40180818111E6CF3082A7CF7A
:101C0000862D840FBCCF461B50E08B819C81860FB4
:101C1000911DBC01CCCF32122AC04B815C81480F90
:101C2000511DCA01E981FA81408151814F5F5F4FA7
:101C300051834083F7013081F80130830097B1F27E
:101C40000F900F900F900F90DF91CF911F910F91F8
:101C5000FF90EF90DF90CF90BF90AF909F908F90CC
:101C60007F906F905F904F903F902F900895F50177
:101C70008081918101969183808390E080E0DACF2A
:101C800090E080E0DDCF8F929F92AF92BF92CF9293
:101C9000DF92EF92FF920F931F93CF93DF93C09049
:101CA000C402D090C502F601D581D370D061882ED0
:101CB000E89487F887FDDC5F962EE89497F867FD37
:101CC000D85FA42EE894A7F811E147FF10E1B22EE7
:101CD000E894B7F827FD1E5FF02EE894F7F807FDAB
:101CE0001C5F0E2D0F77E7FC185FF601C281838120
:101CF000C82788E0C8278681C8278781C827C027CA
:101D0000CF25CB25CA25C925C825CD27C12765EEF6
:101D100080E991E00E947C0460E180E991E00E940A
:101D20007C04F601628180E991E00E947C04F60166
:101D3000638180E991E00E947C0462E080E991E0A7
:101D40000E947C046D2F80E991E00E947C04F601E2
:101D5000668180E991E00E947C04F601678180E958
:101D600091E00E947C04682D80E991E00E947C044F
:101D7000692D80E991E00E947C04612F80E991E067
:101D80000E947C046A2D80E991E00E947C046B2D06
:101D900080E991E00E947C046F2D80E991E00E942F
:101DA0007C04602F80E991E00E947C046C2F6F77A7
:101DB00080E991E00E947C046FEF80E991E00E944D
:101DC0007C0480E991E00E94470D9093C5028093C6
:101DD000C402009711F00E94970481E0DF91CF9137
:101DE0001F910F91FF90EF90DF90CF90BF90AF9039
:101DF0009F908F9008950F931F93CF93DF93E82FB9
:101E0000F0E099E0899FD0011124A65DBE4F1596A0
:101E10002D913C9126173707C0F08B01C82FEE0F8C
:101E2000FF1FE050FF4F71836083CF5FCC0FD0E086
:101E3000612FCE010E94531C602FCE010196DF91CD
:101E4000CF911F910F910C94531CDF91CF911F9153
:101E50000F910895883010F40C94FB0E0895CF93E1
:101E6000DF936DE490E080E00E94531C6AE581E01E
:101E700090E00E94531CCAE2D1E069817A81888196
:101E80000E942A0F299681E0C237D807B1F7DF9167
:101E9000CF9108951F920F920FB60F9211242F9396
:101EA0003F938F939F93AF93BF93809165029091DF
:101EB0006602A0916702B09168023091640223E04B
:101EC000230F2D3758F50196A11DB11D20936402F3
:101ED0008093650290936602A0936702B0936802B4
:101EE0008091690290916A02A0916B02B0916C029C
:101EF0000196A11DB11D8093690290936A02A0937F
:101F00006B02B0936C02BF91AF919F918F913F9103
:101F10002F910F900FBE0F901F90189526E8230F5A
:101F20000296A11DB11DD2CF1F920F920FB60F9234
:101F300011242F933F934F935F936F937F938F93CE
:101F40009F93AF93BF93EF93FF938091B900887FE6
:101F5000803609F44AC0F0F5883209F4A7C018F5B4
:101F6000803109F49BC0B8F4882309F4F9C08830A3
:101F700009F494C0FF91EF91BF91AF919F918F9120
:101F80007F916F915F914F913F912F910F900FBE75
:101F90000F901F901895883109F488C0803251F74E
:101FA0008093AF0314C0803409F49DC040F48033A3
:101FB000B9F38833F9F68093AF0385ECB0C0803570
:101FC00009F485C0883509F496C0883499F60E94D2
:101FD0000F0DD0CF883909F48CC038F5883729F037
:101FE00050F4883611F0803729F683E08093B103EE
:101FF0001092630257C0883809F47BC0803919F009
:10200000803809F0B7CF80916302803208F071C048
:10201000E091630281E08E0F809363028091BB00A8
:10202000F0E0ED5BFD4F80833DC0803B39F0E0F494
:10203000803A09F479C0883A09F09CCF84E0809313
:10204000B1031092420210924102E0916703F091B5
:10205000680309958091410281110FC081E080934E
:1020600041021092210209C0803C09F4A6CF883CAD
:1020700009F4A3CF883B09F07DCFE091420281E0D3
:102080008E0F80934202F0E0EF5DFD4F80818093E0
:10209000BB00909142028091410229C080918C0343
:1020A0008093BB0085EC8093BC0064CF9091AE031D
:1020B0008091AD03981758F5E091AE0381E08E0F43
:1020C0008093AE03F0E0E357FC4F8081E9CFE091CD
:1020D000AE0381E08E0F8093AE038091BB00F0E0F1
:1020E000E357FC4F80839091AE038091AD03981726
:1020F000C8F285E8D8CFE091AE0381E08E0F8093DF
:10210000AE038091BB00F0E0E357FC4F80838091E9
:10211000B00381115CCF81E080938B0384EA8093CC
:10212000BC001092B10326CF85EC8093BC001092C6
:10213000B10380916302803230F4E0916302F0E0F9
:10214000ED5BFD4F10826091630270E0E0916503EA
:10215000F091660383E492E00995109263020ACF3E
:102160001092AF0334CF1F920F920FB60F9211242B
:10217000DF92EF92FF920F931F932F933F934F9312
:102180005F936F937F938F939F93AF93BF93CF93FF
:10219000DF93EF93FF93B19A8091CD029091CE029D
:1021A00080549C4F9093CE028093CD028091CD02BB
:1021B0009091CE02909389008093880080911F02B5
:1021C000882371F010921F02189B26C081E0809333
:1021D000D302B59A80916F00806280936F001CC01B
:1021E0008091D2028F5F8093D2028091D30284309B
:1021F00009F043C08091D202893030F58091C90244
:1022000090E0959587958093C902189B05C08091B1
:10221000C90280688093C902FF91EF91DF91CF914D
:10222000BF91AF919F918F917F916F915F914F91EE
:102230003F912F911F910F91FF90EF90DF900F90A2
:102240000FBE0F901F901895B59A80916F00806215
:1022500080936F008091C7029091C802189929C09D
:10226000FC01E957FF4F8081918101969183808322
:102270001092D20281E08093D3028091D302833006
:10228000E9F5E091D002F091D10280812091CF0256
:1022900033B190E0022E02C0959587950A94E2F73B
:1022A000832780FD11C01092D20282E08093D30276
:1022B00025C06091C9020E947C0480E090E0892BD7
:1022C000B9F20E940000D4CF8091D202893008F088
:1022D00043C03091C90281E090E001C0880F2A9587
:1022E000EAF7908130FF36C0809589238083809102
:1022F000C90290E0959587958093C9028091D30299
:10230000823099F48091D20281118EC0E091D00286
:10231000F091D10280819091CF0221E030E001C0A4
:10232000220F9A95EAF7822B80838091D302813025
:1023300009F072CF8091D202882309F44ACF8091AC
:10234000D202883308F468CF1092D30280916F00D4
:102350008D7F43CF892BCACF8091D202893059F427
:10236000308181E090E001C0880F2A95EAF78095DE
:1023700083238083C3CF8091D4028F5F8093D40264
:102380009091D502891750F51092D2028091CB021C
:102390009091CC02A091D402A80FB92FB11D8C91BD
:1023A0008093C902808141E050E001C0440F2A952A
:1023B000EAF7842B808380918400909185008A5A6B
:1023C0009C4F9093CE028093CD028091CD0290914C
:1023D000CE02909389008093880090CF81E0809313
:1023E000CA020091CB021091CC02E090C702F0909B
:1023F000C802C8010E948B04D82ED0E0C0E0CD15E1
:1024000048F4F801EC0FFD1F6081C7010E947C04B5
:102410002196F5CF80E090E0892B11F00E9400001A
:102420001092D20281E042CF8091D2028F3008F424
:102430007CCFE091D002F091D10220813091CF0287
:1024400081E090E001C0880F3A95EAF780958223F9
:1024500080831092D20281E08093D302E091C70280
:10246000F091C802E357FF4F8081918101969183DB
:1024700080835BCF1F920F920FB60F9211248F9320
:102480009F93EF93FF93B59AEFE6F0E080818F7D05
:102490008083809186009091870080529E4F909318
:1024A000CE028093CD028091CD029091CE02909386
:1024B000890080938800B19A80818260808384E063
:1024C0008093D3021092D20281E080931F02FF9189
:1024D000EF919F918F910F900FBE0F901F901895C5
:1024E000883028F529E0829FF0011124E65DFE4F37
:1024F00085819681803127E29207C8F4883E23E0E7
:102500009207B8F484369105B0F40A97B0F481E0EC
:1025100090917402891B990B8530910580F4880F86
:10252000991FFC01E85EFE4F80819181089585E04E
:10253000EFCF84E0EDCF83E0EBCF82E0E9CF90E016
:1025400080E00895CF92DF92EF92FF921F93CF9396
:10255000DF93EBEDF3E01382128288EE93E0A0E0CC
:10256000B0E084839583A683B78386E791E0918367
:102570008083C0E5D4E086E0888380E8898388E0B2
:102580008A831B821C821D821E8261E086E00E947B
:1025900094010E94EA016B837C838D839E83E6E035
:1025A000F4E013821282128E148A8FE084838EE00C
:1025B00085838DE086838CE087838BE080878AE04B
:1025C000818789E08287178681E0808B82E0818B1A
:1025D00083E0828B14E0138B88E891E09183808301
:1025E000148E158E168E178E8AE090E091A380A32C
:1025F00012A213A215A216A217A210A692A781A733
:1026000013A614A616A617A610AA11AA93AB82ABFE
:1026100014AA15AA17AA10AE11AE12AE94AF83AFCA
:1026200015AE16AE1092460410924704109248045C
:102630001092490490934B0480934A0410924C04E6
:1026400010924D048BE180930504C6EFD3E084E142
:10265000C82ED12CE12CF12CCC82DD82EE82FF82BF
:10266000188619861A861B860E94EA016883798378
:102670008A839B8385E00E943D018C8785E08D875E
:10268000C7EED3E0CC82DD82EE82FF821886198607
:102690001A861B860E94EA01688379838A839B835A
:1026A00084E00E943D018C871D87DF91CF911F91AF
:1026B000FF90EF90DF90CF900895CF93DF93CDB749
:1026C000DEB761970FB6F894DEBF0FBECDBF78942A
:1026D00084B5826084BD84B5816084BD85B5826027
:1026E00085BD85B5816085BD80916E0081608093D8
:1026F0006E00109281008091810082608093810041
:102700008091810081608093810080918000816050
:10271000809380008091B10084608093B1008091AB
:10272000B00081608093B00080917A0084608093D3
:102730007A0080917A00826080937A0080917A009A
:10274000816080937A0080917A00806880937A001B
:102750001092C10010E0E12E11E0F12E02E0C02E37
:10276000D12CC6010E944B1C182FC60101960E9455
:102770004B1C212F30E0322F2227820F932F911DE7
:10278000D7018D939D937D01B2E0CB0ED11CE2E188
:10279000CE16D10431F780910C0190910D01029772
:1027A00028F462E070E086E00E94FB0E80910E014A
:1027B00090910F010F9711F00E942F0F0E94880B2C
:1027C000E6EDF2E08FE8DF011D928A95E9F761E01E
:1027D00087E00E949401E1E3F1E02491EDE1F1E072
:1027E000E491F0E0EE0FFF1FE45FFE4F459154913E
:1027F00080E091E031E0291741F08F5F932F082EA0
:1028000001C0990F0A94EAF7F6CF5093D102409392
:10281000D0028093CF0286ED92E09093C80280931D
:10282000C7022098E091D002F091D102208130912E
:10283000CF0281E090E001C0880F3A95EAF78095D9
:10284000822380831092800081E080938100109227
:10285000D302B59A80916F00806280936F0080915F
:102860008100887F81608093810083E88983CE0125
:1028700001960E94970461E083E00E94940161E068
:102880008AE00E94940162E084E00E94940162E088
:1028900085E00E94940162E08DE00E94940162E074
:1028A0008CE00E94940162E08BE00E9494011092FF
:1028B0007B0210927C021092C6021092800210924B
:1028C0008102109282021092830210927F02109273
:1028D0007E0258E0A52EB12C88248394912C70E0C0
:1028E000272E70E0372E40E0642E40E0742E0E94C8
:1028F000EA01009153041091540420915504309141
:102900005604601B710B820B930B653171058105B9
:10291000910508F455C00E94EA0160935304709336
:10292000540480935504909356041091510480915F
:102930005204113C20F081958093520402C0103261
:10294000D0F380915204180F109351040091500459
:1029500061E0802F0E949401111105C060E0802F7A
:102960000E9466012DC01F3F11F461E0F8CFE02FF7
:10297000F0E0E25CFE4FE491E33009F4D3C040F4B0
:10298000E130D1F0E23009F4C8C017FDEECFE6CF58
:10299000E73009F4D3C0E83009F4D8C0E430A9F72F
:1029A00080918000806280938000812F90E09093DE
:1029B0008B0080938A0004C084B5806884BD17BDF5
:1029C0000E94EA010091700210917102209172023E
:1029D00030917302601B710B820B930B6E37710584
:1029E0008105910528F10E94EA01609370027093BD
:1029F0007102809372029093730290916F0281E052
:102A0000982790936F02992399F090916E029827DE
:102A100090936E02992361F090916D0298279093A4
:102A20006D02992329F090917D02892780937D0280
:102A30000E94880B80917A028130D1F565E08FE4A5
:102A400094E00E942D07B0E28B9FC0011124809575
:102A5000909561E085FD60E086E094E00E94E407E7
:102A600025E1E22E24E0F22E10E000E03FE1D32E3B
:102A7000C02EF70161917F0180E0603120F481E296
:102A800094E00E942D0790E002C0880F991FCA941D
:102A9000E2F780959095D8220F5F1F4F0530110502
:102AA00039F780917902D11059C0811110927902C1
:102AB00086ED92E00E94470DFC019093C502809341
:102AC000C402892B09F4C4C47181272F30E06281CC
:102AD000462F50E0CA019695982F8827979587959D
:102AE00080789770872B932BA081A23B09F438C282
:102AF0000196A13B09F407C508F020C2A33809F4E8
:102B0000F0C4A03B09F4F5C4A23809F039C261143D
:102B1000710409F435C280E0E9C484B5806284BDE3
:102B200018BD4ECF80918000806880938000812FF7
:102B300090E0909389008093880042CF8091B0000C
:102B400080688093B0001093B3003ACF8091B000BA
:102B500080628093B0001093B40032CFD81609F48D
:102B6000A7CFD092790280917802811105C0D2FE60
:102B70009FCF0E94250A9CCF823061F4D3FE05C00E
:102B80000E946B0B1092780293CFD1FE91CF0E94DE
:102B9000150A8ECF843108F4A2C1909105049817CC
:102BA00008F49DC11CEE180FD0FE4FC000917702B3
:102BB000002309F47DCF6091750270917602E12EB9
:102BC000F12C1630E9F4672BA9F40E942F0FF701BE
:102BD000EE0FFF1FE050FF4F808191810E94350A68
:102BE00061E08AE00E94CB09002309F438C689E538
:102BF00091E037C662E070E086E00E94FB0EE7CF0E
:102C000089E08E9DF0018F9DF00D1124E65DFE4F51
:102C1000838194816817790708F42BC68581968192
:102C20008617970708F425C68085811122C6812F53
:102C30000E942A0F183058F28FEF9FEF0E94350A3A
:102C400061E08AE00E94CB09D2CFD4FE0EC0809111
:102C50007702882309F49BCF10927702E12F183076
:102C600008F4C2C08FEF9FEF2DC1D1FE57C08091F5
:102C7000770281111FC01830E8F4E12FF0E029E05D
:102C8000129FD0011124A65DBE4F18968C91811120
:102C900011C0EE0FFF1FE050FF4F80819181909394
:102CA00076028093750221E02093770210927402DD
:102CB0000E94350A80917702882309F4F9CE0091A9
:102CC00074020F5F00937402183048F439E0139FC8
:102CD000F0011124E65DFE4F8781823061F0812F83
:102CE0000E94A90590E001960817190631F481E0C9
:102CF0008093740202C00930D1F361E080917402C4
:102D00000E94CB0960911B04862F826080931B0474
:102D10006A6086E094E00E94C809CACED3FE6CC007
:102D200020917702222309F452C0C0907502D090FE
:102D300076028FEF9FEF1830E8F5E12EF12C49E095
:102D4000149FF0011124E65DFE4F0781023080F4EC
:102D5000812F0E9470128C0D9D1D9093760280939E
:102D600075028C159D0520F4D0927602C0927502F2
:102D70002091750230917602023091F480917402B4
:102D8000D501A81BB109F40102C0EE0FFF1FAA95DF
:102D9000E2F7CF01822B932B9093760280937502FA
:102DA00089E08E9DF0018F9DF00D1124E65DFE4FB0
:102DB0008581968120917502309176028217930762
:102DC00008F07CC0D0927602C092750277C08F5F07
:102DD00080937802891710F090937802E09178023E
:102DE000E451E83008F03ECFF0E0EE0FFF1FE05076
:102DF000FF4F8081918166C0D2FE3FC590917702DE
:102E0000992309F462C0C0907502D090760290E0D8
:102E100080E0183008F040C0E12EF12C29E0129F2C
:102E2000F0011124E65DFE4F0781023088F4812F06
:102E30000E947012A601481B590B509376024093D2
:102E40007502C416D50620F4D0927602C09275029F
:102E500020917502309176020230A1F480917402C3
:102E6000D501A81BB109F40102C0EE0FFF1FAA95FE
:102E7000E2F7CF0180959095822393239093760279
:102E80008093750289E08E9DF0018F9DF00D1124D5
:102E9000E65DFE4F83819481209175023091760228
:102EA0002817390720F4D0927602C09275028091DB
:102EB000750290917602019609F484CF8091750293
:102EC000909176020E94350AF3CD8150809378026A
:102ED000843108F083CF84E1809378027FCF883CEF
:102EE00089F4D2FE03C00E94050AE2CDD4FC41CE93
:102EF000D1FEDECD84E18093780280910001909133
:102F00000101E0CF823D09F0BEC4D3FC40CED4FC29
:102F100030CED1FECDCD83ED8093780260E088E0A5
:102F20000E94CB0980E20E94A5092FEF3FEF30936A
:102F30007602209375020E94C70CBACDAC3B09F40F
:102F400004C3A03D09F40BC3A43BD1F47C33C1F40A
:102F5000E0E0F0E0EF2BA1F08CE30E94000010C055
:102F600022E030E065FD02C021E030E021143104B0
:102F700039F0880F991F6071820F931F0E94000023
:102F80000091C4021091C502C8010E948B048031D7
:102F900009F05EC2D8018C91853E09F059C21496A1
:102FA0008C911497823009F053C216962C91169783
:102FB00080910001909101012817190609F0E3C1E1
:102FC00017962C91179780910E0190910F01281759
:102FD000190609F0D8C115968C91159790E09C01BF
:102FE00044E0220F331F4A95E1F7207819964C9060
:102FF0001997E89447F8242930E0322F222765E01A
:10300000880F991F6A95E1F7807818964C90E8949C
:1030100047F8482A420E532E511C6201B1E0CB1AE8
:10302000D108C98AEC2DE83050F429E0C29EF001A5
:103030001124E65DFE4F31E08781813009F030E0F8
:10304000D80113968C918130F1F5B8E0CB16D104FC
:10305000D0F5F801828590E063856F77AC015695D5
:10306000542F442757954795262F240F332309F4CF
:10307000E2C2A6E0880F991FAA95E1F780786485DF
:103080006F77862B682F70E0762F6627620F711D91
:103090008C2D0E942A0FE091C402F091C502838119
:1030A00080648383F9894FEFF83030F4F601EE0F36
:1030B000FF1FE050FF4F4081E12C00E020E060E086
:1030C000842D0E94430EE091C402F091C5028381D9
:1030D0008230B9F428E0C216D10498F482E48383E4
:1030E00039894FEF383030F4F601EE0FFF1FE05012
:1030F000FF4F4081E12C00E020E060E0842D0E9441
:10310000430EE091C402F091C5028381833009F03F
:103110004BC048E0C416D10408F046C0628570E098
:10312000CB019695982F8827979587959927238582
:103130002F77280F392F311D46E0660F771F4A95EC
:10314000E1F76078772784858F77682B59898FEF2F
:103150009FEF583038F4F601EE0FFF1FE050FF4F9D
:103160008081918126233723232B09F466C2682BA3
:10317000792B8C2D0E942A0FE091C402F091C50298
:1031800083818064838379894FEF783030F4F6014E
:10319000EE0FFF1FE050FF4F4081E12C00E020E0E8
:1031A00060E0842D0E94430EE091C402F091C502BC
:1031B0008381853009F07FC088E0C816D10408F00B
:1031C0007AC0828590E08C0146E0000F111F4A957D
:1031D000E1F7007864856F77062BBC0155E0660F38
:1031E000771F5A95E1F7162F107865856F77162BA4
:1031F000BC01A4E0660F771FAA95E1F7A62FA0787F
:10320000EA2E66856F77E62A63856F779695982F05
:10321000882797958795680F70E08C2D0E942A0F5C
:10322000FF24F394FC0C602F70E08F2D0E942A0F76
:1032300002E00C0D612F70E0802F0E942A0F13E036
:103240001C0D6E2D70E0812F0E942A0FE091C402A8
:10325000F091C502838180648383B9894FEFB830D0
:1032600030F4F601EE0FFF1FE050FF4F4081E7E022
:103270002FEFEF1538F0EF2DF0E0EE0FFF1FE050CD
:10328000FF4F2081083008F0DDC1E02FF0E0EE0FA5
:10329000FF1FE050FF4F0081EE24EA94183038F40D
:1032A000E12FF0E0EE0FFF1FE050FF4FE08060E005
:1032B000842D0E94430EE091C402F091C5028381E7
:1032C0008630B1F528E0C216D10490F586E48383F8
:1032D00039894FEF383030F4F601EE0FFF1FE05020
:1032E000FF4F4081E1E0EC0D2FEFE83030F4F0E0EB
:1032F000EE0FFF1FE050FF4F2081E2E0EC0D0FEFDB
:10330000E83030F4F0E0EE0FFF1FE050FF4F008197
:10331000E3E0EC0DEE24EA94E83030F4F0E0EE0F58
:10332000FF1FE050FF4FE08060E0842D0E94430EBD
:10333000E091C402F091C5028381883061F488E491
:10334000838340910E01E42E0091000120E06DE0A6
:103350008AE30E94430EE091C402F091C50283818A
:103360008F3089F40E942F0FE091C402F091C502C2
:10337000838180648383E12C00E020E040E0652DC0
:10338000842D0E94430EE091C402F091C502868113
:10339000811112C0878181110FC08381873061F450
:1033A00087E4838340910E01E42E0091000120E028
:1033B0006DE08AE30E94430EE091C402F091C502E1
:1033C0008481823009F044C026818091000190916F
:1033D000010128171906E1F59781809106019813DC
:1033E00037C083818134A1F5858190E09C0144E060
:1033F000220F331F4A95E1F7207831853F77232B41
:1034000030E0322F222765E0880F991F6A95E1F797
:10341000807890859F77892B820F932F911D209123
:10342000080128171906A1F4128503850E94890551
:103430009091C602953061F440E8149F90011124E8
:10344000102F1F77120F1813FFC086E08093C6025B
:10345000009104011091050187EE93E00E94F601AE
:10346000780151E0E51AF108E11478E0F70668F414
:103470008091F503882349F08091F303811105C001
:1034800041E061E0C8010E94610586EF93E00E947F
:10349000F601E11488E0F80668F4809104048823BA
:1034A00049F080910204811105C040E061E0C8014B
:1034B0000E9461050E948905882309F4E0C0E0911B
:1034C000C602E83008F0DBC0F0E0E759F54E0C9496
:1034D000831C261B371B871B991BAB1BDA1BF01B9E
:1034E000021C81E06114710409F44ACD0E940000BD
:1034F00047CD20E030E0232B09F442CD40726071CB
:103500000E9400003DCD66FF0BC040E050E0452B1F
:1035100009F436CD462F407260710E94000030CD14
:1035200020910401309105012115310509F428CDC0
:103530008217930709F024CD607260937C0281E0CA
:10354000611180E080937B021BCDA0E0B0E0AB2B4B
:1035500009F416CD407260710E94000011CD7076A2
:10356000703221F07036C1F171110ACD80E090E027
:10357000892B09F405CDC9019695982F8827979531
:10358000879580789F70840F951FA5E035952795C6
:10359000AA95E1F72170019633814481E42FF0E090
:1035A000AF013D3731F0A0E83A9FA00111244E0F42
:1035B0005F1F6F7081F1623081F1643081F166309C
:1035C00081F1683081F16A3081F16C3081F16E30C7
:1035D00081F10E940000D4CC20E030E0232B09F4DC
:1035E000CFCC0381802F807D803109F0C9CCE4806D
:1035F000FF24F39411E041E0802F8F2109F040E097
:103600002E2D2F21FF0C612F80E80E9400001F5FEC
:10361000153089F7B5CC61E4DCCF62E4DACF63E43E
:10362000D8CF64E4D6CF65E4D4CF66E4D2CF67E4E4
:10363000D0CF68E4CECF80E025CD6095709568232B
:10364000792397CD0FEF28CE87E000CF84E00E944A
:103650003D01892BA1F080910404882381F08091A1
:10366000020481110CC081E08093C60208C085E08D
:103670000E943D01892B09F43FC01092C6021091AF
:103680007F02112309F4D1C00E94EA01C090800298
:10369000D0908102E0908202F09083026C197D0943
:1036A0008E099F09693E73408105910568F01150AC
:1036B00010937F020E94EA0160938002709381025E
:1036C000809382029093830210917D02612F83E0A8
:1036D0000E94660180917E02882311F081E0182704
:1036E000612F8AE00E94660180E090E0892B09F456
:1036F000FEC80E940000F7C88091F503882309F4F2
:10370000BECF8091F3038111BACF82E0ADCF84E0C8
:103710000E943D01892B09F0B0CF809104048823D9
:1037200009F4ADCF80910204882309F4A8CF83E087
:103730009BCF85E00E943D01892B09F49ECF8091AB
:10374000F503882309F49BCF8091F303882309F4C0
:1037500096CF84E089CFE4E8F2E0F093C502E093ED
:10376000C40280E4DF011D928A95E9F7809100018F
:103770008093860291E09093870280938A028091E1
:10378000060180938B020E948905E12C00E020E075
:10379000482F60E0809108010E94430E0E94EA01D8
:1037A00060938002709381028093820290938302DF
:1037B00085E05ACF0E94EA010091800210918102B7
:1037C0002091820230918302601B710B820B930B5C
:1037D000613D77408105910508F451CF87E044CFE2
:1037E00085E080937F020E94EA01609380027093DB
:1037F000810280938202909383021092C6021092FB
:103800007E023DCF85E080937F020E94EA016093B3
:1038100080027093810280938202909383021092BF
:10382000C60281E080937E022ACF10927E0261E080
:1038300080917C02811101C060E083E00E946601FA
:1038400061E080917B0281114CCF60E04ACF8FEF25
:103850009FEF0E94350A61E08AE00E94CB0982E571
:1038600091E00E94AE0961E0809174020E94CB0950
:103870001FC9183060F700E0AAC9883C09F436CBAC
:10388000823D09F444CB833D09F012C9D4FC2BCB13
:10389000D2FE0EC950CBF999FECF92BD81BDF89AE8
:1038A000992780B50895262FF999FECF1FBA92BDAA
:1038B00081BD20BD0FB6F894FA9AF99A0FBE019611
:1038C0000895A1E21A2EAA1BBB1BFD010DC0AA1F61
:1038D000BB1FEE1FFF1FA217B307E407F50720F079
:1038E000A21BB30BE40BF50B661F771F881F991FF4
:1038F0001A9469F760957095809590959B01AC013D
:10390000BD01CF010895EE0FFF1F0590F491E02D4A
:1039100009946817790768F4FB01DC01E40FF51FCF
:10392000A40FB51F02C002900E9241505040D8F72C
:1039300008950C949B1CFB01DC0102C001900D92C8
:0C39400041505040D8F70895F894FFCF94
:10394C00FFFFFFFFFFFFFFFFFFFFFFFFFFFFFFFF7B
:10395C00000040001400540001000A006400E80359
:10396C001027000A0F14191E232800010001007EE5
:10397C00000000010000000000000001029F020096
:10398C000000080000030B000B000B0000010402F8
:10399C000002000200000105000000000000000110
:1039AC000602000000FF000000070F000F000F00D0
:1039BC000001000000001204E503CB05BB03DE038D
:1039CC00CB03BC03000000009F09E700CB05CA0530
:00000001FF
