:100000000C9485020C94AD020C94AD020C94AD02DC
:100010000C94AD020C94AD020C94AD020C94AD02A4
:100020000C94AD020C948F160C9459160C94D214A7
:100030000C94AD020C94AD020C94AD020C94AD0284
:100040000C9469130C94AD020C94AD020C94AD02A7
:100050000C94AD020C94AD020C94AD020C94AD0264
:100060000C94B3130C94AD02AE2000B0C800104045
:10007000813FA1A6A83FA4D301D5F0D922DA12DB93
:10008000208D14426574726965623F00496E626535
:1000900074726965626E61686D653F004661737474
:1000A000436C6F636B0043563F004932432D5363EB
:1000B000616E3F0066657274696700307800444382
:1000C000430054616B740056657273696F6E200053
:1000D000556872656E7A656E7472616C65002D2D5F
:1000E0003A2D2D20202031303A0044657669646530
:1000F000722031303A0046432D536C6176652053AF
:100100007461747573003F3F3F00416472204C4E30
:100110002D302F3100436F6E6669672031004366D2
:10012000672046432D536C760053572D49440056A3
:10013000657273696F6E0052657365727665005201
:1001400065736572766500526573657276650057F2
:1001500061697454696D650044657669642E313057
:100160003A6E00446576696365494400726F0045E4
:1001700076656E004F646420002D313A002D2D2DE0
:100180000053746F707065643A2052756E3F2000A2
:1001900052756E6E696E673A2053746F703F004DF2
:1001A000696E757465005374756E646500000000B7
:1001B0000000000000002F00000000070007000002
:1001C000147F147F1400242A7F2A1200626408130B
:1001D0002300364955225000000503000000001C92
:1001E000224100000041221C000014083E081400B7
:1001F00008083E0808000000A06000000808080881
:1002000008000060600000002010080402003E5159
:1002100049453E0000427F4000004261514946008E
:100220002141454B31001814127F100027454545E8
:1002300039003C4A4949300001710905030036493B
:1002400049493600064949291E000036360000009B
:100250000056360000000814224100001414141443
:10026000140000412214080002015109060032491D
:1002700059513E007C1211127C007F4949493600D9
:100280003E41414122007F4141221C007F494949B2
:1002900041007F09090901003E4149497A007F0870
:1002A00008087F0000417F4100002040413F0100DD
:1002B0007F08142241007F40404040007F020C0232
:1002C0007F007F0408107F003E4141413E007F09CE
:1002D000090906003E4151215E007F0919294600A7
:1002E00046494949310001017F0101003F4040403A
:1002F0003F001F2040201F003F4038403F00631454
:10030000081463000708700807006151494543005D
:10031000007F41410000552A552A55000041417F88
:10032000000004020102040040404040400000017F
:10033000020400002054545478007F48444438009C
:10034000384444442000384444487F0038545454CE
:100350001800087E0901020018A4A4A47C007F08EC
:100360000404780000447D4000004080847D00004B
:100370007F102844000000417F4000007C041804E6
:1003800078007C0804047800384444443800FC2495
:100390002424180018242418FC007C0804040800F5
:1003A000485454542000043F444020003C40402026
:1003B0007C001C2040201C003C4030403C00442875
:1003C000102844001CA0A0A07C004464544C4400AD
:1003D000000877410000000063000000004177083A
:1003E00000000804080804003A4040207A003D401C
:1003F00040403D002154545479007D1211127D007B
:100400003944444439003D4242423D000205020065
:1004100000007E01495573007C1010081C0001018A
:10042000010101FC5FDC60E461C462F663D664B084
:1004300065DF66B567AF68FFFF4576656E004F64A0
:1004400064200073746F726564006661696C656432
:100450000073746F72656400000000080002010000
:100460000003040700000000000000000086227E58
:100470006DD24620290B2170104080523F065B4F01
:10048000666D7D077F6F090D614843D35F777C39C7
:100490005E79713D76301E753815373F736B336D5D
:1004A000783E3E2A766E5B39640F2308025F7C58E3
:1004B0005E7B716F74100C753014545C7367506DF3
:1004C000781C1C14766E5B46307001000000000042
:1004D000250028002B0000000000240027002A002F
:1004E00004040404040404040202020202020303DA
:1004F00003030303010204081020408001020408E2
:100500001020010204081020B81711241FBECFEFDD
:10051000D8E0DEBFCDBF24E0A6EBB1E001C01D9264
:10052000A338B207E1F711E0A0E0B1E0ECE8F0E5B4
:1005300002C005900D92A63BB107D9F712E0C5E8BD
:10054000D2E004C02197FE010E94F726C438D107EB
:10055000C9F70E946B180C9444280C94000090E09A
:10056000FC01EC50FB4F249180529B4FFC01849185
:10057000882399F090E0880F991FFC01EA52FB4F05
:10058000A591B491FC01E453FB4F859194918FB7F1
:10059000F894EC91E22BEC938FBF089508950895A1
:1005A0008530A8F4262F2052330BF901E459FB4F74
:1005B000E491A82FB0E0AA0FBB1FAF5ABB4F30E8A1
:1005C000439FA0011124E42BF0E0ED93FC930895E8
:1005D00090E0FC01E85AFB4F2491FC01EC50FB4FEA
:1005E0003491FC01E052FB4FE491EE23C9F0222349
:1005F00039F0233001F1A8F4213019F1223029F12A
:10060000F0E0EE0FFF1FE453FB4FA591B4918FB7BD
:10061000F894EC91611126C030953E233C938FBF36
:1006200008952730A9F02830C9F0243049F7809187
:1006300080008F7D03C0809180008F778093800041
:10064000DFCF84B58F7784BDDBCF84B58F7DFBCFC3
:100650008091B0008F778093B000D2CF8091B000AE
:100660008F7DF9CF3E2BDACF3FB7F89480915F02B0
:1006700090916002A0916102B091620226B5A89BA0
:1006800005C02F3F19F00196A11DB11D3FBFBA2F24
:10069000A92F982F8827BC01CD01620F711D811DE4
:1006A000911D42E0660F771F881F991F4A95D1F769
:1006B00008952FB7F89460915B0270915C0280916D
:1006C0005D0290915E022FBF0895AF92BF92CF92CC
:1006D000DF92EF92FF920F931F93CF93DF936C0102
:1006E0007B018B01040F151FEB015E01AE18BF08E3
:1006F000C017D10759F06991D601ED91FC91019095
:10070000F081E02DC6010995892B79F7C501DF91AC
:10071000CF911F910F91FF90EF90DF90CF90BF90FE
:10072000AF90089584E88093BC0080E491E020912C
:10073000BC0027FF03C08091BB0008950197B9F763
:100740008091630280618093630280E008958093CA
:10075000BB0084E88093BC0080E491E02091BC0061
:1007600027FD08950197D1F78091630284608093FB
:100770006302089594EA9093BC0020E431E09091E4
:10078000BC0097FF0CC08093BB0084E88093BC0042
:1007900080E491E02091BC0027FF0AC00895215019
:1007A000310969F780916302816080936302089543
:1007B000019781F7809163028260F7CF1F93CF93F7
:1007C000DF93EC01142F4F83688785E090E09D83D1
:1007D0008C838FEF662349F081E0860F0E94BA0375
:1007E0000E94920394E99093BC0090E080959095CC
:1007F00002C0959587951A95E2F780FD0CC080E0C0
:100800008E830E945903688379838A839B83DF9157
:10081000CF911F91089583E0F3CFEF92FF920F9352
:100820001F93CF93DF937C018B0188E70E94BA036B
:1008300080E40E94A703E7010E0D1F1DC017D1071A
:1008400051F484E98093BC00DF91CF911F910F9107
:10085000FF90EF90089589910E94A703EFCFEF9248
:10086000FF920F931F93CF93DF93182FE92E062F3C
:1008700088E70E94BA0380E00E94A703F12EC12FEF
:10088000DE2D89910E94A7038C2F8F198017C8F342
:1008900084E98093BC00DF91CF911F910F91FF906D
:1008A000EF900895CF93DF9300D000D01F92CDB783
:1008B000DEB7E9E0F2E0808361836055698391E20D
:1008C0009A8392E0980F9F709B8390E0029624E0B9
:1008D000959587952A95E1F7805F8C838FE78D83C7
:1008E00065E0CE0101960E942F040F900F900F90AB
:1008F0000F900F90DF91CF910895813820F46830E8
:1009000010F40C9452040895982F990F890F880FB2
:100910000C947D040F931F93CF93DF93893009F4D8
:1009200059C0C82F8A30A0F5883009F43EC08091A4
:1009300009028A3708F07AC0C03208F477C0C05282
:10094000E4E2F4E0E491CE1708F075C088E70E9475
:10095000BA0380E40E94A703F6E0CF9FE0011124D0
:1009600010E000E0C355DE4FFE01E00FF11F84915F
:100970000E94A7030F5F1F4F06301105A9F784E9F6
:100980008093BC00809109028A5F809309024EC067
:100990008A3051F160910A0280E0CD3041F6DF915A
:1009A000CF911F910F910C947D0480910902609169
:1009B0000A0281500E94840480E20E948A0480918D
:1009C000090260910A028150DF91CF911F910F912E
:1009D0000C9484048091090260910A028D3010F415
:1009E0008C5FF2CF8EE7DBCF60910A026730F0F4C4
:1009F0006F5F80910902E8CF9F5F292F30E0220FBF
:100A0000331FA9014C5D5B4FFA0184918F3F71F058
:100A1000F901ED5DFB4FE491E052FF0BEC17FD0790
:100A200059F7FA01C491CF3F09F090CFDF91CF91F0
:100A30001F910F91089590E0D0E0DFCF1F93CF93E7
:100A4000DF93182FEC019C2F911B8991882319F0BB
:100A50000E948A04F8CF892F90E0DF91CF911F91F7
:100A60000895CF92DF92EF92FF920F931F93CF934F
:100A7000DF93CDB7DEB7A1970FB6F894DEBF0FBEF8
:100A8000CDBF282F30E050E040E019A28E010F5D6D
:100A90001F4F6B01770FEE08FF08CA01B901A701CC
:100AA00096010E94B626605DF80162938F012115C0
:100AB00031054105510521F0EC17FD0771F78E0155
:100AC000C8010E941E05A1960FB6F894DEBF0FBEA6
:100AD000CDBFDF91CF911F910F91FF90EF90DF90ED
:100AE000CF900895CF92DF92EF92FF920F931F93D2
:100AF000CF93DF93CDB7DEB7A1970FB6F894DEBFE3
:100B00000FBECDBF6B01BC0190E080E019A28E0149
:100B10000F5D1F4F0D2C000CEE08FF08A70196017A
:100B20000E94B626E62FCA01B901EA30F4F4E05D6E
:100B3000D801EE938D01232B242B252B21F0AC170C
:100B4000BD0761F78E01C8010E941E05A1960FB670
:100B5000F894DEBF0FBECDBFDF91CF911F910F91F3
:100B6000FF90EF90DF90CF900895E95CE1CF1F9365
:100B7000CF93DF93182FEC019C2F911BFE018491E2
:100B80002196882319F00E948A04F6CF892F90E0DD
:100B9000DF91CF911F910895EF92FF920F931F93D2
:100BA000CF93DF9300D000D01F92CDB7DEB7E82EF1
:100BB000062FF72E962FE62FF72F1E2F191B849145
:100BC00031968111FACF6E2D0E947D042AEF210308
:100BD000C001112480589F4F97FD019695958795E8
:100BE00021E22A832FE72D8320EB2E0D298322E09B
:100BF000280F2F702B839927029634E095958795BF
:100C00003A95E1F78F70805F8C8365E0CE010196A5
:100C10000E942F04802F9F2D0E94B7050F900F90E8
:100C20000F900F900F90DF91CF911F910F91FF9038
:100C3000EF9008951092B90088E48093B80084E0A2
:100C40008093BC000895809348040E941A0688E7A8
:100C50000E94BA0380916302882311F090E0089506
:100C600080914804882361F00E941A06809148040C
:100C70000E94BA038091630290E0982F882708951C
:100C800090E080E0089590E080E00895089520913C
:100C9000E601260F3327331F21323105ECF4209172
:100CA000D103FC0190E080E0243069F082E00895F7
:100CB000A091E6012191AC014A535E4FA40FB52FDC
:100CC000B11D2C930196861798F38091E601680F69
:100CD0006093E60180E0089581E008951092D103C9
:100CE00081E08093D0031092AB0361E082E10E9427
:100CF000E80261E083E10E94E802E9EBF0E0808134
:100D00008E7F808380818D7F808388E48093B8008C
:100D100085E48093BC0008951092AA031092A90361
:100D20001092D8031092FA030E946E068EEC92E0A5
:100D30009093A8038093A7038FEC92E09093A6036F
:100D40008093A5030895CF93DF9391E09093C5011D
:100D50008823B9F0C091B800D091BA008091BC004E
:100D60008A7B8093BC0060E082E10E94E80260E040
:100D700083E10E94E8020E946E06D093BA00C093FD
:100D8000B800DF91CF9108958F929F92AF92BF925A
:100D9000CF92DF92EF92FF920F931F93CF93DF9347
:100DA000D091FA03D13208F0D7C0182FC091F903BF
:100DB0000E9434036B017C018091D10381116BC0CF
:100DC00082E08093D1031093D0038FEF8093CF0301
:100DD0001092CE03D093CD03A9EDB3E0EDEAF3E09A
:100DE00080E0D81391C01092AC038091AC03CC0F7B
:100DF000C82BC093AC038091AB03813009F088C04D
:100E00001092AB030E9434036B017C018091AC0310
:100E10008093BB008091D3039091D403A091D5031C
:100E2000B091D603892B8A2B8B2BA1F00E9434031F
:100E30000091D3031091D4032091D5033091D603B0
:100E40006C197D098E099F090617170728073907AE
:100E500008F442C08091BC0083FDD8CF85EC80931C
:100E6000BC000E9434036B017C018091D10382306D
:100E700009F450C08091CF038F3F09F46FC0809177
:100E8000CF03803209F46CC08091CF03803309F422
:100E900069C084E026C08091D3039091D403A091CF
:100EA000D503B091D603892B8A2B8B2B09F484CFE1
:100EB0000E9434038090D3039090D403A090D50374
:100EC000B090D6036C197D098E099F098616970686
:100ED000A806B90608F070CF8091D2030E94A3063D
:100EE00085E01092D8031092FA031092D703DF9195
:100EF000CF911F910F91FF90EF90DF90CF90BF9017
:100F0000AF909F908F9008959D9191938F5F69CF3F
:100F100085EEA5CF8091D3039091D403A091D50302
:100F2000B091D603892B8A2B8B2B09F49ECF0E947C
:100F300034030091D3031091D4032091D503309151
:100F4000D6036C197D098E099F0906171707280714
:100F5000390708F08ACFC0CF81E0C3CF80E0C1CF8E
:100F600082E0BFCF83E0BDCFCF93DF93C0E7D4E073
:100F70008A83AE81BF81988121E02093D70390932B
:100F8000F9031092D8031092FA03ED91FC91119796
:100F90000190F081E02D682FCD01099581E00E943C
:100FA000C40690E09D838C83DF91CF910895CF9309
:100FB000DF93EC018B818823A1F0888191E09093ED
:100FC000D7038093F9031092D8031092FA0381E0BB
:100FD0000E94C40691E0811190E0892FDF91CF91AA
:100FE00008950E948C0681E08B83CE010E94D70772
:100FF000982F8111E2CFF1CF0895E091AA0380915B
:10100000A903E81730F4F0E0EB5DFD4F808190E03C
:1010100008958FEF9FEF08959091AA038091A903FF
:101020002FEF3FEF981748F4E92FF0E0EB5DFD4F0D
:10103000208130E09F5F9093AA03C90108958091B9
:10104000A9039091AA03891B990B0895CF92DF926F
:10105000EF92FF920F931F93CF93DF937C01CB010D
:101060008A012091D703222389F0EB016B01C40E82
:10107000D51ECC15DD0569F06991D701ED91FC9184
:101080000190F081E02DC7010995F3CF642F0E94F4
:101090004706C801DF91CF911F910F91FF90EF900C
:1010A000DF90CF900895CF93DF931F92CDB7DEB737
:1010B00069832091D7032223F9F02091FA0320328B
:1010C00058F021E030E0FC013383228390E080E09F
:1010D0000F90DF91CF9108958091D803E82FF0E031
:1010E000E752FC4F998190838F5F8093D803809360
:1010F000FA0381E090E0ECCF61E0CE0101960E941E
:101100004706F7CF90E080E008959C01DC01A058ED
:10111000BF4FEC9191E09E0F9C93E20FF32FF11DD6
:10112000608397FD1C920895FC0180818076803653
:1011300011F4818108958081829586708E5F089573
:10114000CF92DF92EF92FF920F931F93CF93DF9393
:10115000EC0109E11EE2EE24E394F12C93E0D92E98
:10116000CC24C394CE010E94940880931503E0918F
:101170001503E150109214038FEF909114039E1702
:1011800068F4A0911403AC0FBD2FB11D9C91892769
:10119000909114039F5F90931403EFCFEC0FFD2FFA
:1011A000F11D8083F89480911303813059F480916C
:1011B0001203811738F01092130380916F008D7F16
:1011C00080936F00789480911303813031F4809183
:1011D0001203843138F2C12CC5CF809113038111E1
:1011E0000EC0F89480916F008F7D80936F00B59B47
:1011F00009C080916F00806280936F007894C11065
:10120000B1CF56C0E0911003F0911103808190910D
:101210000F03970101C0220F9A95EAF7822B808372
:1012200080918400909185008A5A9C4F90930E0380
:1012300080930D0380910D0390910E03909389008C
:10124000809388007894D0930C03C0930B03109282
:10125000140310920A03888180930903D092130328
:1012600010921203B19A80916F00826080936F0098
:10127000809113038330E1F380910A038823B1F056
:10128000E0910703F0910803E757FF4F80819181B8
:1012900001969183808383E090E0DF91CF911F914D
:1012A0000F91FF90EF90DF90CF90089580911303FE
:1012B0001B3108F01150015009F052CF8091A10369
:1012C0009091A20301969093A2038093A10386E0DC
:1012D00090E0E3CFCF93DF93CDB7DEB760970FB643
:1012E000F894DEBF0FBECDBF8BEB89838BE78A837B
:1012F0001B82CE0101960E94A00860960FB6F8945A
:10130000DEBF0FBECDBFDF91CF9108952091BF0109
:10131000FC0120838091C001FB0180838091C20188
:1013200008950F931F93CF93DF9300D0CDB7DEB70F
:1013300065E080E00E9452048091260182FF3BC05C
:101340008091C20181110BC08DE791E00E94B70529
:101350000F900F90DF91CF911F910F910895009101
:101360004B021091C30180910C020E948A0489E70C
:1013700091E00E94B705802F0E948A048DE20E94AE
:101380008A0480E3111181E30E948A048DE20E94A5
:101390008A041A821982BE016F5F7F4FCE010296C6
:1013A0000E948609898180FD03C08FE691E0CECF3F
:1013B00084E791E0CBCF80915402882319F080E933
:1013C00091E0C4CF81E891E0C1CF1F93CF93DF9329
:1013D00000D0CDB7DEB7182F19821A82BE016E5F1A
:1013E0007F4FCE0101960E948609898111118A8161
:1013F0000F900F90DF91CF911F910895CF93DF93BE
:10140000DC0114962D913C912417350710F490E0DF
:101410001EC0EA01FC0181819281208131E030937C
:10142000D7032093F9031092D8031092FA03DC013A
:10143000ED91FC910280F381E02D0995C817D90741
:1014400031F781E00E94C40691E08111E0CF892F3D
:10145000DF91CF910895CF93DF93CDB7DEB761973A
:101460000FB6F894DEBF0FBECDBF1982A1E5B4E080
:10147000FE013196BF019C9111968C9111971296A5
:1014800091838283329684E0A136B807A1F741E1C7
:1014900050E080916104909162040E94FE0961967F
:1014A0000FB6F894DEBF0FBECDBFDF91CF91089588
:1014B0000F931F93CF93DF9300D0CDB7DEB764E0D7
:1014C00080E00E945204BE016E5F7F4FCE01019604
:1014D0000E9486098981873128F5082F10E08A301B
:1014E00018F480E30E948A046AE070E0C8010E9458
:1014F00072058AE30E948A048A818C33C0F4082F23
:1015000010E08A3018F480E30E948A046AE070E0F8
:10151000C8010E9472050F900F90DF91CF911F912B
:101520000F91089583EB91E00E941E05E2CF83EBBB
:1015300091E00E941E05EFCFCF93DF93CDB7DEB7CA
:1015400060970FB6F894DEBF0FBECDBF80912A0121
:1015500090912B019C01215031092F3F374010F011
:1015600090E080E00197811528E09207F8F49C0153
:10157000220F232F221F330B31958F779091540226
:10158000911112C0206191EB99838A832B83CE0144
:1015900001960E94A00860960FB6F894DEBF0FBEB9
:1015A000CDBFDF91CF9108952063EDCF85E090E02E
:1015B000F2CF3F924F925F926F927F928F929F9263
:1015C000AF92BF92CF92DF92EF92FF920F931F9351
:1015D000CF93DF93C82F362E142FD22F81E0809324
:1015E000C20180910C0290910D02019690930D0220
:1015F00080930C02C0934B020093C30181E0C111A0
:1016000001C080E080934C020E945903609347021E
:10161000709348028093490290934A02011104C0DA
:101620008091260183FF9BC0CC2309F498C0809150
:10163000C001D81709F48DC080912601909127012F
:1016400080729927D0FD04C0892B21F082E003C06D
:10165000892BE1F381E080934D028091460288233B
:1016600029F080914D028C6F0E94B40780910B028B
:10167000882309F46EC06D2F70E084E6189F600D1A
:10168000711D1124072E000C880B990B0E946924F0
:101690002B013C0120E030E040E05FE30E949D250B
:1016A0000E947B266B017C01812C912C30E8A32EBB
:1016B0003FE3B32E00E080E1C81687E2D806E104DC
:1016C000F104E0F0015020E030E040E251E4C501D7
:1016D000B4010E9409264B015C01AC019B01C301CE
:1016E000B2010E94C82420E030E040E05FE30E94A5
:1016F0009D250E947B266B017C01DDCF20E030E040
:1017000040E85FE3C501B4010E946224712CC4E08B
:101710002AE0822E912CA12CB12C87FF32C080E4CC
:1017200090E09093520480935104909354048093DA
:101730005304909358048093570490935A048093D1
:10174000590482E090E090935604809355040E94DF
:101750002B0A1093BF01D093C0013092BE01DF91DC
:10176000CF911F910F91FF90EF90DF90CF90BF909E
:10177000AF909F908F907F906F905F904F903F9031
:101780000895C114D104E104F10411F4071588F19E
:10179000002319F0442443940711412C5C2EC150BE
:1017A0006C2E84E0851558F0C701B601A50194019F
:1017B0000E94B626605D442D852D0E94D002C23065
:1017C00069F4CEEFC50D84E0861540F0E62DF0E01B
:1017D000EE0FFF1FEF5AFB4F11821082C701B601B7
:1017E000A50194010E94B62669017A017394C9CFBC
:1017F000C150C7FDA6CFC530DCF7EC2FF0E0EE0FEF
:10180000FF1FEF5AFB4F11821082F2CF0F93082F68
:1018100020916D02235480916F0298E9980F8836C9
:1018200018F468E10E94AA26492F60917002809105
:101830006A020E94D90A0F9108950F93AC0190910A
:10184000260192FF30C080914B02882361F12091E4
:101850002302309124022E5833404217530718F5C3
:10186000509324024093230293FF1DC02091C00196
:1018700091E0920F9093C0019C3358F09091BF017A
:101880002B532093C00121E0290F283170F42093BD
:10189000BF010091C3012091C0014091BF0160913F
:1018A000BE010E94D90A0F91089597519093BF01EC
:1018B000F0CF0F93FC01DB018C918F5F8C3370F4C0
:1018C0008C93809118016AE00E94AA2601E02C9175
:1018D000408160E00E94D90A0F9108951C92808196
:1018E0008F5F883110F48083ECCF1082EACFEF92C3
:1018F000FF921F93CF93DF93CDB7DEB7C058D109C6
:101900000FB6F894DEBF0FBECDBFCE0101967C01AD
:1019100080E8F70111928A95E9F710E0612F80E0E5
:101920000E947D0460E870E0C7010E940D041F5F03
:101930001830A1F760E080E00E945204C058DF4FE9
:101940000FB6F894DEBF0FBECDBFDF91CF911F91D0
:10195000FF90EF9008951F93CF93DF930E94770C31
:1019600060E080E00E94520488E70E94BA0380E4AD
:101970000E94A7038FEF0E94A703CEE781E00E9499
:10198000A703C150D9F78FEF0E94A70384E9809382
:10199000BC00C1E014E96C2F80E00E947D0488E760
:1019A0000E94BA0380E40E94A7038FEF0E94A7035E
:1019B0001093BC006C2F88E70E947D0488E70E948A
:1019C000BA0380E40E94A703D7E080E00E94A70347
:1019D000D150D9F78FEF0E94A7031093BC00CF5FBF
:1019E000C730C9F667E080E00E94520488E70E9491
:1019F000BA0380E40E94A7038FEF0E94A703CEE7FB
:101A000080E80E94A703C150D9F78FEF0E94A70377
:101A100084E98093BC0060ED70E082E00E94CC0518
:101A200067EC70E084E00E94CC056AE070E0809191
:101A30002201909123010E947205809128016EEB92
:101A400070E084FF02C062EC70E085E00E94CC058B
:101A500010925502DF91CF911F9108950E94770C4B
:101A600060E080E00E94520460ED70E080E00C9441
:101A7000CC05CF93DF93CDB7DEB76C970FB6F89454
:101A8000DEBF0FBECDBF82E40E942306892B09F47E
:101A900090C08AE50E942306892B09F08CC081E062
:101AA0009091C101911183C0882319F08AE5809338
:101AB00048040E941A06E8E6F0E0DE0111969E0155
:101AC000245E3F4FCD0144914D9331962A173B0739
:101AD000D1F72FEA2C8F6CE10E942F040E94770C23
:101AE00080914804882309F44CC00E941A06809112
:101AF00048040E94BA038FEF0E94A70384E98093F1
:101B0000BC0050E040E06091480480E094E00E9416
:101B1000DE0341E050E06091480489E094E00E94D7
:101B2000DE0342E050E06091480482E194E00E94CC
:101B3000DE0343E050E0609148048BE194E00E94B2
:101B4000DE0344E050E06091480484E294E00E94A7
:101B5000DE0345E050E0609148048DE294E00E948D
:101B6000DE0346E050E06091480486E394E00E9482
:101B7000DE0347E050E0609148048FE394E00E9468
:101B8000DE0380912401909125010B9711F40E94AE
:101B9000AB0C1092180210921E0210925502109275
:101BA0001A021092190210921B021092170281E081
:101BB00003C080E075CF80E08093C1016C960FB6C2
:101BC000F894DEBF0FBECDBFDF91CF910895AF92E5
:101BD000BF92CF92DF92EF92FF920F931F93CF931A
:101BE000DF93CDB7DEB7D82EC62E142FEDB6FEB6D6
:101BF000282F240F3327331F263131053CF537E0DA
:101C0000361720F18D2D0E948404012F000F010F43
:101C1000000F10E08DB79EB7801B910B0FB6F894A4
:101C20009EBF0FBE8DBF2DB73EB72F5F3F4F5901EF
:101C3000A80170E060E0C9010E943428B801C50124
:101C40000E940D046C2D8D2D0E9484040FB6F89413
:101C5000FEBE0FBEEDBE0FB6F894FEBE0FBEEDBECB
:101C6000DF91CF911F910F91FF90EF90DF90CF9078
:101C7000BF90AF90089545E1682F80E00C94E70D88
:101C800084E00E943B0E85E00E943B0E86E00E94AD
:101C90003B0E87E00C943B0ECF93DF93D82F0E942E
:101CA000400E64E080E00E945204C091550286EA32
:101CB00091E0CC3321F0CD3321F48FE991E00E9403
:101CC000B70565E080E00E94520480911B028823E2
:101CD00051F08EE30E948A046AE070E08D2FDF915C
:101CE000CF910C94310584EC8C0F0E94E509D82F1C
:101CF000F3CF63E08AE20E94520480E20E948A04E9
:101D00000E94400E64E080E00E945204809126010F
:101D100082FF06C086EF90E00E94B7050C949109FF
:101D20008091280181FD09C08AEE90E00E94B705EC
:101D3000809118010E948A04F1CF8EED90E0F6CFD9
:101D40000F931F93CF93C82F8B010E943B0E6C2FD4
:101D500080E00E947D04C801CF911F910F910C94E7
:101D6000B7050E94400E63E084E50E94520480E2C1
:101D70000E948A046AEA70E084E00E94A00E82ED6C
:101D80008093550208950E94400E63E084E50E940E
:101D9000520480E20E948A0466EA70E084E00E94B5
:101DA000A00E88EC8093550208950E942E0D6CE9D8
:101DB00070E083E00E94A00E87E0809355021092AD
:101DC0001B0208950E942E0D6CE870E083E00E94D3
:101DD000A00E82E08093550208950E942E0D63E8C4
:101DE00070E083E00E94A00E81E080935502089588
:101DF0000F931F93CF93DF9391E090934904CBE42B
:101E0000D4E088830CE414E085E0F801808345E1A8
:101E100066E080E00E94E70DF80160816F5F8881D5
:101E20000E9484048FEA0E948A04F80160818881FC
:101E3000DF91CF911F910F910C948404EF92FF9248
:101E40000F931F93CF93DF93CDB7DEB766970FB68F
:101E5000F894DEBF0FBECDBF082FE92E10924904C3
:101E600060914C046F5F45E180E00E94E70D64E003
:101E70008CE00E94520480E20E948A0464E082E1C5
:101E80000E945204109155029DEEF92EF10E89E048
:101E90008F1518F080E20E948A046AE070E08F2DAE
:101EA0000E94310514514FE064E086E00E94E70D86
:101EB00064E084E20E94520483E691E09A8389837D
:101EC00088E591E09C838B838FE491E09E838D83F2
:101ED00087E491E098878F838FE391E09A878987E1
:101EE00087E391E09C878B878FE291E09E878D87C7
:101EF00089E291E0988B8F878EE191E09A8B898BB4
:101F000085E191E09C8B8B8B8AE091E09E8B8D8BA1
:101F100086E091E01B3040F4E12FF0E0EE0FFF1F70
:101F2000EC0FFD1F818192810E94B70585E00E9420
:101F30003B0E65E080E00E945204F0901B02FF20FF
:101F400019F08EE30E948A041B3090F589E0189FF7
:101F5000F0011124EE5CFE4F8781823049F507FDC8
:101F600003C080E30E948A040034E0F480E30E940E
:101F70008A040032B8F480E30E948A04003190F4AD
:101F800080E30E948A04083068F480E30E948A0497
:101F9000043040F480E30E948A04023018F480E3A5
:101FA0000E948A0462E070E0802F0E94310506C022
:101FB0006AE070E0802F9E2D0E947205F11013C020
:101FC0001B3048F489E0189FF0011124EE5CFE4FAD
:101FD0008085882341F065E084E50E9452048CE608
:101FE00091E00E94B70580911702882381F08091CB
:101FF000180266960FB6F894DEBF0FBECDBFDF9114
:10200000CF911F910F91FF90EF900C94F80E669670
:102010000FB6F894DEBF0FBECDBFDF91CF911F91F9
:102020000F91FF90EF90089585ED8093BC00809113
:10203000D3039091D403A091D503B091D603079612
:10204000A11DB11D23E0B695A795979587952A9573
:10205000D1F72091BC0024FD03C01092D103089554
:102060004091D3035091D4036091D5037091D6036E
:10207000452B462B472B69F30097A105B10541F08D
:102080002AE22A95F1F700C00197A109B109E1CF31
:102090008091D2030C94A3062F923F924F925F92AD
:1020A0006F927F928F929F92AF92BF92CF92DF9268
:1020B000EF92FF920F931F93CF93DF9300D000D046
:1020C000CDB7DEB79C838B837C0141E8E40EF11C25
:1020D0006C0150E8C50ED11C8C010E571F4F8D5757
:1020E0009F4F2C018B819C818C579F4F4C01222448
:1020F0002A94AB80BC8097E8A90EB11CEB81FC81CF
:10210000EB57FF4FFA83E983F7018081F601908155
:10211000891709F4BAC0EB81FC81E80FF11D30800A
:1021200037FE6DC0F8019081891739F0F5012081E3
:1021300031812F5F3F4F31832083F8018083F2018B
:102140002082832D8076F401803609F441C0832DEE
:10215000829586708E5F8083F8012081F4018081F2
:10216000820F9927991F813891059CF180E8682E8C
:10217000621AF894F6014081F8018081841708F012
:1021800044C0F42FF81B8F2FF60180837894F80158
:1021900060814617E8F5712C50E06B817C81CB01A2
:1021A000860D971D0E942228F80160814B815C8179
:1021B000460F511DBA01A3018B819C810E942228E8
:1021C000F7018081F8019081891BF7018083F80174
:1021D0001082F70190819F5F9083F8018081392FF1
:1021E000381B97FF02C0F7011082F2012081F40131
:1021F00090819317A9F03226F201308285CFF40145
:1022000080818111E6CF3082A7CF862D840FBCCF8D
:10221000461B50E08B819C81860F911DBC01CCCF69
:1022200032122AC04B815C81480F511DCA01E981DD
:10223000FA81408151814F5F5F4F51834083F701A5
:102240003081F80130830097B1F20F900F900F901A
:102250000F90DF91CF911F910F91FF90EF90DF9042
:10226000CF90BF90AF909F908F907F906F905F9036
:102270004F903F902F900895F501808191810196B4
:102280009183808390E080E0DACF90E080E0DDCF42
:10229000EF92FF920F931F93CF93DF93D82F162FB8
:1022A000842F6AE00E94AA26E82E1D531F77D8517A
:1022B000DF77F090160100912401CF2DC02768E34D
:1022C000C627CD27C827C12767EE88E792E00E947E
:1022D00085086EE088E792E00E9485086BE788E752
:1022E00092E00E9485086E2D88E792E00E948508A2
:1022F0006DE688E792E00E94850868E788E792E04B
:102300000E948508612F88E792E00E94850860E0BE
:1023100088E792E00E9485086D2F88E792E00E948E
:10232000850860E088E792E00E94850860E488E71D
:1023300092E00E9485086F2D88E792E00E94850850
:10234000602F88E792E00E9485086C2F6F7788E7FE
:1023500092E00E9485086FEF88E792E00E9485086E
:1023600080912801909129018C0100781127C5E006
:10237000D0E087FF02C0C3E0D0E088E792E00E948F
:102380004C109093770280937602009739F00E9468
:10239000A008EC01012B11F0C3E0D0E0CE01DF91E9
:1023A000CF911F910F91FF90EF900895CF92DF9200
:1023B000FF920F931F93CF93DF9300D0CDB7DEB77B
:1023C000F090540219821A82BE016E5F7F4FCE01D7
:1023D00001960E94860940E0F11002C04091180168
:1023E0006A8189810E9448118C010E94590360937F
:1023F0004E0270934F02809350029093510280914D
:102400002801909129016C0120E8C222DD2487FD7A
:1024100003C00330110559F481E0F826F09254020C
:102420000E949C0A8C01CD2811F003E010E0C80145
:102430000F900F90DF91CF911F910F91FF90DF9040
:10244000CF9008956623B1F020912A0130912B019D
:10245000B901615071096F3F774060F482179307AB
:1024600049F481E0411101C080E090915402891348
:102470000C94D61108956F927F928F929F92AF9293
:10248000BF92CF92DF92EF92FF920F931F93CF9361
:10249000DF93E0917602F0917702D581D370978037
:1024A000868073806280A82EE894A7F887FD9AC082
:1024B000D061B62EE894B7F867FDD860C42EE894D2
:1024C000C7F811E147FF10E1D22EE894D7F827FDB5
:1024D0001260F02EE894F7F807FD14600E2D0F77C8
:1024E000E7FC1860C92DC82588E0C827C725C62580
:1024F000C027CF25CD25CC25CB25CA25CD27C12763
:1025000065EE88E792E00E94850860E188E792E046
:102510000E948508662D88E792E00E948508672D55
:1025200088E792E00E94850862E088E792E00E94D6
:1025300085086D2F88E792E00E948508682D88E75E
:1025400092E00E948508692D88E792E00E94850844
:102550006A2D88E792E00E9485086B2D88E792E05B
:102560000E948508612F88E792E00E9485086C2D03
:1025700088E792E00E9485086D2D88E792E00E942E
:1025800085086F2D88E792E00E948508602F88E714
:1025900092E00E9485086C2F6F7788E792E00E9496
:1025A00085086FEF88E792E00E94850888E792E04F
:1025B0000E944C109093770280937602009711F05E
:1025C0000E94A00881E0DF91CF911F910F91FF90B1
:1025D000EF90DF90CF90BF90AF909F908F907F90C3
:1025E0006F900895D46165CF0F931F93CF93DF93BE
:1025F000E82FF0E099E0899FD0011124AE5CBE4F36
:1026000015962D913C9126173707C0F08B01C82FE6
:10261000EE0FFF1FEA5EFE4F71836083CF5FCC0F2A
:10262000D0E0612FCE010E948E25602FCE01019651
:10263000DF91CF911F910F910C948E25DF91CF9157
:102640001F910F9108958B3010F40C94F41208959B
:10265000CF93DF936DE490E080E00E948E256AE5E1
:1026600081E090E00E948E25C2E3D1E069817A8109
:1026700088810E942313299681E0C539D807B1F7D4
:10268000DF91CF910895863061F4672B21F40E9489
:10269000281381E008956BE070E086E00E94F41258
:1026A000F8CF99E0899FF0011124EE5CFE4F238161
:1026B00034816217730758F0258136812617370752
:1026C00030F09085911103C00E942313E2CF80E087
:1026D00008951F920F920FB60F9211242F933F93DC
:1026E0008F939F93AF93BF9380915B0290915C0215
:1026F000A0915D02B0915E0230915A0223E0230F57
:102700002D3758F50196A11DB11D20935A028093D3
:102710005B0290935C02A0935D02B0935E02809195
:102720005F0290916002A0916102B09162020196F5
:10273000A11DB11D80935F0290936002A09361027E
:10274000B0936202BF91AF919F918F913F912F9172
:102750000F900FBE0F901F90189526E8230F02963A
:10276000A11DB11DD2CF1F920F920FB60F9211244F
:102770002F933F934F935F936F937F938F939F9389
:10278000AF93BF93EF93FF938091B900887F80361A
:1027900009F44AC0F0F5883209F4A7C018F5803171
:1027A00009F49BC0B8F4882309F4F9C0883009F40F
:1027B00094C0FF91EF91BF91AF919F918F917F91C5
:1027C0006F915F914F913F912F910F900FBE0F909E
:1027D0001F901895883109F488C0803251F7809392
:1027E000CF0314C0803409F49DC040F48033B9F3A2
:1027F0008833F9F68093CF0385ECB0C0803509F4B7
:1028000085C0883509F496C0883499F60E94141062
:10281000D0CF883909F48CC038F5883729F050F4C6
:10282000883611F0803729F683E08093D103109227
:10283000080257C0883809F47BC0803919F0803805
:1028400009F0B7CF80910802803208F071C0E091A2
:10285000080281E08E0F809308028091BB00F0E0B7
:10286000E851FE4F80833DC0803B39F0E0F4803A70
:1028700009F479C0883A09F09CCF84E08093D103B1
:102880001092E7011092E601E091A703F091A803EE
:1028900009958091E60181110FC081E08093E601E6
:1028A0001092C60109C0803C09F4A6CF883C09F407
:1028B000A3CF883B09F07DCFE091E70181E08E0F47
:1028C0008093E701F0E0EA53FE4F80818093BB00E4
:1028D0009091E7018091E60129C08091AC0380933B
:1028E000BB0085EC8093BC0064CF9091CE038091B7
:1028F000CD03981758F5E091CE0381E08E0F8093B9
:10290000CE03F0E0E355FC4F8081E9CFE091CE03A8
:1029100081E08E0F8093CE038091BB00F0E0E35501
:10292000FC4F80839091CE038091CD039817C8F21D
:1029300085E8D8CFE091CE0381E08E0F8093CE035F
:102940008091BB00F0E0E355FC4F80838091D00381
:1029500081115CCF81E08093AB0384EA8093BC005B
:102960001092D10326CF85EC8093BC001092D10346
:1029700080910802803230F4E0910802F0E0E851E2
:10298000FE4F10826091080270E0E091A503F09183
:10299000A60388EE91E00995109208020ACF1092E2
:1029A000CF0334CF1F920F920FB60F921124DF92F4
:1029B000EF92FF920F931F932F933F934F935F9349
:1029C0006F937F938F939F93AF93BF93CF93DF9337
:1029D000EF93FF93B19A80910D0390910E03805471
:1029E0009C4F90930E0380930D0380910D03909163
:1029F0000E0390938900809388008091C4018823FE
:102A000071F01092C401189B26C081E080931303DB
:102A1000B59A80916F00806280936F001CC0809196
:102A200012038F5F8093120380911303843009F0A7
:102A300043C080911203893030F58091090390E002
:102A40009595879580930903189B05C0809109038C
:102A5000806880930903FF91EF91DF91CF91BF913F
:102A6000AF919F918F917F916F915F914F913F9126
:102A70002F911F910F91FF90EF90DF900F900FBE5D
:102A80000F901F901895B59A80916F008062809387
:102A90006F008091070390910803189929C0FC01E9
:102AA000E957FF4F80819181019691838083109235
:102AB000120381E080931303809113038330E9F5BF
:102AC000E0911003F0911103808120910F0333B145
:102AD00090E0022E02C0959587950A94E2F783272D
:102AE00080FD11C01092120382E08093130325C071
:102AF000609109030E94850880E090E0892BB9F27B
:102B00000E940000D4CF80911203893008F043C0A6
:102B10003091090381E090E001C0880F2A95EAF71F
:102B2000908130FF36C0809589238083809109038E
:102B300090E09595879580930903809113038230E7
:102B400099F48091120381118EC0E0911003F091ED
:102B50001103808190910F0321E030E001C0220F2A
:102B60009A95EAF7822B808380911303813009F0D4
:102B700072CF80911203882309F44ACF8091120307
:102B8000883308F468CF1092130380916F008D7F13
:102B900043CF892BCACF80911203893059F43081F9
:102BA00081E090E001C0880F2A95EAF780958323A1
:102BB0008083C3CF809114038F5F8093140390911F
:102BC0001503891750F51092120380910B03909111
:102BD0000C03A0911403A80FB92FB11D8C91809301
:102BE0000903808141E050E001C0440F2A95EAF7D3
:102BF000842B808380918400909185008A5A9C4F19
:102C000090930E0380930D0380910D0390910E031A
:102C1000909389008093880090CF81E080930A038D
:102C200000910B0310910C03E0900703F090080350
:102C3000C8010E949408D82ED0E0C0E0CD1548F419
:102C4000F801EC0FFD1F6081C7010E9485082196E5
:102C5000F5CF80E090E0892B11F00E9400001092E7
:102C6000120381E042CF809112038F3008F47CCFB1
:102C7000E0911003F0911103208130910F0381E066
:102C800090E001C0880F3A95EAF78095822380830F
:102C90001092120381E080931303E0910703F091F7
:102CA0000803E357FF4F80819181019691838083D0
:102CB0005BCF1F920F920FB60F9211248F939F93A9
:102CC000EF93FF93B59AEFE6F0E080818F7D8083EC
:102CD000809186009091870080529E4F90930E03C2
:102CE00080930D0380910D0390910E0390938900C2
:102CF00080938800B19A80818260808384E0809391
:102D000013031092120381E08093C401FF91EF91AD
:102D10009F918F910F900FBE0F901F9018951F924B
:102D20000F920FB60F9211242F933F934F938F93CF
:102D30009F93EF93FF9380911501882389F088B1C9
:102D40008C7F88B98091BD018823B1F0409A1092A0
:102D5000BD018091B20090910201890F8093B20071
:102D6000FF91EF919F918F914F913F912F910F90F4
:102D70000FBE0F901F901895419A91E09093BD015E
:102D80008091BC01813009F43FC088F0823009F4A1
:102D900059C08091BB01882309F48BC08091B20097
:102DA00083578093B2008DE880930201D9CF90932E
:102DB000BB01809101018150809301018111EECF0F
:102DC0009093BC012091B9013091BA01C9010196DB
:102DD00049E0429FF001439FF00D1124ED5FFE4F4B
:102DE000382F292F823091050CF06AC04189019655
:102DF00039964423A9F33093B9012093BA01109274
:102E0000B8011092B701C5CF1092BB0182E0809348
:102E1000BC0180E8809300018091B9019091BA01D2
:102E200029E0289FF001299FF00D1124ED5FFE4F4E
:102E30008091B7019091B801E80FF91F80818093CC
:102E4000B601A7CF809100012091B601282351F14E
:102E50009093BB0190E09595879580930001892B15
:102E600009F097CF8091B7019091B80101969093A6
:102E7000B8018093B7012091B9013091BA0149E0BE
:102E8000429FF001439FF00D1124ED5FFE4F27811B
:102E90002817190609F04CF41092BC0180E18093C8
:102EA000010177CF1092BB01D5CF81E08093BC01A7
:102EB00070CF8091B200855E8093B2008BE174CFB9
:102EC0001092BA011092B9019ACF0F931F93CF932A
:102ED000DF93C0911902D0911A022196D0931A0261
:102EE000C093190265E080E00E94520401E0C038FE
:102EF000D10580F084EB90E0DF91CF911F910F918D
:102F00000C94B7052196D0931A02C0931902C038C9
:102F1000D10580F7C0911902D0911A020093D7030E
:102F2000C093F9031092D8031092FA0381E00E9433
:102F3000C406182F882311F0843021F78BEB90E022
:102F40000E94B705DD27C031D10518F480E30E9447
:102F50008A0460E170E0CE010E94720580E21430C4
:102F600009F48FE3DF91CF911F910F910C948A04A4
:102F70000F931F93CF93DF9304E614E0F8011382BD
:102F8000128288EE93E0A0E0B0E084839583A6836C
:102F9000B78389E991E091838083C8E7D4E086E034
:102FA000888380E8898388E08A831B821C821D8253
:102FB0001E8286E00E94AF020E9459036B837C83CD
:102FC0008D839E83E0E7F4E08DE38083178306839F
:102FD00011828FEF8283838315821482E1E5F4E00E
:102FE000118A108A128AECEFF3E0138212828BEAC4
:102FF00091E09183808314821582168217828AE081
:1030000090E091878087128613861486158616862F
:103010001786108A928B818B138A148A158A168AD6
:10302000178A108E118E938F828F148E158E168EA6
:10303000178E10A211A212A294A383A315A216A206
:1030400017A210A611A612A613A695A784A716A6C6
:1030500017A610AA11AA12AA13AA14AA96AB85AB96
:1030600017AA10AE11AE12AE13AE14AE15AE97AFD6
:1030700086AF10923C0410923D0410923E041092D0
:103080003F04109240041092410410924204909325
:103090004404809343041092450410924604109215
:1030A0004704109248041092490410924A04109266
:1030B0004D0410924E0410924F041092500410923E
:1030C0004B0410924C048EE18093FB03DF91CF916F
:1030D0001F910F910895CF93DF93CDB7DEB761971E
:1030E0000FB6F894DEBF0FBECDBF789484B5826072
:1030F00084BD84B5816084BD85B5826085BD85B59C
:10310000816085BD80916E00816080936E00109219
:103110008100809181008260809381008091810094
:103120008160809381008091800081608093800025
:103130008091B10084608093B1008091B000816083
:103140008093B00080917A00846080937A008091AF
:103150007A00826080937A0080917A008160809307
:103160007A0080917A00806880937A001092C10082
:1031700076E1E72E71E0F72EE2E0CE2ED12CC601EB
:103180000E948625182FC60101960E948625212FB0
:1031900030E0322F2227820F932F911DD7018D937C
:1031A0009D937D01B2E0CB0ED11CE8E1CE16D10497
:1031B00031F780912201909123010B9728F46BE065
:1031C00070E086E00E94F412809124019091250124
:1031D0000B9711F00E9428130E94390DE6E1F3E0ED
:1031E0008FE8DF011D928A95E9F787E00E94AF0220
:1031F000EBEFF4E02491E7EEF4E0E491F0E0EE0F81
:10320000FF1FE453FB4F4591549180E091E031E082
:10321000291741F08F5F932F082E01C0990F0A9450
:10322000EAF7F6CF509311034093100380930F03F6
:1032300086E193E090930803809307032098E09140
:103240001003F0911103208130910F0381E090E091
:1032500001C0880F3A95EAF7809582238083109207
:10326000800011E01093810010921303B59A8091B1
:103270006F00806280936F0080918100887F816001
:10328000809381008091260182FFAEC0109265027A
:103290001092640284E0809366020E946A09109290
:1032A0004B0210920D0210920C02109247021092E3
:1032B00048021092490210924A0210924C020E9457
:1032C0008C061093D7038DE38093F9031092D803F3
:1032D0001092FA0381E00E94C406811102C010938B
:1032E000460211E01093D70380E78093F903109210
:1032F000D8031092FA0381E00E94C406811174C0C1
:1033000010930B028091610490916204009711F078
:103310000E94992786E090E00E94FD268C0180E7BC
:10332000F801808384E694E092838183138280E2B3
:1033300090E09583848310936204009361040E945B
:103340008C0681E0D80113968C93C8010E94D707A0
:10335000882309F449C081E2898B41E050E0BE0135
:103360006F5E7F4F80916104909162040E94FE091C
:10337000109252041092510410925404109253046B
:10338000109256041092550410925804109257044B
:1033900010925A041092590410925C0410925B042B
:1033A00010925E0410925D041092600410925F040B
:1033B0000E942B0A81E8898341E050E0BE016F5FE3
:1033C0007F4F80916104909162040E94FE098FEE0C
:1033D000898341E050E0BE016F5F7F4F80916104BF
:1033E000909162040E94FE0989E00E94AF0210924F
:1033F000520210925302809128019091290144E0D9
:10340000969587954A95E1F7B1E08B278170809377
:1034100015018091260182FD1092150187B183600C
:1034200087B91092B00082E08093B10081E0809370
:1034300070008DE88093B2000E9459036093560299
:1034400070935702809358029093590230EC432EA8
:1034500037E2532E39E0632E712C22242A942FE375
:10346000322E0E94590300917B0410917C0420911C
:103470007D0430917E04601B710B820B930B6531D0
:1034800071058105910508F454C00E9459036093A9
:103490007B0470937C0480937D0490937E04109150
:1034A000790480917A04113C20F0819580937A040C
:1034B00002C01032D0F380917A04180F109379046F
:1034C00000917804802F0E94AF02111105C060E0C6
:1034D000802F0E94E8022DC01F3F11F461E0F8CF59
:1034E000E02FF0E0E85AFB4FE491E33009F4CCC060
:1034F00040F4E130D1F0E23009F4C1C017FDEECF65
:10350000E6CFE73009F4CCC0E83009F4D1C0E430AC
:10351000A9F780918000806280938000812F90E0E5
:1035200090938B0080938A0004C084B5806884BD2A
:1035300017BD0E94590300911202109113022091AD
:10354000140230911502601B710B820B930B6E37C6
:1035500071058105910528F10E94590360931202BB
:1035600070931302809314029093150290911102AC
:1035700081E0982790931102992399F0909110027D
:10358000982790931002992361F090910F02982749
:1035900090930F02992329F090910E02892780932E
:1035A0000E020E94390D0E94590300914D041091A2
:1035B0004E0420914F0430915004601B710B820B1C
:1035C000930B653F71408105910580F00E9459037E
:1035D00060934D0470934E0480934F049093500475
:1035E00080914A0491E0892780934A04809148049D
:1035F000882309F465C08F5F0E94BA030E9492037A
:1036000094E99093BC00982F909580911E0291119F
:1036100059C0882309F4EFC210921E0286E193E09C
:103620000E944C10FC019093770280937602892BC4
:1036300009F4A3C67181272F30E06281462F50E044
:10364000CA019695982F88279795879580789770C7
:10365000872B932BA081A23B09F43AC30196A13B8F
:1036600009F4A6C308F022C3A33809F49EC3A03B03
:1036700009F03FC3407260710E9422123AC384B5C0
:10368000806284BD18BD55CF809180008068809392
:103690008000812F90E0909389008093880049CF2B
:1036A0008091B00080688093B0001093B30041CF48
:1036B0008091B00080628093B0001093B40039CF45
:1036C0008FEFA1CF981709F496C2109155029093ED
:1036D0001E02111105C092FFA1CF0E94ED0E9ECFD8
:1036E0001130E1F493FF03C00E94AB0C97CF92FF1F
:1036F00003C00E94E20E92CF91FF90CF0E94790EFC
:103700008AE08093550280915202812780931D02A6
:1037100080915402182710931C0280CF123061F45C
:1037200093FDDBCF91FF03C00E94C30E77CF92FFC2
:1037300075CF0E94D50E72CF173079F493FDD9CF93
:1037400091FF7CC18091260182FD78C18CE380933A
:10375000550280E00E94E509D3C11A30E9F594FDD5
:10376000BCCF8091260182FD59CF90FF22C091FFEE
:1037700017C0198A1982BE016F5F7F4FCE01419633
:103780000E948609BE016F5F7F4FCE0141960E9465
:10379000590C80911D0291E0892780931D023ECF34
:1037A0000E94D6118091540291E0892780931C02D7
:1037B00035CF8091280180FF31CF609118016F5F74
:1037C00093FD05C092FF2ACF60911801615070E00F
:1037D00081E00E94431322CF143108F42FC180915D
:1037E000FB03811708F42AC190FF30C080911B02AF
:1037F000882309F413CF6091190270911A028CEE9C
:10380000810F0E944313182FE0915502E4518FEF6E
:103810009FEFEB3038F4F0E0EE0FFF1FEA5EFE4F53
:10382000808191810E941E0F65E08CE30E9452040A
:1038300081E594E0111102C08AE494E00E94B7058A
:1038400061E0809118020E948404E8CE94FF11C0C8
:1038500080911B02882309F467CF109217021092FF
:103860001B021451E12F1B3008F497C08FEF9FEF1C
:103870003BC091FF3EC080911B0281110EC01451CC
:103880001B3058F4A12FB0E029E0129FF001112461
:10389000EE5CFE4F8085882389F080911702882393
:1038A00009F4BCCE809118028F5F893001F18093BA
:1038B0001802809118020E94F80EB0CEAA0FBB1F0A
:1038C000AA5EBE4F8D919C9190931A02809319022B
:1038D00021E020931B023781323009F020E0209351
:1038E000170221E0209318020E941E0F97CE81E05C
:1038F000DECF93FF5EC080911B02882309F442C093
:103900002091190230911A0280911702882399F1AF
:103910008091180248E050E0481B5109A1E0B0E056
:1039200002C0AA0FBB1F4A95E2F7CD018095909582
:103930008223932390931A02809319028091190293
:1039400090911A028F3F910589F414518FEF9FEFE8
:103950001B3040F4B9E01B9FF0011124EE5CFE4FD8
:103960008581968190931A028093190280911902A1
:1039700090911A02B9CF2150310930931A02209345
:103980001902DCCF1150133181F010935502E091F0
:103990005502E451EB3008F069CFF0E0EE0FFF1F65
:1039A000EA5EFE4F808191819FCF84E18093550232
:1039B000EECF92FF33CE90911B029923C1F18091FB
:1039C000190290911A0220911702222371F120917D
:1039D0001802E8E0F0E0E21BF10941E050E002C02B
:1039E000440F551FEA95E2F79A01842B932B90938D
:1039F0001A028093190214518FEF9FEF1B3040F48D
:103A000059E0159FF0011124EE5CFE4F85819681EF
:103A10002091190230911A028217930708F0A6CF5D
:103A200010921A0210921902A1CF0196E0CF1F5FE7
:103A300010935502181708F4AACFB8CF84EC810F61
:103A4000823008F0A3C090FF40C080911B02882301
:103A500009F4E4CD1C33B1F410911902198A1982CA
:103A6000BE016F5F7F4FCE0141960E948609809113
:103A700018016AE00E94AA2601E02981412F60E036
:103A80000E94D90A809155028D33B1F41091190228
:103A9000198A1982BE016F5F7F4FCE0141960E9445
:103AA0008609809118016AE00E94AA2601E0212F70
:103AB000498960E00E94D90A61E080E30E945204D3
:103AC00083E494E00E94B705A9CD94FF08C09091CB
:103AD0001B02992309F42DCE10921B023BCE91FFBD
:103AE00012C090911B02911199CD0E94E509282FD7
:103AF00030E030931A022093190291E090931B0258
:103B00000E944C0E8BCD93FF20C080911B02882316
:103B1000B1F08091190290911A0201978F3F91059F
:103B200039F090931A028093190280911902E8CF1C
:103B300088E11C3309F08CE38150990BF2CF8CE3C0
:103B40001C33F1F4109355021DC092FF54C08091B4
:103B50001B02882391F08091190290911A0201961C
:103B600028E11C3309F02CE32817190609F0C8F6E0
:103B700010921A0210921902D8CF1D3319F38DE357
:103B800080935502809155028C53E4CD183C89F402
:103B900092FF03C00E94B10E41CD94FDAACD91FFCA
:103BA0003DCD84E1809355028091160190911701DB
:103BB0009BCE123DC9F493FDB7CD94FD9ACD91FFF4
:103BC0002DCD83ED8093550264E080E30E94520482
:103BD00080E20E948A048FEF9FEF90931A028093F5
:103BE00019020E9465171ACD133D29F494FDD2CF16
:103BF00092FF14CDF6CF80915502873019F40E94C0
:103C0000580A0CCD8A3009F009CD00912601109197
:103C10002701047011278091280181FF05C001153B
:103C2000110511F40E94580AF090180180911602B3
:103C3000F81671F065E08AE20115110511F464E0EF
:103C400082E40E9452048F2D0E948A04F092160290
:103C5000F090520280911D02F81629F1F0921D0297
:103C6000012B59F065E088E40E9452048EE394E051
:103C7000F11028CF89E394E025CF64E08AE50E9423
:103C800052048FE4F11001C085E40E948A048091FF
:103C9000540290911C02891709F4C0CC80931C0235
:103CA0000E949109BBCC012B91F3B8CCAC3B09F439
:103CB00095C0A03D09F49CC0A43BD9F47C33C9F461
:103CC00080E090E0892BA9F08CE30E94000011C0F5
:103CD00022E030E065FD02C021E030E040E050E04D
:103CE000452B39F0880F991F6071820F931F0E9436
:103CF00000009091260192FFECC0E0917602F091D5
:103D00007702828194FFDEC08B3709F0DEC08081AC
:103D10008F3E29F4828586FD02C08064828780817F
:103D2000877F873E09F0D1C08581B0E88B9F9001E5
:103D300011248481820F932F911D9101281B390B2F
:103D40003093240220932302828586FF48C4809109
:103D5000640290916502181619060CF0B6C08EE048
:103D6000A7E6B2E001900D928A95E1F781E00E940A
:103D7000060C8091660282FF11C080916C0240E8BF
:103D8000849F9001112480916B02820F932F911DCB
:103D9000D101A81BB90BCD010E941D0C82E090E05F
:103DA000909365028093640290C00E949C0AA1CF08
:103DB00066FF0AC020E030E0232B09F49ACF40725E
:103DC00060710E94000095CF20E030E0232B09F4C1
:103DD00090CF407160720E9400008BCF20E030E0F5
:103DE000232B09F486CF407260710E94000081CFBE
:103DF0007076703221F07036B1F171117ACF80E0B7
:103E000090E0892B09F475CFC9019695982F8827E2
:103E10009795879580789F70840F951FA5E03595BD
:103E20002795AA95E1F7217001963381448150E0EE
:103E30003D3731F0A0E83A9FF00111244E0F5F1F8B
:103E40006F7081F1623081F1643081F1663081F10F
:103E5000683081F16A3081F16C3081F16E3081F12E
:103E60000E94000046CF80E090E0892B09F441CF0A
:103E70000381802F807D803109F03BCFE480FF24D7
:103E8000F39411E041E0802F8F2109F040E02E2DC6
:103E90002F21FF0C612F80E80E9400001F5F15306A
:103EA00089F727CF61E4DCCF62E4DACF63E4D8CFCF
:103EB00064E4D6CF65E4D4CF66E4D2CF67E4D0CF54
:103EC00068E4CECF8B3709F42ACF8091260182FD9A
:103ED00038C00091760210917702C8010E949408C0
:103EE0008430D1F4D8018C918B3BB1F411968C9134
:103EF0008B3791F480915402F0901801811101C028
:103F0000F12C81E00E94E509E82E80E00E94E5099D
:103F10004F2D6E2D0E944811C8010E9494088E30CA
:103F200081F4F80180818F3E61F492819B3749F4DE
:103F300094EB998395E69A838B83CE0101960E9438
:103F4000A0080091760210917702C8010E9494089F
:103F5000803109F012C2D8018C91853E09F00DC262
:103F600014968C911497823009F007C216962C9102
:103F7000169780911601909117012817190609F0DC
:103F8000E3C117962C9117978091240190912501F8
:103F90002817190609F0D8C115968C91159790E04D
:103FA0009C01E4E0220F331FEA95E1F7207819968F
:103FB000AC901997E894A7F82A2930E0322F2227ED
:103FC00045E0880F991F4A95E1F780781896AC90E4
:103FD000E894A7F8A82AA20EB32EB11C6501B1E09F
:103FE000CB1AD1089C2CEAE0EC1550F029E0C29ED7
:103FF000F0011124EE5CFE4F31E08781813009F041
:1040000030E0D80113968C918130F1F5BBE0CB16EE
:10401000D104D0F5F801828590E063856F77AC011B
:104020005695542F442757954795262F240F332311
:1040300009F4DCC236E0880F991F3A95E1F78078E1
:1040400064856F77862B682F70E0762F6627620F66
:10405000711D8C2D0E942313E0917602F09177025E
:10406000838180648383FAE04FEFF91530F0F60125
:10407000EE0FFF1FEA5EFE4F4081E12C00E020E0E2
:1040800060E08A2D0E943B12E0917602F091770267
:1040900083818230B9F42BE0C216D10498F482E413
:1040A00083833AE04FEF391530F0F601EE0FFF1F32
:1040B000EA5EFE4F4081E12C00E020E060E08A2DC6
:1040C0000E943B12E0917602F09177028381833067
:1040D00009F04BC04BE0C416D10408F046C062851D
:1040E00070E09B013695322F22273795279533278D
:1040F00083858F77820F932F911D16E0660F771FB0
:104100001A95E1F76078772724852F77622B5AE09C
:104110002FEF3FEF591538F0F601EE0FFF1FEA5E63
:10412000FE4F2081318186239723892B09F460C2B9
:10413000622B732B8C2D0E942313E0917602F09159
:1041400077028381806483837AE04FEF791530F0C2
:10415000F601EE0FFF1FEA5EFE4F4081E12C00E00A
:1041600020E060E08A2D0E943B12E0917602F091FF
:1041700077028381853009F07FC08BE0C816D104B7
:1041800008F07AC0828590E08C0126E0000F111FB4
:104190002A95E1F7007864856F77062BBC0135E03E
:1041A000660F771F3A95E1F7162F107865856F77C0
:1041B000162BBC0144E0660F771F4A95E1F7A62F46
:1041C000A078EA2E66856F77E62A63856F779695E5
:1041D000982F882797958795680F70E08C2D0E94FF
:1041E0002313FF24F394FC0C602F70E08F2D0E94AA
:1041F000231302E00C0D612F70E0802F0E94231327
:1042000013E01C0D6E2D70E0812F0E942313E091AE
:104210007602F0917702838180648383BAE04FEF66
:10422000B91530F0F601EE0FFF1FEA5EFE4F408138
:10423000EAE02FEFEF1538F0EF2DF0E0EE0FFF1F63
:10424000EA5EFE4F20810B3008F0D7C1E02FF0E08E
:10425000EE0FFF1FEA5EFE4F0081EE24EA941B3052
:1042600038F4E12FF0E0EE0FFF1FEA5EFE4FE08032
:1042700060E08A2D0E943B12E0917602F091770275
:1042800083818630B1F52BE0C216D10490F586E427
:1042900083833AE04FEF391530F0F601EE0FFF1F40
:1042A000EA5EFE4F4081E1E0EC0D2FEFEB3030F4A1
:1042B000F0E0EE0FFF1FEA5EFE4F2081E2E0EC0D22
:1042C0000FEFEB3030F4F0E0EE0FFF1FEA5EFE4F31
:1042D0000081E3E0EC0DEE24EA94EB3030F4F0E002
:1042E000EE0FFF1FEA5EFE4FE08060E08A2D0E9425
:1042F0003B12E0917602F09177028381883061F47D
:1043000088E4838340912401E42E0091160120E08B
:104310006DE08AE30E943B12E0917602F091770211
:1043200083818F3089F40E942813E0917602F09106
:104330007702838180648383E12C00E020E040E009
:104340006B2D8A2D0E943B12E0917602F09177024C
:104350008681811112C0878181110FC083818730CE
:1043600061F487E4838340912401E42E00911601D7
:1043700020E06DE08AE30E943B128091260182FFDB
:1043800092C10E94590300911F02109120022091B6
:10439000210230912202AB01BC01401B510B620B88
:1043A000730B80912601433451056105710508F4B2
:1043B00071C0D901C8018D5B9F4FAF4FBF4F809334
:1043C0001F0290932002A0932102B09322028091B9
:1043D000640290916502029709F043C080916B02DC
:1043E00090916A02890F80936B0287FF25C090919C
:1043F00066028F7780936B0280916C028F5F80934F
:104400006C0287FF19C08DE680936B02892F817043
:10441000885880936C0280916D028F5F8F3708F00F
:10442000EEC080936D0291FFFEC08FEE8093670215
:1044300087E692E00E94A0088091660282FF11C088
:1044400080916C0240E8849F9001112480916B025E
:10445000820F932F911DD101A81BB90BCD010E9492
:104460001D0C8091640290916502892B79F48BEB8D
:1044700089838BE78A831B82CE0101960E94A00864
:10448000E1E0F0E0F0936502E093640280912601A0
:1044900082FF09C190914C02992361F183FD2AC0EA
:1044A00020914B0280E6C82E8AEED82EE12CF12C0A
:1044B000222359F030E050E040E060E67AEE80E000
:1044C00090E00E94B62669017A010E94590300918A
:1044D0004702109148022091490230914A02601B24
:1044E000710B820B930BC616D706E806F90610F47B
:1044F0000E946A0980914602882309F489C11091BB
:1045000070040E9434036B017C018091D1038111FE
:104510008EC081E08093D1038093D0039FEF90936E
:10452000CF031092CE031092CD038093AC039091F1
:10453000AC03812F880F892B8093AC038091AB0350
:10454000813009F031C11092AB030E9434036B013A
:104550007C018091AC038093BB008091D303909148
:10456000D403A091D503B091D603892B8A2B8B2B32
:10457000A1F00E9434030091D3031091D403209141
:10458000D5033091D6036C197D098E099F09061752
:1045900017072807390708F46BC08091BC0083FD1A
:1045A000D8CF85EC8093BC000E9434036B017C0162
:1045B0008091D103813009F4F9C08091CE0381113B
:1045C00017C18091CE03ADEAB3E0E5E2F2E090E0FE
:1045D000981709F452C02D9121939F5FF9CFE3E022
:1045E000F0E0F0936502E09364026FCC80E02BCDA5
:1045F00060957095622373239DCD0FEF2ECE83E4DB
:1046000080936D0280916F028F5F87FD03C080935E
:104610006F0209CF88E680936F02809170028F5FEE
:104620008093700200CF80E00E94060C05CF80913D
:10463000D3039091D403A091D503B091D603892BD5
:104640008A2B8B2B09F461CF0E9434038090D30313
:104650009090D403A090D503B090D6036C197D0937
:104660008E099F0986169706A806B90608F04DCF51
:104670008091D2030E94A30680E01092AA03809347
:10468000A903813009F4B6C082E890E090937504E4
:10469000809374048091710482FDBAC080914502B8
:1046A000882309F4B8C010911A01112391F1C09028
:1046B0005602D0905702E0905802F0905902C1146F
:1046C000D104E104F10429F10E945903AB01BC01BA
:1046D0004C195D096E097F0928EE33E0129FC00175
:1046E000139F900D1124092E000CAA0BBB0B8417ED
:1046F0009507A607B70768F4109256021092570262
:1047000010925802109259028AE0809355020E943A
:10471000790E198A1982BE016F5F7F4FCE014196D3
:104720000E948609909154029923D9F09091260114
:1047300092FF86C0882351F0898190915302981787
:1047400029F0809353028170809352028091150169
:1047500081110BC098B19C7F80914D028370892B91
:1047600088B9809115018823A9F08091520290E8C0
:10477000811191E8F89480915402809314019093F0
:104780000E0180910C0120910D01822789278093D1
:104790000F01789480E090E0892B11F40C94311A89
:1047A0000E9400000C942D1A85EEFCCE8091D3035C
:1047B0009091D403A091D503B091D603892B8A2B75
:1047C0008B2B09F4F5CE0E9434030091D303109192
:1047D000D4032091D5033091D6036C197D098E093D
:1047E0009F09061717072807390708F0E1CE40CFC1
:1047F00081E0E9CE8091760490917704DC01ED911F
:10480000FC910284F385E02D09958093710444CFD7
:104810001092450248CF81E08093450290914D026D
:10482000913009F482E080934D0280914602882302
:1048300009F439CF80914D028C6F0E94B40733CFB9
:1048400010911801111101C01AE00E9459036B0167
:104850007C01212F30E050E040E0C301B2010E9412
:10486000D82680914E0290914F02A0915002B091B3
:104870005102C81AD90AEA0AFB0A2C153D054E0551
:104880005F05D0F40E94590360934E0270934F026B
:104890008093500290935102BE016F5F7F4FCE0113
:1048A00041960E94590C412F698189890E944811C3
:1048B00089818170809352026091520289E00E9446
:1048C000E80244CF0E94A42408F481E00895E8940B
:1048D00009C097FB3EF490958095709561957F4F48
:1048E0008F4F9F4F9923A9F0F92F96E9BB279395F6
:1048F000F695879577956795B795F111F8CFFAF406
:10490000BB0F11F460FF1BC06F5F7F4F8F4F9F4F36
:1049100016C0882311F096E911C0772321F09EE894
:10492000872F762F05C0662371F096E8862F70E0FA
:1049300060E02AF09A95660F771F881FDAF7880FD4
:104940009695879597F90895990F0008550FAA0B2A
:10495000E0E8FEEF16161706E807F907C0F0121692
:104960001306E407F50798F0621B730B840B950B95
:1049700039F40A2661F0232B242B252B21F40895EA
:104980000A2609F4A140A6958FEF811D811D089587
:104990000E94DB240C944C250E943E2538F00E9496
:1049A000452520F0952311F00C9435250C943B25DA
:1049B00011240C9480250E945D2570F3959FC1F30E
:1049C000950F50E0551F629FF001729FBB27F00DBD
:1049D000B11D639FAA27F00DB11DAA1F649F662712
:1049E000B00DA11D661F829F2227B00DA11D621F61
:1049F000739FB00DA11D621F839FA00D611D221F1B
:104A0000749F3327A00D611D231F849F600D211DFE
:104A1000822F762F6A2F11249F5750409AF0F1F081
:104A200088234AF0EE0FFF1FBB1F661F771F881FEA
:104A300091505040A9F79E3F510580F00C943525C8
:104A40000C9480255F3FE4F3983ED4F386957795E8
:104A50006795B795F795E7959F5FC1F7FE2B880F90
:104A6000911D9695879597F9089597F99F6780E826
:104A700070E060E008959FEF80EC089500240A94B0
:104A80001616170618060906089500240A94121629
:104A90001306140605060895092E0394000C11F45C
:104AA000882352F0BB0F40F4BF2B11F460FF04C009
:104AB0006F5F7F4F8F4F9F4F089557FD9058440F62
:104AC000551F59F05F3F71F04795880F97FB991F6D
:104AD00061F09F3F79F0879508951216130614062A
:104AE000551FF2CF4695F1DF08C0161617061806B7
:104AF000991FF1CF86957105610508940895E89492
:104B0000BB2766277727CB0197F90895F999FECF40
:104B100092BD81BDF89A992780B50895262FF999FD
:104B2000FECF1FBA92BD81BD20BD0FB6F894FA9A90
:104B3000F99A0FBE019608955058BB27AA270E94E4
:104B4000B4250C944C250E943E2538F00E94452542
:104B500020F039F49F3F19F426F40C943B250EF411
:104B6000E095E7FB0C943525E92F0E945D2558F36D
:104B7000BA17620773078407950720F079F4A6F542
:104B80000C947F250EF4E0950B2EBA2FA02D0B016F
:104B9000B90190010C01CA01A0011124FF27591B82
:104BA00099F0593F50F4503E68F11A16F040A22F88
:104BB000232F342F4427585FF3CF469537952795F9
:104BC000A795F0405395C9F77EF41F16BA0B620BF8
:104BD000730B840BBAF09150A1F0FF0FBB1F661F3F
:104BE000771F881FC2F70EC0BA0F621F731F841F82
:104BF00048F4879577956795B795F7959E3F08F0A8
:104C0000B0CF9395880F08F09927EE0F9795879569
:104C100008950E941D260C944C250E94452558F0AD
:104C20000E943E2540F029F45F3F29F00C94352581
:104C300051110C9480250C943B250E945D2568F34E
:104C40009923B1F3552391F3951B550BBB27AA2745
:104C500062177307840738F09F5F5F4F220F331F7F
:104C6000441FAA1FA9F335D00E2E3AF0E0E832D047
:104C700091505040E695001CCAF72BD0FE2F29D04A
:104C8000660F771F881FBB1F261737074807AB071C
:104C9000B0E809F0BB0B802DBF01FF2793585F4F91
:104CA0003AF09E3F510578F00C9435250C94802500
:104CB0005F3FE4F3983ED4F3869577956795B79573
:104CC000F7959F5FC9F7880F911D9695879597F97E
:104CD0000895E1E0660F771F881FBB1F62177307F7
:104CE0008407BA0720F0621B730B840BBA0BEE1F0C
:104CF00088F7E09508950E94652588F09F5798F001
:104D0000B92F9927B751B0F0E1F0660F771F881FD0
:104D1000991F1AF0BA95C9F714C0B13091F00E94EA
:104D20007F25B1E008950C947F25672F782F882781
:104D3000B85F39F0B93FCCF3869577956795B39511
:104D4000D9F73EF490958095709561957F4F8F4F80
:104D50009F4F0895991B79E004C0991F961708F09A
:104D6000961B881F7A95C9F780950895A1E21A2E9F
:104D7000AA1BBB1BFD010DC0AA1FBB1FEE1FFF1FFF
:104D8000A217B307E407F50720F0A21BB30BE40B4F
:104D9000F50B661F771F881F991F1A9469F7609596
:104DA0007095809590959B01AC01BD01CF01089550
:104DB000052E97FB1EF400940E94EF2657FD07D0A6
:104DC0000E94B62607FC03D04EF40C94EF265095B3
:104DD0004095309521953F4F4F4F5F4F08959095E7
:104DE0008095709561957F4F8F4F9F4F0895EE0F7F
:104DF000FF1F0590F491E02D09940F931F93CF931B
:104E0000DF938230910510F482E090E0E09181041C
:104E1000F091820430E020E0B0E0A0E0309799F417
:104E20002115310509F44AC0281B390B24303105FE
:104E3000D8F58A819B816115710589F1FB01938306
:104E40008283FE0111C04081518102811381481784
:104E50005907E0F04817590799F4109761F0129636
:104E60000C93129713961C933296CF01DF91CF913A
:104E70001F910F9108950093810410938204F4CF41
:104E80002115310551F04217530738F0A901DB0114
:104E90009A01BD01DF01F801C1CFEF01F9CF909375
:104EA000820480938104CDCFFE01E20FF31F819332
:104EB00091932250310939832883D7CF20917F04E1
:104EC00030918004232B41F420912E0130912F0149
:104ED0003093800420937F0420912C0130912D0188
:104EE0002115310541F42DB73EB740913001509165
:104EF0003101241B350BE0917F04F0918004E2170F
:104F0000F307A0F42E1B3F0B2817390778F0AC01EC
:104F10004E5F5F4F2417350748F04E0F5F1F5093C9
:104F2000800440937F04819391939FCFF0E0E0E071
:104F30009CCFCF93DF930097E9F0FC013297138267
:104F40001282A0918104B0918204ED0130E020E052
:104F50001097A1F420813181820F931F20917F044B
:104F6000309180042817390709F061C0F09380045C
:104F7000E0937F04DF91CF910895EA01CE17DF0718
:104F8000E8F54A815B819E0141155105B1F7E901C0
:104F9000FB83EA8349915991C40FD51FEC17FD0794
:104FA00061F4808191810296840F951FE9019983B4
:104FB0008883828193819B838A83F0E0E0E012966C
:104FC0008D919C9113970097B9F52D913C91119774
:104FD000CD010296820F931F20917F0430918004AF
:104FE0002817390739F6309751F51092820410923C
:104FF0008104B0938004A0937F04BCCFD383C28389
:1050000040815181840F951FC817D90761F44E5F05
:105010005F4F88819981480F591F518340838A814E
:105020009B81938382832115310509F0B0CFF093E2
:105030008204E09381049ECFFD01DC01C0CF138286
:105040001282D7CF6817790768F4FB01DC01E40FFF
:10505000F51FA40FB51F02C002900E9241505040A0
:10506000D8F708950C943B28DC0101C06D934150A2
:105070005040E0F70895FB01DC0102C001900D9261
:0C50800041505040D8F70895F894FFCF3D
:10508C0080108DFF00FF000000000301C0FA00003B
:10509C00000000040001FFFFFFFFFFFFFFFFFFFF09
:1050AC00FFFFFFFFFFFFFFFFFFFFFFFF0000830479
:1050BC00800000010001007E000000011E000A00BB
:1050CC006300000002030000000900000003000060
:1050DC0000000000000104000000000000000105B9
:1050EC000000000000000001060B000000FF0000A3
:1050FC0000070B000B000B0000010800000000FF74
:10510C000002000910000000FF0002000A9F0200CC
:10511C00000008010000000000530826088208FC6B
:10512C00071F080C08FD07000000004306650382FA
:06513C000846063F3F009B
:00000001FF
