:100000000C9434010C945C010C945C010C945C0124
:100010000C945C010C945C010C945C010C945C01EC
:100020000C945C010C94E0160C94AA160C94231505
:100030000C945C010C945C010C945C010C945C01CC
:100040000C94BA130C945C010C945C010C945C014C
:100050000C945C010C945C010C945C010C945C01AC
:100060000C9404140C945C01426574726965623FDF
:1000700000496E626574726965626E61686D653FA4
:100080000043563F004932432D5363616E3F0046A3
:10009000617374436C6F636B0066657274696700AB
:1000A000307800204443430054616B7400566572FD
:1000B00073696F6E2000556872656E7A656E747232
:1000C000616C65002D2D3A2D2D20202031303A0015
:1000D000446576696465722031303A0046432D5399
:1000E0006C617665205374617475730053746F701E
:1000F0007065643A2052756E3F200052756E6E69CD
:100100006E673A2053746F703F004576656E004FFE
:10011000646420002D313A002D2D2D003F3F3F001B
:10012000416472204C4E2D302F3100436F6E666952
:10013000672031004366672046432D536C76005399
:10014000572D49440056657273696F6E005265738E
:1001500065727665005265736572766500526573E7
:1001600065727665005761697454696D6500446510
:100170007669642E31303A6E00446576696365496C
:100180004400726F004356004D696E7574650053EC
:1001900074756E6465004576656E004F646420007A
:1001A00073746F726564006661696C656400737472
:1001B0006F72656400000000080002010000030483
:1001C0000700000000000000000086227E6DD2467D
:1001D00020290B2170104080523F065B4F666D7DD9
:1001E000077F6F090D614843D35F777C395E797172
:1001F0003D76301E753815373F736B336D783E3E54
:100200002A766E5B39640F2308025F7C585E7B712F
:100210006F74100C753014545C7367506D781C1C2F
:1002200014766E5B46307001000000000025002847
:10023000002B0000000000240027002A0004040412
:10024000040404040402020202020203030303037F
:10025000030102040810204080010204081020015C
:10026000020408102000321811241FBECFEFD8E07E
:10027000DEBFCDBF11E0A0E0B1E0E8E8F0E502C0EC
:1002800005900D92A83CB107D9F724E0A8ECB1E0A5
:1002900001C01D92A638B207E1F711E0C4E3D1E036
:1002A00004C02197FE010E94FC26C333D107C9F781
:1002B0000E94C8180C9442280C94000091E090937E
:1002C000E503809307041092E60310920804089552
:1002D0000895089590E0FC01EF5AFD4F2491835C4E
:1002E0009D4FFC018491882399F090E0880F991F1D
:1002F000FC01ED5CFD4FA591B491FC01E75DFD4F64
:10030000859194918FB7F894EC91E22BEC938FBF89
:1003100008958530A8F4262F2052330BF901E753B6
:10032000FE4FE491A82FB0E0AA0FBB1FAC5ABB4F01
:1003300030E8439FA0011124E42BF0E0ED93FC93FF
:10034000089590E0FC01EB54FE4F2491FC01EF5A1C
:10035000FD4F3491FC01E35CFD4FE491EE23C9F0C5
:10036000222339F0233001F1A8F4213019F1223091
:1003700029F1F0E0EE0FFF1FE75DFD4FA591B4916D
:100380008FB7F894EC91611126C030953E233C93D1
:100390008FBF08952730A9F02830C9F0243049F7DD
:1003A000809180008F7D03C0809180008F77809343
:1003B0008000DFCF84B58F7784BDDBCF84B58F7DA0
:1003C000FBCF8091B0008F778093B000D2CF809127
:1003D000B0008F7DF9CF3E2BDACF3FB7F8948091F4
:1003E0004E0290914F02A0915002B091510226B559
:1003F000A89B05C02F3F19F00196A11DB11D3FBF5D
:10040000BA2FA92F982F8827BC01CD01620F711D2B
:10041000811D911D42E0660F771F881F991F4A9525
:10042000D1F708952FB7F89460914A0270914B026A
:1004300080914C0290914D022FBF0895AF92BF92D0
:10044000CF92DF92EF92FF920F931F93CF93DF93A0
:100450006C017B018B01040F151FEB015E01AE18CF
:10046000BF08C017D10759F06991D601ED91FC91F1
:100470000190F081E02DC6010995892B79F7C5011E
:10048000DF91CF911F910F91FF90EF90DF90CF9070
:10049000BF90AF9008952091F701260F3327331FA7
:1004A00021323105ECF42091DF03FC0190E080E083
:1004B000243069F082E00895A091F7012191AC0108
:1004C00049525E4FA40FB52FB11D2C93019686178C
:1004D00098F38091F701680F6093F70180E0089529
:1004E00081E008951092DF0381E08093DE03109293
:1004F000B90361E082E10E94A10161E083E10E9411
:10050000A101E9EBF0E080818E7F808380818D7F87
:10051000808388E48093B80085E48093BC000895CC
:100520001092B8031092B7031092E60310920804D9
:100530000E94720288E691E09093B6038093B5031F
:1005400089E691E09093B4038093B3030895CF9329
:10055000DF9391E09093D6018823B9F0C091B80061
:10056000D091BA008091BC008A7B8093BC0060E08F
:1005700082E10E94A10160E083E10E94A1010E944A
:100580007202D093BA00C093B800DF91CF91089562
:100590008F929F92AF92BF92CF92DF92EF92FF9293
:1005A0000F931F93CF93DF93D0910804D13208F0BB
:1005B000D7C0182FC09107040E94ED016B017C0188
:1005C0008091DF0381116BC082E08093DF03109381
:1005D000DE038FEF8093DD031092DC03D093DB0307
:1005E000A7EEB3E0EBEBF3E080E0D81391C01092FC
:1005F000BA038091BA03CC0FC82BC093BA03809181
:10060000B903813009F088C01092B9030E94ED014E
:100610006B017C018091BA038093BB008091E10360
:100620009091E203A091E303B091E403892B8A2B1C
:100630008B2BA1F00E94ED010091E1031091E203E8
:100640002091E3033091E4036C197D098E099F0921
:10065000061717072807390708F442C08091BC0025
:1006600083FDD8CF85EC8093BC000E94ED016B0127
:100670007C018091DF03823009F450C08091DD035A
:100680008F3F09F46FC08091DD03803209F46CC0A4
:100690008091DD03803309F469C084E026C0809135
:1006A000E1039091E203A091E303B091E403892B6D
:1006B0008A2B8B2B09F484CF0E94ED018090E103FB
:1006C0009090E203A090E303B090E4036C197D09DD
:1006D0008E099F0986169706A806B90608F070CFFE
:1006E0008091E0030E94A70285E01092E603109239
:1006F00008041092E503DF91CF911F910F91FF90B5
:10070000EF90DF90CF90BF90AF909F908F90089523
:100710009D9191938F5F69CF85EEA5CF8091E10385
:100720009091E203A091E303B091E403892B8A2B1B
:100730008B2B09F49ECF0E94ED010091E1031091F3
:10074000E2032091E3033091E4036C197D098E09E3
:100750009F09061717072807390708F08ACFC0CF67
:1007600081E0C3CF80E0C1CF82E0BFCF83E0BDCFC7
:10077000CF92DF92EF92FF920F931F93CF93DF936D
:10078000D82FC62F613208F098C00E94ED016B018E
:100790007C018091DF0381116BC081E08093DF03D6
:1007A0008093DE039FEF9093DD031092DC039C0F98
:1007B0009093DB038093BA038091BA03DD0FD82BAB
:1007C000D093BA038091B903813009F078C01092B8
:1007D000B9030E94ED016B017C018091BA03809303
:1007E000BB008091E1039091E203A091E303B091FB
:1007F000E403892B8A2B8B2BA1F00E94ED01009141
:10080000E1031091E2032091E3033091E4036C19BA
:100810007D098E099F09061717072807390708F46D
:1008200048C08091BC0083FDD8CF85EC8093BC008C
:100830000E94ED016B017C018091DF03813009F49E
:1008400040C08091DC038C1710F4C091DC03EBEB0B
:10085000F3E0A5EFB2E080E08C1355C08C2FDF9160
:10086000CF911F910F91FF90EF90DF90CF9008955F
:100870008091E1039091E203A091E303B091E4033E
:10088000892B8A2B8B2B09F484CF0E94ED010091D8
:10089000E1031091E2032091E3033091E4036C192A
:1008A0007D098E099F09061717072807390708F0E1
:1008B00070CF8091E0030E94A702C0E0CFCF85EE09
:1008C000B5CF8091E1039091E203A091E303B09151
:1008D000E403892B8A2B8B2B09F4AECF0E94ED0108
:1008E0000091E1031091E2032091E3033091E403CE
:1008F0006C197D098E099F09061717072807390704
:1009000008F09ACFD6CF91919D938F5FA5CF089590
:10091000E091B8038091B703E81730F4F0E0EB50B2
:10092000FD4F808190E008958FEF9FEF08959091A3
:10093000B8038091B7032FEF3FEF981748F4E92FE2
:10094000F0E0EB50FD4F208130E09F5F9093B803C3
:10095000C90108958091B7039091B803891B990B41
:100960000895CF92DF92EF92FF920F931F93CF9350
:10097000DF937C01CB018A012091E503222389F0DA
:10098000EB016B01C40ED51ECC15DD0569F0699134
:10099000D701ED91FC910190F081E02DC7010995FF
:1009A000F3CF642F0E944B02C801DF91CF911F91BA
:1009B0000F91FF90EF90DF90CF900895CF93DF934A
:1009C0001F92CDB7DEB769832091E5032223F9F0AA
:1009D00020910804203258F021E030E0FC013383FC
:1009E000228390E080E00F90DF91CF910895809175
:1009F000E603E82FF0E0E951FC4F998190838F5F87
:100A00008093E6038093080481E090E0ECCF61E0FE
:100A1000CE0101960E944B02F7CF682F87E694E043
:100A20000C94DE0481E00C94C802CF93DF93C3E7FB
:100A3000D4E08A8388810E945E018E819F81DC01DF
:100A4000ED91FC910190F081E02D6A8109958E81F4
:100A50009F810E94120590E09D838C83DF91CF914E
:100A60000895CF93DF93EC0118820E949002888151
:100A700080620E945E0180E00E940D058FEF0E945F
:100A80000D0587E694E00E941205888180620E942D
:100A90005E0181E00E940D058FEF0E940D0587E643
:100AA00094E0DF91CF910C941205CF93DF93D62F72
:100AB000C72FFC01808180620E945E0182E10E945A
:100AC0000D058D2F0E940D058C2F0E940D0587E6C8
:100AD00094E0DF91CF910C941205CF93DF93EC015A
:100AE0008B81882371F088810E945E0189819A81BF
:100AF0000E94120591E0811190E0892FDF91CF9142
:100B000008950E94900281E08B83CE010E946D05C2
:100B1000982F8111E8CFF1CF9C01DC01A058BF4F85
:100B2000EC9191E09E0F9C93E20FF32FF11D6083F7
:100B300097FD1C920895FC0180818076803611F427
:100B4000818108958081829586708E5F0895CF920D
:100B5000DF92EF92FF920F931F93CF93DF93EC01FD
:100B600009E11EE2EE24E394F12C93E0D92ECC248B
:100B7000C394CE010E949B0580932303E09123033D
:100B8000E150109222038FEF909122039E1768F498
:100B9000A0912203AC0FBD2FB11D9C91892790918C
:100BA00022039F5F90932203EFCFEC0FFD2FF11DE7
:100BB0008083F89480912103813059F4809120033F
:100BC000811738F01092210380916F008D7F809300
:100BD0006F00789480912103813031F4809120035B
:100BE000843138F2C12CC5CF8091210381110EC010
:100BF000F89480916F008F7D80936F00B59B09C042
:100C000080916F00806280936F007894C110B1CFA3
:100C100056C0E0911E03F0911F03808190911D0347
:100C2000970101C0220F9A95EAF7822B8083809169
:100C30008400909185008A5A9C4F90931C03809366
:100C40001B0380911B0390911C0390938900809358
:100C500088007894D0931A03C0931903109222034A
:100C600010921803888180931703D0922103109269
:100C70002003B19A80916F00826080936F00809111
:100C800021038330E1F3809118038823B1F0E091D0
:100C90001503F0911603E757FF4F8081918101966C
:100CA0009183808383E090E0DF91CF911F910F913A
:100CB000FF90EF90DF90CF900895809121031B313A
:100CC00008F01150015009F052CF8091AF0390917C
:100CD000B00301969093B0038093AF0386E090E059
:100CE000E3CFCF93DF93CDB7DEB760970FB6F8941D
:100CF000DEBF0FBECDBF8BEB89838BE78A831B8260
:100D0000CE0101960E94A70560960FB6F894DEBF4B
:100D10000FBECDBFDF91CF9108958B30B8F429E09D
:100D2000829FF0011124EC5BFE4F8581968180311A
:100D300027E2920758F4883E23E0920748F484366D
:100D4000910540F40A9740F481E0089585E0089504
:100D500084E0089583E0089582E008952091D3010E
:100D6000FC0120838091D401FB0180838091D0011C
:100D700008951F93CF93DF9300D0CDB7DEB7182F20
:100D800019821A82BE016E5F7F4FCE0101960E94CA
:100D9000AE06898111118A810F900F90DF91CF915A
:100DA0001F910895089590E080E00895EF92FF92DA
:100DB0000F931F93CF93DF93DC0114962D913C91F9
:100DC0002417350710F490E01DC0EA017B018C0167
:100DD000FC0180810E945E01D80111968D919C9149
:100DE000DC01ED91FC910280F381E02DAE01B701B1
:100DF0000995C817D90739F781E00E94C80291E028
:100E00008111E1CF892FDF91CF911F910F91FF9039
:100E1000EF900895CF93DF93CDB7DEB761970FB60C
:100E2000F894DEBF0FBECDBF1982A4E5B4E0FE0189
:100E30003196BF019C9111968C91119712969183D6
:100E40008283329684E0A436B807A1F741E150E0EE
:100E500080916404909165040E94D60661960FB655
:100E6000F894DEBF0FBECDBFDF91CF9108950E94F1
:100E7000B8031092B8038093B7030895FF920F93BD
:100E80001F93CF93DF938C01C62FDCE0683010F006
:100E9000C850DDE0F801808180620E945E018D2FE4
:100EA0000E940D0587E694E00E941205F8018081FA
:100EB000806261E070E090E00E94370787E694E08E
:100EC0000E949704F82EF801808180620E945E01E2
:100ED0008D2F0E940D0581E090E001C0880FCA951A
:100EE000EAF78F290E940D0587E694E0DF91CF9104
:100EF0001F910F91FF900C9412050F931F93CF93A6
:100F0000DF938C01C62FD2E1683010F0C850D3E1D6
:100F1000F801808180620E945E018D2F0E940D0584
:100F200087E694E00E941205F8018081806261E00A
:100F300070E090E00E94370787E694E00E949704F3
:100F4000992702C095958795CA95E2F78170DF9140
:100F5000CF911F910F910895FF920F931F93CF93FD
:100F6000DF931F92CDB7DEB78C016983F42EF801B1
:100F70004783608785E090E095838483642FCE016A
:100F800001960E947D07F80116826F2DCE01019611
:100F90000E947D07882319F083E0F80186830E9470
:100FA0001202F80160837183828393830F90DF9133
:100FB000CF911F910F91FF900895EF92FF920F93A1
:100FC0001F93CF93DF938C01C62FE42E84E1F82E7C
:100FD000D2E1683020F0C85095E1F92ED3E1F80154
:100FE000808180620E945E018F2D0E940D0587E640
:100FF00094E00E941205F8018081806261E070E057
:1010000090E00E94370787E694E00E94970421E071
:1010100030E001C0220FCA95EAF7F1E0C82FC22BD9
:10102000EF1619F02095C22FC823F8018081806245
:101030000E945E018D2F0E940D058C2F0E940D05D0
:1010400087E694E0DF91CF911F910F91FF90EF9091
:101050000C941205FC01962F828D8F3F31F0603188
:1010600040F4CF014B960C94DD07642F892F0C942C
:10107000A10108950F931F93CF93DF93C62F8C0187
:10108000055E1F4FD1E062FB442740F94D2768E021
:10109000C8010E94DD07C1FB442740F94D2767E0E6
:1010A000C8010E94DD074C2F4095417066E0C801E1
:1010B000DF91CF911F910F910C94DD07FF920F9359
:1010C0001F93CF93DF938C01C62FF42ED0E06830AE
:1010D00010F0C850D1E0F801808180620E945E016A
:1010E0008D2F0E940D0587E694E00E941205F801FD
:1010F0008081806261E070E090E00E94370787E6BF
:1011000094E00E94970421E030E001C0220FCA95CC
:10111000EAF7C82FC22BFF2019F02095C22FC82351
:10112000F801808180620E945E018D2F0E940D0572
:101130008C2F0E940D0587E694E0DF91CF911F91DF
:101140000F91FF900C941205603110F40C945E081E
:101150000895CF93DF93EC0140E06E810E942A084E
:1011600041E06E81CE010E942A0840E06E81CE01EE
:101170000E942A088BE891E00197F1F7DF91CF9167
:101180000895AF92BF92CF92DF92EF92FF920F93AA
:101190001F93CF93DF93EC018A8D8E01095F1F4F60
:1011A000C62ED12C8F3F09F482C07E018BE1E80E60
:1011B000F11C8B8D80620E945E0182E10E940D0510
:1011C00087E694E00E9412058B8D806262E070E0F9
:1011D00090E00E94370787E694E00E949704B82EBB
:1011E00087E694E00E94970460E0782FCB018B297A
:1011F000F80130E020E001E010E04191B801042E58
:1012000002C0660F771F0A94E2F7609570958623F7
:101210009723B601022E02C0759567950A94E2F7EE
:101220006170772702C0660F771F4A95E2F7862B19
:10123000972B2F5F3F4F24303105F9F62E8168013F
:1012400002C0CC0CDD1C2A95E2F7C094D094C822D1
:10125000D922B601C7010E9455058E81B80102C08E
:10126000660F771F8A95E2F7C62AD72AB601C7010B
:101270000E9455058E81B80102C0660F771F8A95BE
:10128000E2F7609570956C217D21C7010E9455059C
:101290008BE891E00197F1F7DF91CF911F910F91CA
:1012A000FF90EF90DF90CF90BF90AF900895F12C1A
:1012B000E12C5E01EBE1AE0EB11CF80181918F01D2
:1012C0009A8D9F3F39F141E0682FC5010E94A40823
:1012D000A6010E2C02C0559547950A94E2F741707D
:1012E000F80131976081CE010E942A08FFEFEF1AC2
:1012F000FF0A84E0E816F10401F7CE01DF91CF91F7
:101300001F910F91FF90EF90DF90CF90BF90AF9023
:101310000C94A9080E946A01DBCFAF92BF92CF92D2
:10132000DF92EF92FF920F931F93CF93DF93EC0125
:10133000F62E6C810E942A086D816F3F21F040E0FB
:10134000CE010E942A080F2D10E08C8984FF3AC03C
:101350006E0187E0C80ED11CF12CE12C5E01EBE19F
:10136000AE0EB11CF60181916F019A8D9F3F39F14C
:1013700041E0682FC5010E94A408A8010E2C02C0FC
:10138000559547950A94E2F74170F60131976081CF
:10139000CE010E942A08FFEFEF1AFF0A88E0E81644
:1013A000F10401F7CE01DF91CF911F910F91FF90D2
:1013B000EF90DF90CF90BF90AF900C94A9080E945F
:1013C0006A01DBCFB80184E0759567958A95E1F7EE
:1013D000CE010E94C1086F2DCE01DF91CF911F91E8
:1013E0000F91FF90EF90DF90CF90BF90AF900C9453
:1013F000C10841E00E948D0981E090E0089541E03C
:10140000682F8AE094E00E948D0981E090E00895C1
:101410000F931F93CF93DF938C01D0E0C0E0F801CE
:10142000EC0FFD1F6491662339F041E08AE094E0FF
:101430000E948D092196F3CFCE01DF91CF911F91AC
:101440000F91089540E00C948D09CF93DF93CDB7B1
:10145000DEB728970FB6F894DEBF0FBECDBF98E079
:10146000E2E3F1E0DE01119601900D929A95E1F729
:1014700090912204961710F46FEF690F262F30E039
:10148000220F331F41E050E04C0F5D1F240F351F2A
:10149000F9016081680F60688AE094E028960FB6D1
:1014A000F894DEBF0FBECDBFDF91CF910C94220A1E
:1014B00061E00E94220A8BE39FE10197F1F7089512
:1014C00087E0809344028AE094E00E94580A60E03A
:1014D00080E00E94250A8FE890E00C94080A8AE0D8
:1014E00094E00E94580A60E080E00E94250A85E8A6
:1014F00090E00E94080A82ED8093440208958AE0F9
:1015000094E00E94580A60E080E00E94250A81E889
:1015100090E00E94080A88EC8093440208958AE0D3
:1015200094E00E94580A60E080E00E94250A81E76A
:1015300090E00E94080A82E08093440208958AE0C5
:1015400094E00E94580A60E080E00E94250A88E644
:1015500090E00E94080A81E0809344020895CF93AE
:10156000DF93CDB7DEB760970FB6F894DEBF0FBE3E
:10157000CDBF80912A0190912B019C01215031090E
:101580002F3F374010F090E080E00197811528E070
:101590009207F8F49C01220F232F221F330B319561
:1015A0008F7790914302911112C0206191EB998342
:1015B0008A832B83CE0101960E94A70560960FB601
:1015C000F894DEBF0FBECDBFDF91CF9108952063A9
:1015D000EDCF85E090E0F2CF3F924F925F926F9215
:1015E0007F928F929F92AF92BF92CF92DF92EF92B3
:1015F000FF920F931F93CF93DF93C82F362E142F94
:10160000D22F81E08093D00180911B0290911C0227
:10161000019690931C0280931B02C0933A020093A0
:10162000D20181E0C11101C080E080933B020E94A1
:1016300012026093360270933702809338029093BF
:101640003902011104C08091260183FF9BC0CC2385
:1016500009F498C08091D401D81709F48DC0809105
:1016600026019091270180729927D0FD04C0892B13
:1016700021F082E003C0892BE1F381E080933C02FA
:1016800080913502882329F080913C028C6F0E9462
:10169000150580911A02882309F46EC06D2F70E041
:1016A00084E6189F600D711D1124072E000C880B15
:1016B000990B0E9492252B013C0120E030E040E094
:1016C0005FE30E947E240E9461256B017C01812CD6
:1016D000912C30E8A32E3FE3B32E00E080E1C81642
:1016E00087E2D806E104F104E0F0015020E030E0A8
:1016F00040E251E4C501B4010E94EF244B015C01BA
:10170000AC019B01C301B2010E94422620E030E0FF
:1017100040E05FE30E947E240E9461256B017C0112
:10172000DDCF20E030E040E85FE3C501B4010E9476
:10173000EA24712CC4E02AE0822E912CA12CB12C39
:1017400087FF32C080E490E0909355048093540466
:10175000909357048093560490935B0480935A04AB
:1017600090935D0480935C0482E090E09093590430
:10177000809358040E940A071093D301D093D40198
:101780003092D101DF91CF911F910F91FF90EF9097
:10179000DF90CF90BF90AF909F908F907F906F9091
:1017A0005F904F903F900895C114D104E104F1047B
:1017B00011F4071588F1002319F04424439407110C
:1017C000412C5C2EC1506C2E84E0851558F0C70169
:1017D000B601A50194010E94BB26605D442D852DB4
:1017E0000E948901C23069F4CEEFC50D84E08615F0
:1017F00040F0E62DF0E0EE0FFF1FEC5AFB4F118298
:101800001082C701B601A50194010E94BB2669019F
:101810007A017394C9CFC150C7FDA6CFC530DCF79C
:10182000EC2FF0E0EE0FFF1FEC5AFB4F11821082FD
:10183000F2CF0F93082F20915B02235480915D0219
:1018400098E9980F883618F468E10E94AF26492F6E
:1018500060915E02809158020E94EC0A0F910895F7
:101860000F93AC019091260192FF30C080913A0213
:10187000882361F120913202309133022E58334097
:101880004217530718F5509333024093320293FFE7
:101890001DC02091D40191E0920F9093D4019C330C
:1018A00058F09091D3012B532093D40121E0290FBC
:1018B000283170F42093D3010091D2012091D401FA
:1018C0004091D3016091D1010E94EC0A0F910895DB
:1018D00097519093D301F0CF0F93FC01DB018C91D2
:1018E0008F5F8C3370F48C93809118016AE00E94B2
:1018F000AF2601E02C91408160E00E94EC0A0F913C
:1019000008951C9280818F5F883110F48083ECCF22
:101910001082EACF8F929F92AF92BF920F931F9344
:10192000CF93DF93CDB7DEB7A1970FB6F894DEBFA4
:101930000FBECDBF19A2423008F44AE08E010F5D00
:101940001F4F842E912CB12CA12CA50194010E9433
:10195000BB26E62FB901CA01EA3044F5E05DD801A3
:10196000EE938D01232B242B252B79F790E080E03B
:10197000109769F0FD0101900020E9F73197AF0160
:101980004A1B5B0BBD018AE094E00E941E02A196F7
:101990000FB6F894DEBF0FBECDBFDF91CF911F9180
:1019A0000F91BF90AF909F908F900895E95CD7CF33
:1019B0008AE094E00E94580A60E080E00E94250AD4
:1019C00086EB90E00E94080A61E080E00E94250A10
:1019D0008DEA90E00E94080A609122017091230133
:1019E00090E080E04AE00E948A0C61E08CE00E9476
:1019F000250A8091280184FD04C083EA90E00C94BC
:101A0000080A88EA90E0FBCF0F931F93CF93DF93F0
:101A10000E94900280E20E945E0187E694E00E94AC
:101A2000120581112AC180912D02811108C183E51F
:101A300094E00E943105809124048F3F09F457C03F
:101A40000E94900285E294E00E94310541E068E046
:101A500085E294E00E945E0841E066E085E294E061
:101A60000E945E0841E067E085E294E00E945E0823
:101A700067E08AE094E00E943A0860910F046623D0
:101A800029F041E085E294E00E94A40841E06091E1
:101A90000E0485E294E00E94A40841E060911004E5
:101AA00085E294E00E94A40801E114E0CAE0D4E0D9
:101AB000F80161918F0141E085E294E00E94A40861
:101AC000F4E005311F07A1F70FE014E040E06F8557
:101AD00085E294E00E94A4086F85603120F485E2DD
:101AE00094E00E943E0721960C171D0779F780911C
:101AF0001E04886080931E0482E08093220410926A
:101B000023048BE39DE00197F1F740E060910E0420
:101B10008AE094E00E942A0840E0609110048AE084
:101B200094E00E942A0860910F046F3F29F040E082
:101B30008AE094E00E942A0860911E0464FD81C03E
:101B400063E08AE094E00E94C108CBE4D6E4CE01D1
:101B50000197F1F763E08AE094E00E94C1082197C1
:101B6000F1F763E08AE094E00E94C10883E592E027
:101B70000197F1F762E08AE094E00E94C108609169
:101B80001E0460628AE094E00E94220A84E080934E
:101B90001F046CE08AE094E00E94220A8AE094E04C
:101BA0000E94580A82E08093200466E08AE094E074
:101BB0000E94220A40E065E083E594E00E945E080E
:101BC00065E083E594E00E943E0744E050E06091C8
:101BD000530486E294E00E94AC0743E050E0609139
:101BE000530488E394E00E94AC0742E050E0609127
:101BF000530481E494E00E94AC0741E050E060911E
:101C000053048FE294E00E94AC0750E040E0609102
:101C100053048AE494E00E94AC07809124019091DF
:101C200025010B9711F40E94D80C10922C021092EF
:101C3000440210922802109227021092290281E099
:101C40001DC060628AE094E00E94220A8BE496E460
:101C50000197F1F760911E0460628AE094E00E94AF
:101C6000220A83E592E00197F1F760911E04606219
:101C70008AE094E00E94220A82CF80E080932D02C5
:101C8000DF91CF911F910F910895CF93DF93EC01D6
:101C90006530D8F0C03187E2D80750F480E30E9465
:101CA000FF09C83E83E0D80718F480E30E94FF09CB
:101CB000C436D10518F480E30E94FF09CA30D1056B
:101CC00050F480E30E94FF0906C0643051F3633092
:101CD00079F3623099F3BE0190E080E04AE0DF9151
:101CE000CF910C948A0C0F931F93CF93DF9300D066
:101CF000CDB7DEB761E080E00E94250A8091260121
:101D000082FF3AC08091D001811105C088E191E045
:101D10000E94080A44C000913A021091D20164E086
:101D200080911B0290911C020E94450E84E191E07B
:101D30000E94080A62E0802F90E00E94450E8DE22A
:101D40000E94FF0980E3111181E30E94FF098DE2E7
:101D50000E94FF091A821982BE016F5F7F4FCE0178
:101D600002960E94AE06898180FD03C08AE091E060
:101D7000CFCF8FE091E0CCCF809143028823B1F0A8
:101D80008BEF90E00E94080A1091410260E08FE022
:101D90000E94250A85E411118FE40E94FF090F902B
:101DA0000F90DF91CF911F910F9108958CEE90E0ED
:101DB000AFCFCF93DF93C82F8AE094E00E94580AF8
:101DC00060E080E00E94250AD09144028FE891E013
:101DD000DC3321F0DD3321F488E891E00E94080A29
:101DE00061E080E00E94250A80912902882391F019
:101DF0008EE30E94FF098CE3DC3309F488E1C81705
:101E000078F46C2F70E090E080E04AE0DF91CF91B1
:101E10000C948A0C84EC8D0F0E94B906C82FEBCF6E
:101E2000DF91CF910895EF92FF920F931F93CF937D
:101E3000DF93CDB7DEB766970FB6F894DEBF0FBE5F
:101E4000CDBF082FF92E60911F046D7F60931F0492
:101E500068608AE094E00E94220A8AE094E00E948E
:101E6000580A60E080E00E94250A85E891E00E941F
:101E7000080A60E083E00E94250AE09044021DEE1B
:101E80001E0D1A3018F480E20E94FF09612F70E0E5
:101E900090E080E04AE00E948A0C1CEE1E0D60E09B
:101EA00086E00E94250A89E791E09A8389838EE67D
:101EB00091E09C838B8385E691E09E838D838DE505
:101EC00091E098878F8385E591E09A8789878DE4F3
:101ED00091E09C878B8785E491E09E878D878FE3D7
:101EE00091E0988B8F8784E391E09A8B898B8BE2CA
:101EF00091E09C8B8B8B80E291E09E8B8D8B8CE1B3
:101F000091E01B3040F4E12FF0E0EE0FFF1FEC0FEB
:101F1000FD1F818192810E94080A61E080E00E9499
:101F2000250A80912902882319F08EE30E94FF0977
:101F30001B30A0F589E0189FF0011124EC5BFE4FE7
:101F40008781823059F507FD03C080E30E94FF09B5
:101F50000034E0F480E30E94FF090032B8F480E32B
:101F60000E94FF09003190F480E30E94FF090830CD
:101F700068F480E30E94FF09043040F480E30E948B
:101F8000FF09023018F480E30E94FF09602F70E01F
:101F900090E080E042E00E948A0C08C0812F0E94FD
:101FA0008D06682F802F9F2D0E94450E809129025B
:101FB000811144C01B3048F489E0189FF0011124BE
:101FC000EC5BFE4F80858823D9F161E08EE00E94B2
:101FD000250A82E891E066960FB6F894DEBF0FBE40
:101FE000CDBFDF91CF911F910F91FF90EF900C9497
:101FF000080A89E0189FF0011124EC5BFE4F8085F0
:1020000081111EC061E0809126020E94250A609124
:102010001F04862F826080931F046A608AE094E028
:1020200066960FB6F894DEBF0FBECDBFDF91CF919D
:102030001F910F91FF90EF900C94220A1B30C8F271
:1020400066960FB6F894DEBF0FBECDBFDF91CF917D
:102050001F910F91FF90EF9008958AE094E00E9405
:10206000580A60E080E00E94250A8091260182FFE4
:1020700006C08CED90E00E94080A0C94730E8091CB
:10208000280181FD0DC080ED90E00E94080A60915A
:10209000180170E090E080E04AE00E948A0CEDCFE9
:1020A00084EC90E0F2CF42E050E065EC71E08AE031
:1020B00094E00C941E02CF93DF9300D0CDB7DEB72F
:1020C000682F80E00E94250ABE016E5F7F4FCE011F
:1020D00001960E94AE068981873198F462E090E013
:1020E0000E94450E8AE30E94FF098A818C3360F4C6
:1020F00062E090E00E94450E0F900F90DF91CF912B
:1021000008950E945310EECF0E945310F5CF85ED35
:102110008093BC008091E1039091E203A091E303DE
:10212000B091E4030796A11DB11D23E0B695A795D4
:10213000979587952A95D1F72091BC0024FD03C07F
:102140001092DF0308954091E1035091E203609102
:10215000E3037091E403452B462B472B69F300976B
:10216000A105B10541F02AE22A95F1F700C00197D7
:10217000A109B109E1CF8091E0030C94A7022F924D
:102180003F924F925F926F927F928F929F92AF9207
:10219000BF92CF92DF92EF92FF920F931F93CF9354
:1021A000DF9300D000D0CDB7DEB79C838B837C015A
:1021B00041E8E40EF11C6C0150E8C50ED11C8C0105
:1021C0000E571F4F8D579F4F2C018B819C818C5731
:1021D0009F4F4C0122242A94AB80BC8097E8A90E23
:1021E000B11CEB81FC81EB57FF4FFA83E983F701C8
:1021F0008081F6019081891709F4BAC0EB81FC81D6
:10220000E80FF11D308037FE6DC0F801908189170D
:1022100039F0F501208131812F5F3F4F31832083D9
:10222000F8018083F2012082832D8076F4018036CC
:1022300009F441C0832D829586708E5F8083F801FA
:102240002081F4018081820F9927991F813891059F
:102250009CF180E8682E621AF894F6014081F8013A
:102260008081841708F044C0F42FF81B8F2FF601EB
:1022700080837894F80160814617E8F5712C50E06E
:102280006B817C81CB01860D971D0E942728F80168
:1022900060814B815C81460F511DBA01A3018B8186
:1022A0009C810E942728F7018081F8019081891B79
:1022B000F7018083F8011082F70190819F5F90837E
:1022C000F8018081392F381B97FF02C0F701108277
:1022D000F2012081F40190819317A9F03226F201D6
:1022E000308285CFF40180818111E6CF3082A7CF83
:1022F000862D840FBCCF461B50E08B819C81860FBE
:10230000911DBC01CCCF32122AC04B815C81480F99
:10231000511DCA01E981FA81408151814F5F5F4FB0
:1023200051834083F7013081F80130830097B1F287
:102330000F900F900F900F90DF91CF911F910F9101
:10234000FF90EF90DF90CF90BF90AF909F908F90D5
:102350007F906F905F904F903F902F900895F50180
:102360008081918101969183808390E080E0DACF33
:1023700090E080E0DDCFEF92FF920F931F93CF9319
:10238000DF93D82F162F842F6AE00E94AF26E82E05
:102390001D531F77D851DF77F0901601009124016B
:1023A000CF2DC02768E3C627CD27C827C12767EEF2
:1023B00086E692E00E948C056EE086E692E00E943E
:1023C0008C056BE786E692E00E948C056E2D86E612
:1023D00092E00E948C056DE686E692E00E948C05F4
:1023E00068E786E692E00E948C05612F86E692E01F
:1023F0000E948C0560E086E692E00E948C056D2FBD
:1024000086E692E00E948C0560E086E692E00E94FB
:102410008C0560E486E692E00E948C056F2D86E6CE
:1024200092E00E948C05602F86E692E00E948C0567
:102430006C2F6F7786E692E00E948C056FEF86E640
:1024400092E00E948C0586E692E00E94BF10909375
:10245000650280936402009741F0DF91CF911F9154
:102460000F91FF90EF900C94A705DF91CF911F91F2
:102470000F91FF90EF9008950F931F93CF93DF93E9
:1024800000D0CDB7DEB70091430211E010271093C2
:10249000430219821A82BE016E5F7F4FCE01019600
:1024A0000E94AE061123B9F0409118010023B1F04B
:1024B0000E94120260933D0270933E0280933F029D
:1024C000909340020E94AF0A0F900F90DF91CF913E
:1024D0001F910F910895002359F340E06A8189818B
:1024E0000E94BB11E5CF6623B1F020912A01309103
:1024F0002B01B901615071096F3F774060F4821779
:10250000930749F481E0411101C080E090914302BA
:1025100089130C943C1208956F927F928F929F9230
:10252000AF92BF92CF92DF92EF92FF920F931F93E1
:10253000CF93DF93E0916402F0916502D581D3706F
:102540009780868073806280A82EE894A7F887FD24
:102550009AC0D061B62EE894B7F867FDD860C42E53
:10256000E894C7F811E147FF10E1D22EE894D7F8BC
:1025700027FD1260F02EE894F7F807FD14600E2D89
:102580000F77E7FC1860C92DC82588E0C827C72544
:10259000C625C027CF25CD25CC25CB25CA25CD27BF
:1025A000C12765EE86E692E00E948C0560E186E632
:1025B00092E00E948C05662D86E692E00E948C05D2
:1025C000672D86E692E00E948C0562E086E692E046
:1025D0000E948C056D2F86E692E00E948C05682D86
:1025E00086E692E00E948C05692D86E692E00E94C4
:1025F0008C056A2D86E692E00E948C056B2D86E69E
:1026000092E00E948C05612F86E692E00E948C0584
:102610006C2D86E692E00E948C056D2D86E692E098
:102620000E948C056F2D86E692E00E948C05602F3B
:1026300086E692E00E948C056C2F6F7786E692E02A
:102640000E948C056FEF86E692E00E948C0586E67C
:1026500092E00E94BF1090936502809364020097FD
:1026600011F00E94A70581E0DF91CF911F910F919A
:10267000FF90EF90DF90CF90BF90AF909F908F90A2
:102680007F906F900895D46165CF0F931F93CF9380
:10269000DF93E82FF0E099E0899FD0011124AC5B33
:1026A000BE4F15962D913C9126173707C0F08B0130
:1026B000C82FEE0FFF1FEA5EFE4F71836083CF5F6E
:1026C000CC0FD0E0612FCE010E946F24602FCE018D
:1026D0000196DF91CF911F910F910C946F24DF91A0
:1026E000CF911F910F9108958B3010F40C944513E6
:1026F0000895CF93DF936DE490E080E00E946F2413
:102700006AE581E090E00E946F24C4E4D1E0698131
:102710007A8188810E947413299681E0C73AD8078C
:10272000B1F7DF91CF910895863061F4672B21F4E2
:102730000E94791381E008956AE070E086E00E94CB
:102740004513F8CF99E0899FF0011124EC5BFE4F0F
:10275000238134816217730758F02581368126174B
:10276000370730F09085911103C00E947413E2CFB7
:1027700080E008951F920F920FB60F9211242F93AD
:102780003F938F939F93AF93BF9380914A02909111
:102790004B02A0914C02B0914D023091490223E0CE
:1027A000230F2D3758F50196A11DB11D2093490225
:1027B00080934A0290934B02A0934C02B0934D0237
:1027C00080914E0290914F02A0915002B09151021F
:1027D0000196A11DB11D80934E0290934F02A093CC
:1027E0005002B0935102BF91AF919F918F913F9151
:1027F0002F910F900FBE0F901F90189526E8230F72
:102800000296A11DB11DD2CF1F920F920FB60F924B
:1028100011242F933F934F935F936F937F938F93E5
:102820009F93AF93BF93EF93FF938091B900887FFD
:10283000803609F44AC0F0F5883209F4A7C018F5CB
:10284000803109F49BC0B8F4882309F4F9C08830BA
:1028500009F494C0FF91EF91BF91AF919F918F9137
:102860007F916F915F914F913F912F910F900FBE8C
:102870000F901F901895883109F488C0803251F765
:102880008093DD0314C0803409F49DC040F480338C
:10289000B9F38833F9F68093DD0385ECB0C0803559
:1028A00009F485C0883509F496C0883499F60E94E9
:1028B0008710D0CF883909F48CC038F5883729F0D3
:1028C00050F4883611F0803729F683E08093DF03D7
:1028D0001092190257C0883809F47BC0803919F06A
:1028E000803809F0B7CF80911902803208F071C0AA
:1028F000E091190281E08E0F809319028091BB0054
:10290000F0E0E750FE4F80833DC0803B39F0E0F4BB
:10291000803A09F479C0883A09F09CCF84E080932A
:10292000DF031092F8011092F701E091B503F091E6
:10293000B60309958091F70181110FC081E0809362
:10294000F7011092D70109C0803C09F4A6CF883C5A
:1029500009F4A3CF883B09F07DCFE091F80181E035
:102960008E0F8093F801F0E0E952FE4F8081809352
:10297000BB009091F8018091F70129C08091BA03C2
:102980008093BB0085EC8093BC0064CF9091DC0306
:102990008091DB03981758F5E091DC0381E08E0FFE
:1029A0008093DC03F0E0E554FC4F8081E9CFE091B7
:1029B000DC0381E08E0F8093DC038091BB00F0E0AC
:1029C000E554FC4F80839091DC038091DB039817E2
:1029D000C8F285E8D8CFE091DC0381E08E0F8093C8
:1029E000DC038091BB00F0E0E554FC4F80838091D4
:1029F000DE0381115CCF81E08093B90384EA809388
:102A0000BC001092DF0326CF85EC8093BC001092AF
:102A1000DF0380911902803230F4E0911902F0E076
:102A2000E750FE4F10826091190270E0E091B3030D
:102A3000F091B40389EF91E00995109219020ACF41
:102A40001092DD0334CF1F920F920FB60F92112414
:102A5000DF92EF92FF920F931F932F933F934F9329
:102A60005F936F937F938F939F93AF93BF93CF9316
:102A7000DF93EF93FF93B19A80911B0390911C0316
:102A800080549C4F90931C0380931B0380911B03E5
:102A900090911C0390938900809388008091D501C8
:102AA000882371F01092D501189B26C081E0809395
:102AB0002103B59A80916F00806280936F001CC0E3
:102AC000809120038F5F80932003809121038430C5
:102AD00009F043C080912003893030F580911703BD
:102AE00090E09595879580931703189B05C080917A
:102AF0001703806880931703FF91EF91DF91CF91C7
:102B0000BF91AF919F918F917F916F915F914F9105
:102B10003F912F911F910F91FF90EF90DF900F90B9
:102B20000FBE0F901F901895B59A80916F0080622C
:102B300080936F008091150390911603189929C016
:102B4000FC01E957FF4F8081918101969183808339
:102B50001092200381E08093210380912103833030
:102B6000E9F5E0911E03F0911F03808120911D0380
:102B700033B190E0022E02C0959587950A94E2F752
:102B8000832780FD11C01092200382E080932103EF
:102B900025C0609117030E948C0580E090E0892B8E
:102BA000B9F20E940000D4CF80912003893008F050
:102BB00043C03091170381E090E001C0880F2A954F
:102BC000EAF7908130FF36C0809589238083809119
:102BD000170390E0959587958093170380912103C3
:102BE000823099F48091200381118EC0E0911E0300
:102BF000F0911F03808190911D0321E030E001C01E
:102C0000220F9A95EAF7822B8083809121038130ED
:102C100009F072CF80912003882309F44ACF809174
:102C20002003883308F468CF1092210380916F004D
:102C30008D7F43CF892BCACF80912003893059F4EF
:102C4000308181E090E001C0880F2A95EAF78095F5
:102C500083238083C3CF809122038F5F80932203DD
:102C600090912303891750F5109220038091190346
:102C700090911A03A0912203A80FB92FB11D8C9136
:102C800080931703808141E050E001C0440F2A95F2
:102C9000EAF7842B808380918400909185008A5A82
:102CA0009C4F90931C0380931B0380911B03909176
:102CB0001C03909389008093880090CF81E08093DB
:102CC00018030091190310911A03E0901503F09076
:102CD0001603C8010E949B05D82ED0E0C0E0CD1598
:102CE00048F4F801EC0FFD1F6081C7010E948C05BC
:102CF0002196F5CF80E090E0892B11F00E94000032
:102D00001092200381E042CF809120038F3008F49D
:102D10007CCFE0911E03F0911F03208130911D03B1
:102D200081E090E001C0880F3A95EAF78095822310
:102D300080831092200381E080932103E0911503AA
:102D4000F0911603E357FF4F8081918101969183A3
:102D500080835BCF1F920F920FB60F9211248F9337
:102D60009F93EF93FF93B59AEFE6F0E080818F7D1C
:102D70008083809186009091870080529E4F90932F
:102D80001C0380931B0380911B0390911C03909361
:102D9000890080938800B19A80818260808384E07A
:102DA000809321031092200381E08093D501FF914D
:102DB000EF919F918F910F900FBE0F901F901895DC
:102DC0001F920F920FB60F9211242F933F934F93A0
:102DD0008F939F93EF93FF9380911501882389F040
:102DE00088B18C7F88B98091CF018823B1F0409A57
:102DF0001092CF018091B20090910201890F8093CF
:102E0000B200FF91EF919F918F914F913F912F9140
:102E10000F900FBE0F901F901895419A91E09093DC
:102E2000CF018091CE01813009F43FC088F082301B
:102E300009F459C08091CD01882309F48BC0809199
:102E4000B20083578093B2008DE880930201D9CFFE
:102E50009093CD01809101018150809301018111F6
:102E6000EECF9093CE012091CB013091CC01C901DE
:102E7000019649E0429FF001439FF00D1124ED5F60
:102E8000FE4F382F292F823091050CF06AC04189FE
:102E9000019639964423A9F33093CB012093CC01BA
:102EA0001092CA011092C901C5CF1092CD0182E0E3
:102EB0008093CE0180E8809300018091CB019091B6
:102EC000CC0129E0289FF001299FF00D1124ED5F2E
:102ED000FE4F8091C9019091CA01E80FF91F8081CE
:102EE0008093C801A7CF809100012091C8012823B9
:102EF00051F19093CD0190E09595879580930001D5
:102F0000892B09F097CF8091C9019091CA01019650
:102F10009093CA018093C9012091CB013091CC01DB
:102F200049E0429FF001439FF00D1124ED5FFE4FF9
:102F300027812817190609F04CF41092CE0180E180
:102F40008093010177CF1092CD01D5CF81E080939E
:102F5000CE0170CF8091B200855E8093B2008BE18C
:102F600074CF1092CC011092CB019ACF8B3028F500
:102F700029E0829FF0011124EC5BFE4F8581968150
:102F8000803127E29207C8F4883E23E09207B8F424
:102F900084369105B0F40A97B0F481E0909126024E
:102FA000891B990B8530910580F4880F991FFC01CE
:102FB000E65CFE4F80819181089585E0EFCF84E04B
:102FC000EDCF83E0EBCF82E0E9CF90E080E00895A1
:102FD0001F93CF93DF93C0912702D09128022196AF
:102FE000D0932802C093270261E080E00E94250A66
:102FF000C038D10538F089E990E0DF91CF911F9179
:103000000C94080AC0912702D09128028C2F0E94AC
:103010005E0187E694E00E941205182F882311F0C4
:103020008430D1F480EA90E00E94080ADD27C031A4
:10303000D10518F480E30E94FF09BE0190E080E012
:1030400040E10E948A0C80E2143009F48FE3DF91A2
:10305000CF911F910C94FF092196D0932802C09321
:103060002702C6CF0F931F93CF93DF9307E614E099
:10307000F8011382128288EE93E0A0E0B0E084832E
:103080009583A683B7838BEA91E091838083CBE716
:10309000D4E086E0888380E8898388E08A831B8285
:1030A0001C821D821E8286E00E946A010E9412021A
:1030B0006B837C838D839E83E3E7F4E08DE38083E1
:1030C0001783068311828FEF828383831582148294
:1030D000E4E5F4E0118A108A128AEAE0F4E013824F
:1030E0001282128E148A8FE084838EE085838DE0B5
:1030F00086838CE087838BE080878AE0818789E004
:103100008287178681E0808B82E0818B83E0828BCF
:1031100084E0838B8DEB91E091838083148E158EF8
:10312000168E178E8AE090E091A380A312A213A2BC
:1031300015A216A217A210A692A781A713A614A6DD
:1031400016A617A610AA11AA93AB82AB14AA15AAA9
:1031500017AA10AE11AE12AE94AF83AF15AE16AE75
:1031600010924A0410924B0410924C0410924D0499
:1031700090934F0480934E04109250041092510487
:103180008EE180930904DF91CF911F910F910895F3
:10319000CF93DF93CDB7DEB762970FB6F894DEBF5B
:1031A0000FBECDBF789484B5826084BD84B5816044
:1031B00084BD85B5826085BD85B5816085BD809102
:1031C0006E00816080936E0010928100809181007A
:1031D0008260809381008091810081608093810072
:1031E000809180008160809380008091B100846034
:1031F0008093B1008091B00081608093B000809195
:103200007A00846080937A0080917A008260809353
:103210007A0080917A00816080937A0080917A00B0
:10322000806880937A001092C10016E1E12E11E0CF
:10323000F12E02E0C02ED12CC6010E946724182F67
:10324000C60101960E946724212F30E0322F2227E9
:10325000820F932F911DD7018D939D937D01B2E035
:10326000CB0ED11CE8E1CE16D10431F780912201BA
:10327000909123010A9728F46AE070E086E00E94AA
:10328000451380912401909125010B9711F00E9424
:1032900079130E94040DE4E2F3E08FE8DF011D9250
:1032A0008A95E9F787E00E946A01E8E5F2E0249157
:1032B000E4E4F2E0E491F0E0EE0FFF1FE75DFD4F84
:1032C0004591549180E091E031E0291741F08F5F02
:1032D000932F082E01C0990F0A94EAF7F6CF509366
:1032E0001F0340931E0380931D0384E293E0909399
:1032F0001603809315032098E0911E03F0911F039D
:10330000208130911D0381E090E001C0880F3A9543
:10331000EAF78095822380831092800011E0109359
:10332000810010922103B59A80916F008062809392
:103330006F0080918100887F8160809381008091FF
:10334000260182FFA4C0109253021092520284E020
:10335000809354020E94710610923A0210921C024D
:1033600010921B021092360210923702109238020D
:103370001092390210923B020E9490028DE30E944B
:103380005E0187E694E00E941205811102C010934D
:10339000350280E70E945E0187E694E00E941205F4
:1033A000811175C081E080931A028091640490912C
:1033B0006504009711F00E949E2786E090E00E942D
:1033C00002278C0180E7F801808387E694E09283EE
:1033D0008183138280E290E0958384831093650457
:1033E000009364040E94900281E0D80113968C93AC
:1033F000C8010E946D05882309F449C081E2898BC8
:1034000041E050E0BE016F5E7F4F80916404909177
:1034100065040E94D606109255041092540410922E
:1034200057041092560410925904109258041092A6
:103430005B0410925A0410925D0410925C04109286
:103440005F0410925E041092610410926004109266
:103450006304109262040E940A0781E8898341E0B4
:1034600050E0BE016F5F7F4F8091640490916504CE
:103470000E94D6068FEE898341E050E0BE016F5F67
:103480007F4F80916404909165040E94D60689E084
:103490000E946A011092410210924202809128011A
:1034A0009091290174E0969587957A95E1F7B1E0BE
:1034B0008B278170809315018091260182FD1092E7
:1034C000150187B1836087B91092B00082E08093C4
:1034D000B10081E0809370008DE88093B2000E947B
:1034E00012026093450270934602809347029093C4
:1034F000480260EC462E67E2562E69E0662E712C7B
:1035000048E0842E912C22242A945FE3352E0E94D9
:10351000120200917E0410917F042091800430916A
:103520008104601B710B820B930B65317105810562
:10353000910508F454C00E94120260937E047093B7
:103540007F04809380049093810410917C04809187
:103550007D04113C20F0819580937D0402C01032DF
:10356000D0F380917D04180F10937C0400917B04AC
:10357000802F0E946A01111105C060E0802F0E9417
:10358000A1012DC01F3F11F461E0F8CFE02FF0E062
:10359000EB54FE4FE491E33009F4D1C040F4E13044
:1035A000D1F0E23009F4C6C017FDEECFE6CFE73028
:1035B00009F4D1C0E83009F4D6C0E430A9F780910D
:1035C0008000806280938000812F90E090938B0038
:1035D00080938A0004C084B5806884BD17BD0E94B2
:1035E00012020091210210912202209123023091B7
:1035F0002402601B710B820B930B6E3771058105E2
:10360000910528F10E941202609321027093220218
:1036100080932302909324029091200281E09827C6
:1036200090932002992399F090911F0298279093EC
:103630001F02992361F090911E02982790931E0219
:10364000992329F090911D02892780931D020E94E1
:10365000040D80912D028130E1F565E083E594E071
:103660000E947D07E0E28E9FC00111248095909515
:1036700061E085FD60E08AE094E00E943A0829E17B
:10368000E22E24E0F22E10E000E03FE1D32EC02E27
:10369000D7016D917D0180E0603120F485E294E0F6
:1036A0000E947D0790E002C0880F991FCA94E2F73C
:1036B00080959095D8220F5F1F4F0530110539F77F
:1036C00080912C02D11057C0882309F440C3109276
:1036D0002C0284E293E00E94BF10FC0190936502EB
:1036E00080936402892B09F401C77181272F30E090
:1036F0006281462F50E0CA019695982F88279795AA
:10370000879580789770872B932BA081A23B09F433
:1037100097C30196A13B09F403C408F07FC3A33803
:1037200009F4FBC3A03B09F09CC3407260710E9486
:10373000731297C384B5806284BD18BD50CF809149
:103740008000806880938000812F90E090938900B2
:103750008093880044CF8091B00080688093B0004F
:103760001093B3003CCF8091B00080628093B00092
:103770001093B40034CFD81609F4E9C20091440282
:10378000D0922C02011105C0D2FEA3CF0E949F0A45
:10379000A0CF0130F1F4D3FE05C00E94D80C1092E6
:1037A000440297CFD2FE03C00E948F0A92CFD1FE6F
:1037B000EFC10E942D108AE0809344028091410263
:1037C000802780932B0280914302082700932A02CE
:1037D00080CF023061F4D3FCD9CFD1FE03C00E9468
:1037E0007F0A77CFD2FE75CF0E94600A72CF073072
:1037F00079F4D3FCD9CFD1FECBC18091260182FDD3
:10380000C7C18CE38093440280E00E94B90622C2C3
:103810000A30E9F5D4FCBACF8091260182FD59CF58
:10382000D0FE22C0D1FE17C0198A1982BE016F5F77
:103830007F4FCE0141960E94AE06BE016F5F7F4F63
:10384000CE0141960E946C0C80912B0291E0892759
:1038500080932B023ECF0E943C128091430291E064
:10386000892780932A0235CF8091280180FF31CFAC
:10387000609118016F5FD3FC05C0D2FE2ACF609122
:103880001801615070E081E00E94941322CF04314E
:1038900008F47EC180910904801708F479C11CEEF8
:1038A000100FD0FE2DC080912902882309F411CF7A
:1038B0006091270270912802812F0E949413082F93
:1038C0008FEF9FEF1B3040F4E12FF0E0EE0FFF1F72
:1038D000EA5EFE4F808191810E94130F61E08AE0D1
:1038E0000E94250A8EEA91E0011102C087EA91E068
:1038F0000E94080A61E0809126020E94250AE9CE12
:10390000D4FE0EC080912902882309F468CF10925A
:103910002902E12F1B3008F4C2C08FEF9FEF2DC1A9
:10392000D1FE57C08091290281111FC01B30E8F4DD
:10393000E12FF0E029E0129FD0011124AC5BBE4FD3
:1039400018968C91811111C0EE0FFF1FEA5EFE4F99
:1039500080819181909328028093270221E0209317
:103960002902109226020E94130F809129028823B7
:1039700009F4AFCE009126020F5F009326021B30A0
:1039800048F439E0139FF0011124EC5BFE4F87816E
:10399000823061F0812F0E948D0690E00196081719
:1039A000190631F481E08093260202C00930D1F378
:1039B00061E0809126020E94250A60911F04862FF3
:1039C000826080931F046A608AE094E00E94220A69
:1039D00080CED3FE6CC090912902992309F452C085
:1039E000E0902702F09028028FEF9FEF1B30E8F560
:1039F000C12ED12C79E0179FF0011124EC5BFE4F12
:103A00000781023080F4812F0E94B6178E0D9F1D12
:103A100090932802809327028E159F0520F4F09240
:103A20002802E092270220912702309128020230DA
:103A300091F480912602A401481B510981E090E095
:103A400002C0880F991F4A95E2F7822B932B90931F
:103A500028028093270289E08C9DF0018D9DF00D56
:103A60001124EC5BFE4F85819681209127023091D5
:103A700028028217930708F07CC0F0922802E09297
:103A8000270277C00F5F00934402081710F080935D
:103A90004402E0914402E451EB3008F03ECFF0E004
:103AA000EE0FFF1FEA5EFE4F8081918166C0D2FE5D
:103AB0006FC080912902882309F462C0E090270238
:103AC000F090280290E080E01B3008F040C0C12E4A
:103AD000D12C89E0189FF0011124EC5BFE4F078187
:103AE000023088F4812F0E94B617D701A81BB90BAA
:103AF000B0932802A0932702EA16FB0620F4F09266
:103B00002802E092270220912702309128020230F9
:103B1000A1F480912602A401481B510981E090E0A4
:103B200002C0880F991F4A95E2F7809590958223ED
:103B30009323909328028093270289E08C9DF001C3
:103B40008D9DF00D1124EC5BFE4F838194812091BB
:103B50002702309128022817390720F4F092280212
:103B6000E09227028091270290912802019609F4A1
:103B700084CF80912702909128020E94130FA9CD33
:103B8000015000934402033109F083CF84E17FCFD9
:103B900084EC800F823008F0A6C0D0FE40C0809137
:103BA0002902882309F495CD0C33B1F41091270232
:103BB000198A1982BE016F5F7F4FCE0141960E9424
:103BC000AE06809118016AE00E94AF2601E02981CB
:103BD000412F60E00E94EC0A809144028D33B1F4E1
:103BE00010912702198A1982BE016F5F7F4FCE01A3
:103BF00041960E94AE06809118016AE00E94AF26AD
:103C000001E0212F498960E00E94EC0A61E088E030
:103C10000E94250A80EA91E00E94080A5ACDD4FE4B
:103C200008C090912902992309F4DECD109229024F
:103C3000ECCDD1FE12C09091290291114ACD0E9483
:103C4000B906282F30E0309328022093270291E014
:103C5000909329020E94D90E3CCDD3FE26C08091BC
:103C600029028823C9F080912702909128020196A9
:103C700028E10C3309F02CE32817190631F028F05D
:103C8000909328028093270204C010922802109279
:103C9000270280912702DECF8DE30D3309F50093D3
:103CA0004402809144028C53B0CDD2FE50C080912A
:103CB0002902882379F080912702909128020097A9
:103CC00039F488E10C3309F08CE38150990BD8CF9B
:103CD0000197D6CF0150009344020B3311F78CE3C8
:103CE00080934402DECF083C89F4D2FE03C00E94D8
:103CF0006F0AEFCCD4FC58CDD1FEEBCC84E180939D
:103D00004402809116019091170137CF023DC9F40A
:103D1000D3FC65CDD4FC48CDD1FEDBCC83ED8093C4
:103D2000440260E088E00E94250A80E20E94FF09C8
:103D3000EFEFFFEFF0932802E09327020E94E817CD
:103D4000C8CC033D21F4D4FCD2CFD2FCF7CF809174
:103D50004402873021F481E090E00E945B10809162
:103D600044028A3009F0B5CC8091280181FF08C057
:103D70008091260182FD04C090E080E00E945B10EB
:103D80001091180180912502181789F08091260161
:103D900082FF28C061E087E00E94250A612F70E061
:103DA00090E080E04AE00E948A0C10932502109176
:103DB00041028091260190912701847099272091DA
:103DC0002B02121741F110932B02892B71F061E045
:103DD0008CE00E94250A8BE991E011111DCF86E944
:103DE00091E01ACF60E08BE0D7CF60E08FE00E94D7
:103DF000250A8FE4111101C085E40E94FF0980911A
:103E0000430290912A02891709F463CC80932A0215
:103E10000E94730E5ECC892B91F35BCCAC3B09F412
:103E200095C0A03D09F49CC0A43BD9F47C33C9F4EF
:103E300080E090E0892BA9F08CE30E94000011C083
:103E400022E030E065FD02C021E030E040E050E0DB
:103E5000452B39F0880F991F6071820F931F0E94C4
:103E600000009091260192FFEEC0E0916402F09173
:103E70006502828194FFE0C08B3709F0E0C0808149
:103E80008F3E29F4828586FD02C08064828780810E
:103E9000877F873E09F0D3C0858190E8899F900194
:103EA00011248481820F932F911DD101A81BB90B7E
:103EB000B0933302A0933202828586FF75C480914D
:103EC000520290915302181619060CF0B8C08EE0F9
:103ED000A5E5B2E001900D928A95E1F781E00E949C
:103EE000190C8091540282FF11C080915A02B0E8EF
:103EF0008B9F9001112480915902820F932F911D65
:103F0000F101E81BF90BCF010E94300C22E030E0F8
:103F1000309353022093520292C00E94AF0AA1CF65
:103F200066FF0AC020E030E0232B09F49ACF4072EC
:103F300060710E94000095CF20E030E0232B09F44F
:103F400090CF407160720E9400008BCF20E030E083
:103F5000232B09F486CF407260710E94000081CF4C
:103F60007076703221F07036C1F171117ACF80E035
:103F700090E0892B09F475CFC9019695982F882771
:103F80009795879580789F70840F951FA5E035954C
:103F90002795AA95E1F72170019633814481E42F9A
:103FA000F0E0AF013D3731F070E8379FA0011124F8
:103FB0004E0F5F1F6F7081F1623081F1643081F1CB
:103FC000663081F1683081F16A3081F16C3081F1C5
:103FD0006E3081F10E94000044CF80E090E0892B98
:103FE00009F43FCF0381802F807D803109F039CFE4
:103FF000E480FF24F39411E041E0802F8F2109F049
:1040000040E02E2D2F21FF0C612F80E80E94000040
:104010001F5F153089F725CF61E4DCCF62E4DACF8A
:1040200063E4D8CF64E4D6CF65E4D4CF66E4D2CFDE
:1040300067E4D0CF68E4CECF8B3709F428CF8091E6
:10404000260182FD38C00091640210916502C8010A
:104050000E949B058430D1F4D8018C918B3BB1F444
:1040600011968C918B3791F480914302F090180156
:10407000811101C0F12C81E00E94B906E82E80E098
:104080000E94B9064F2D6E2D0E94BB11C8010E94DF
:104090009B058E3081F4F80180818F3E61F492811E
:1040A0009B3749F494EB998395E69A838B83CE01F1
:1040B00001960E94A7050091640210916502C80153
:1040C0000E949B05803109F011C2D8018C91853E78
:1040D00009F00CC214968C911497823009F006C234
:1040E00016962C911697809116019091170128171A
:1040F000190609F0E2C117962C91179780912401B7
:10410000909125012817190609F0D7C115968C91B1
:10411000159790E09C01E4E0220F331FEA95E1F748
:1041200020781996AC901997E894A7F82A2930E0DE
:10413000322F222745E0880F991F4A95E1F78078B2
:104140001896AC90E894A7F8A82AA20EB32EB11C3A
:104150006501B1E0CB1AD108CA8AEC2DEB3050F4DE
:1041600029E0C29EF0011124EC5BFE4F31E0878113
:10417000813009F030E0D80113968C918130F1F54F
:10418000BBE0CB16D104D0F5F801828590E06385C1
:104190006F77AC015695542F442757954795262F96
:1041A000240F332309F407C336E0880F991F3A958B
:1041B000E1F7807864856F77862B682F70E0762F23
:1041C0006627620F711D8C2D0E947413E0916402AA
:1041D000F0916502838180648383FA894FEFFB301D
:1041E00030F4F601EE0FFF1FEA5EFE4F4081E12C36
:1041F00000E020E060E08A2D0E948C12E0916402D1
:10420000F091650283818230B9F42BE0C216D104AB
:1042100098F482E483833A894FEF3B3030F4F6011F
:10422000EE0FFF1FEA5EFE4F4081E12C00E020E030
:1042300060E08A2D0E948C12E0916402F091650288
:104240008381833009F04AC07BE0C716D10408F0AF
:1042500045C0628570E0CB019695982F8827979589
:104260008795992723852F77280F392F311D16E041
:10427000660F771F1A95E1F76078772784858F7727
:10428000682B8A898B3008F098C2F601EE0FFF1F69
:10429000EA5EFE4F8081918126233723232B09F488
:1042A0008FC2682B792B8C2D0E947413E0916402CD
:1042B000F09165028381806483839A894FEF9B30FC
:1042C00030F4F601EE0FFF1FEA5EFE4F4081E12C55
:1042D00000E020E060E08A2D0E948C12E0916402F0
:1042E000F09165028381853009F07FC0ABE0CA168A
:1042F000D10408F07AC0828590E08C0126E0000F9E
:10430000111F2A95E1F7007864856F77062BBC01B1
:1043100035E0660F771F3A95E1F7162F107865851F
:104320006F77162BBC0144E0660F771F4A95E1F7C3
:10433000B62FB078EB2E66856F77E62A63856F77A8
:104340009695982F882797958795680F70E08C2D04
:104350000E947413FF24F394FC0C602F70E08F2DE7
:104360000E94741302E00C0D612F70E0802F0E94F8
:10437000741313E01C0D6E2D70E0812F0E947413D6
:10438000E0916402F0916502838180648383EA890D
:104390004FEFEB3030F4F601EE0FFF1FEA5EFE4FF9
:1043A0004081FAE02FEFFF1538F0EF2DF0E0EE0F2F
:1043B000FF1FEA5EFE4F20810B3008F006C2E02F9F
:1043C000F0E0EE0FFF1FEA5EFE4F0081EE24EA945C
:1043D0001B3038F4E12FF0E0EE0FFF1FEA5EFE4FD6
:1043E000E08060E08A2D0E948C12E0916402F091DE
:1043F000650283818630B1F52BE0C216D10490F5B9
:1044000086E483833A894FEF3B3030F4F601EE0FB8
:10441000FF1FEA5EFE4F4081E1E0EC0D2FEFEB3035
:1044200030F4F0E0EE0FFF1FEA5EFE4F2081E2E085
:10443000EC0D0FEFEB3030F4F0E0EE0FFF1FEA5E13
:10444000FE4F0081E3E0EC0DEE24EA94EB3030F413
:10445000F0E0EE0FFF1FEA5EFE4FE08060E08A2D85
:104460000E948C12E0916402F09165028381883091
:1044700061F488E4838340912401E42E00911601C5
:1044800020E06DE08AE30E948C12E0916402F091DA
:10449000650283818F3089F40E947913E091640270
:1044A000F0916502838180648383E12C00E020E049
:1044B00040E06B2D8A2D0E948C12E0916402F091F5
:1044C00065028681811112C0878181110FC08381AD
:1044D000873061F487E4838340912401E42E0091C6
:1044E000160120E06DE08AE30E948C128091260183
:1044F00082FFD9C00E94120200912E0210912F0259
:104500002091300230913102AB01BC01401B510BB4
:10451000620B730B809126014334510561057105CF
:1045200008F471C0D901C8018D5B9F4FAF4FBF4FD9
:1045300080932E0290932F02A0933002B093310209
:104540008091520290915302029709F043C08091EA
:10455000590290915802890F8093590287FF25C014
:10456000909154028F778093590280915A028F5F05
:1045700080935A0287FF19C08DE680935902892FD4
:104580008170885880935A0280915B028F5F8F37C9
:1045900008F01DC180935B0291FF2DC18FEE8093C7
:1045A000550285E592E00E94A7058091540282FFA2
:1045B00011C080915A0270E8879F90011124809168
:1045C0005902820F932F911DD101A81BB90BCD0168
:1045D0000E94300C8091520290915302892B79F401
:1045E0008BEB89838BE78A831B82CE0101960E9425
:1045F000A70581E090E0909353028093520280914E
:10460000260182FF50C090913B02992361F183FD06
:104610002AC020913A0280E6C82E8AEED82EE12CDC
:10462000F12C222359F030E050E040E060E67AEED1
:1046300080E090E00E94BB2669017A010E9412028C
:1046400000913602109137022091380230913902E0
:10465000601B710B820B930BC616D706E806F90692
:1046600010F40E94710680913502882309F4D5C0A8
:1046700061E0809173040E94B8031092B8038093A4
:10468000B703813009F4BBC082E890E090937804CE
:10469000809377048091740482FDBFC080913402BE
:1046A000882309F4BDC010911A01112391F1C09023
:1046B0004502D0904602E0904702F0904802C114B3
:1046C000D104E104F10429F10E941202AB01BC0102
:1046D0004C195D096E097F0928EE33E0129FC00175
:1046E000139F900D1124092E000CAA0BBB0B8417ED
:1046F0009507A607B70768F4109245021092460284
:1047000010924702109248028AE0809344020E946D
:104710002D10198A1982BE016F5F7F4FCE0141961D
:104720000E94AE06909143029923D9F09091260100
:1047300092FF8BC0882351F0898190914202981793
:1047400029F080934202817080934102809115018B
:1047500081110BC098B19C7F80913C028370892BA2
:1047600088B9809115018823A9F08091410290E8D1
:10477000811191E8F8948091430280931401909301
:104780000E0180910C0120910D01822789278093D1
:104790000F01789480E090E0892B11F40C94871A33
:1047A0000E9400000C94801A83E090E090935302E2
:1047B0008093520244CC80E000CD8FEF9FEF6CCD10
:1047C00060957095682379236ECD0FEFFFCD83E45C
:1047D00080935B0280915D028F5F87FD03C08093B1
:1047E0005D02DACE88E680935D0280915E028F5F83
:1047F00080935E02D1CE80E00E94190CD6CE8091CB
:10480000790490917A04DC01ED91FC910284F385A6
:10481000E02D0995809374043FCF1092340243CF6A
:1048200081E08093340290913C02913009F482E05F
:1048300080933C0280913502882309F434CF809123
:104840003C028C6F0E9415052ECF1091180111119A
:1048500001C01AE00E9412026B017C01212F30E09E
:1048600050E040E0C301B2010E94DD2680913D028C
:1048700090913E02A0913F02B0914002C81AD90A1D
:10488000EA0AFB0A2C153D054E055F05D0F40E948F
:10489000120260933D0270933E0280933F02909318
:1048A0004002BE016F5F7F4FCE0141960E946C0CAB
:1048B000412F698189890E94BB1189818170809310
:1048C00041026091410289E00E94A1013FCFF99924
:1048D000FECF92BD81BDF89A992780B50895262F05
:1048E000F999FECF1FBA92BD81BD20BD0FB6F894D5
:1048F000FA9AF99A0FBE019608955058BB27AA2735
:104900000E9495240C9408260E94FA2538F00E94F3
:10491000012620F039F49F3F19F426F40C94F72572
:104920000EF4E095E7FB0C94F125E92F0E9419267F
:1049300058F3BA17620773078407950720F079F4D4
:10494000A6F50C943B260EF4E0950B2EBA2FA02D65
:104950000B01B90190010C01CA01A0011124FF272C
:10496000591B99F0593F50F4503E68F11A16F04027
:10497000A22F232F342F4427585FF3CF4695379526
:104980002795A795F0405395C9F77EF41F16BA0BEB
:10499000620B730B840BBAF09150A1F0FF0FBB1F99
:1049A000661F771F881FC2F70EC0BA0F621F731FE2
:1049B000841F48F4879577956795B795F7959E3F3F
:1049C00008F0B0CF9395880F08F09927EE0F9795D0
:1049D000879508950E94CD2508F481E008950E94EE
:1049E00003250C9408260E94012658F00E94FA25FF
:1049F00040F029F45F3F29F00C94F12551110C94FB
:104A00003C260C94F7250E94192668F39923B1F3EC
:104A1000552391F3951B550BBB27AA2762177307E4
:104A2000840738F09F5F5F4F220F331F441FAA1F78
:104A3000A9F335D00E2E3AF0E0E832D09150504034
:104A4000E695001CCAF72BD0FE2F29D0660F771FE2
:104A5000881FBB1F261737074807AB07B0E809F0C8
:104A6000BB0B802DBF01FF2793585F4F3AF09E3F4D
:104A7000510578F00C94F1250C943C265F3FE4F34B
:104A8000983ED4F3869577956795B795F7959F5F90
:104A9000C9F7880F911D9695879597F90895E1E0DC
:104AA000660F771F881FBB1F621773078407BA073B
:104AB00020F0621B730B840BBA0BEE1F88F7E09596
:104AC00008950E94212688F09F5798F0B92F9927C2
:104AD000B751B0F0E1F0660F771F881F991F1AF0E9
:104AE000BA95C9F714C0B13091F00E943B26B1E0ED
:104AF00008950C943B26672F782F8827B85F39F0EC
:104B0000B93FCCF3869577956795B395D9F73EF481
:104B100090958095709561957F4F8F4F9F4F089529
:104B2000E89409C097FB3EF4909580957095619547
:104B30007F4F8F4F9F4F9923A9F0F92F96E9BB27FD
:104B40009395F695879577956795B795F111F8CF79
:104B5000FAF4BB0F11F460FF1BC06F5F7F4F8F4FE4
:104B60009F4F16C0882311F096E911C0772321F0DA
:104B70009EE8872F762F05C0662371F096E8862F72
:104B800070E060E02AF09A95660F771F881FDAF7C9
:104B9000880F9695879597F90895990F0008550FF6
:104BA000AA0BE0E8FEEF16161706E807F907C0F0B3
:104BB00012161306E407F50798F0621B730B840BBB
:104BC000950B39F40A2661F0232B242B252B21F495
:104BD00008950A2609F4A140A6958FEF811D811D35
:104BE000089597F99F6780E870E060E008959FEF6F
:104BF00080EC089500240A94161617061806090674
:104C0000089500240A941216130614060506089542
:104C1000092E0394000C11F4882352F0BB0F40F4CA
:104C2000BF2B11F460FF04C06F5F7F4F8F4F9F4F0A
:104C3000089557FD9058440F551F59F05F3F71F08C
:104C40004795880F97FB991F61F09F3F79F08795F3
:104C50000895121613061406551FF2CF4695F1DF7C
:104C600008C0161617061806991FF1CF869571050C
:104C7000610508940895E894BB2766277727CB0140
:104C800097F908950E9455260C9408260E94FA254B
:104C900038F00E94012620F0952311F00C94F125A4
:104CA0000C94F72511240C943C260E94192670F3CD
:104CB000959FC1F3950F50E0551F629FF001729FC1
:104CC000BB27F00DB11D639FAA27F00DB11DAA1FD0
:104CD000649F6627B00DA11D661F829F2227B00D1D
:104CE000A11D621F739FB00DA11D621F839FA00DA8
:104CF000611D221F749F3327A00D611D231F849FF8
:104D0000600D211D822F762F6A2F11249F5750404E
:104D10009AF0F1F088234AF0EE0FFF1FBB1F661FC9
:104D2000771F881F91505040A9F79E3F510580F092
:104D30000C94F1250C943C265F3FE4F3983ED4F3A9
:104D4000869577956795B795F795E7959F5FC1F736
:104D5000FE2B880F911D9695879597F90895991BBD
:104D600079E004C0991F961708F0961B881F7A9562
:104D7000C9F780950895A1E21A2EAA1BBB1BFD015D
:104D80000DC0AA1FBB1FEE1FFF1FA217B307E4072A
:104D9000F50720F0A21BB30BE40BF50B661F771F82
:104DA000881F991F1A9469F7609570958095909562
:104DB0009B01AC01BD01CF010895052E97FB1EF4A8
:104DC00000940E94F42657FD07D00E94BB2607FCE2
:104DD00003D04EF40C94F4265095409530952195CF
:104DE0003F4F4F4F5F4F0895909580957095619517
:104DF0007F4F8F4F9F4F0895EE0FFF1F0590F49147
:104E0000E02D09940F931F93CF93DF938230910588
:104E100010F482E090E0E0918404F091850430E0A9
:104E200020E0B0E0A0E0309799F42115310509F4B5
:104E30004AC0281B390B24303105D8F58A819B8163
:104E40006115710589F1FB0193838283FE0111C015
:104E5000408151810281138148175907E0F04817BA
:104E6000590799F4109761F012960C9312971396C4
:104E70001C933296CF01DF91CF911F910F9108952E
:104E80000093840410938504F4CF2115310551F06B
:104E90004217530738F0A901DB019A01BD01DF0178
:104EA000F801C1CFEF01F9CF90938504809384047A
:104EB000CDCFFE01E20FF31F819391932250310970
:104EC00039832883D7CF2091820430918304232B08
:104ED00041F420912E0130912F01309383042093CF
:104EE000820420912C0130912D012115310541F4CE
:104EF0002DB73EB74091300150913101241B350B45
:104F0000E0918204F0918304E217F307A0F42E1BD2
:104F10003F0B2817390778F0AC014E5F5F4F24171D
:104F2000350748F04E0F5F1F50938304409382046F
:104F3000819391939FCFF0E0E0E09CCFCF93DF93FC
:104F40000097E9F0FC01329713821282A091840449
:104F5000B0918504ED0130E020E01097A1F42081AC
:104F60003181820F931F209182043091830428178E
:104F7000390709F061C0F0938304E0938204DF9164
:104F8000CF910895EA01CE17DF07E8F54A815B81EA
:104F90009E0141155105B1F7E901FB83EA8349916F
:104FA0005991C40FD51FEC17FD0761F480819181E1
:104FB0000296840F951FE9019983888382819381EA
:104FC0009B838A83F0E0E0E012968D919C91139789
:104FD0000097B9F52D913C911197CD010296820F62
:104FE000931F20918204309183042817390739F6E2
:104FF000309751F51092850410928404B093830485
:10500000A0938204BCCFD383C28340815181840F9B
:10501000951FC817D90761F44E5F5F4F888199814A
:10502000480F591F518340838A819B8193838283D8
:105030002115310509F0B0CFF0938504E093840485
:105040009ECFFD01DC01C0CF13821282D7CF68173B
:10505000790768F4FB01DC01E40FF51FA40FB51F0D
:1050600002C002900E9241505040D8F708950C941F
:105070003928FB01DC0102C001900D9241505040E3
:08508000D8F70895F894FFCF62
:1050880080108DFF00FF000000000301C0FA00003F
:10509800000000040001FFFFFFFFFFFFFFFFFFFF0D
:1050A800FFFFFFFFFFFFFFFFFFFFFFFF000086047A
:1050B8008000000040001400540001000A00640051
:1050C800E803102700010001007E000000011E0017
:1050D8000A0063000000020300000009000000034A
:1050E80000000000000000010400000000000000B3
:1050F80001050000000000000001060A000000FF92
:10510800000000070B000B000B0000010800000066
:1051180000FF0002000910000000FF0002000A9FC3
:105128000200000008010000000000DE04B104D302
:10513800068704AA049704880400000000F9091EE1
:0851480002D306D2063F3F002E
:00000001FF
